{
  "_format": "hh-sol-artifact-1",
  "contractName": "InitialLiquidityVaultFactory",
  "sourceName": "contracts/InitialLiquidityVaultFactory.sol",
  "abi": [
    {
      "inputs": [],
      "stateMutability": "nonpayable",
      "type": "constructor"
    },
    {
      "anonymous": false,
      "inputs": [
        {
          "indexed": false,
          "internalType": "address",
          "name": "contractAddress",
          "type": "address"
        },
        {
          "indexed": false,
          "internalType": "string",
          "name": "name",
          "type": "string"
        }
      ],
      "name": "CreatedInitialLiquidityVault",
      "type": "event"
    },
    {
      "anonymous": false,
      "inputs": [
        {
          "indexed": true,
          "internalType": "bytes32",
          "name": "role",
          "type": "bytes32"
        },
        {
          "indexed": true,
          "internalType": "bytes32",
          "name": "previousAdminRole",
          "type": "bytes32"
        },
        {
          "indexed": true,
          "internalType": "bytes32",
          "name": "newAdminRole",
          "type": "bytes32"
        }
      ],
      "name": "RoleAdminChanged",
      "type": "event"
    },
    {
      "anonymous": false,
      "inputs": [
        {
          "indexed": true,
          "internalType": "bytes32",
          "name": "role",
          "type": "bytes32"
        },
        {
          "indexed": true,
          "internalType": "address",
          "name": "account",
          "type": "address"
        },
        {
          "indexed": true,
          "internalType": "address",
          "name": "sender",
          "type": "address"
        }
      ],
      "name": "RoleGranted",
      "type": "event"
    },
    {
      "anonymous": false,
      "inputs": [
        {
          "indexed": true,
          "internalType": "bytes32",
          "name": "role",
          "type": "bytes32"
        },
        {
          "indexed": true,
          "internalType": "address",
          "name": "account",
          "type": "address"
        },
        {
          "indexed": true,
          "internalType": "address",
          "name": "sender",
          "type": "address"
        }
      ],
      "name": "RoleRevoked",
      "type": "event"
    },
    {
      "inputs": [],
      "name": "ADMIN_ROLE",
      "outputs": [
        {
          "internalType": "bytes32",
          "name": "",
          "type": "bytes32"
        }
      ],
      "stateMutability": "view",
      "type": "function"
    },
    {
      "inputs": [],
      "name": "BURNER_ROLE",
      "outputs": [
        {
          "internalType": "bytes32",
          "name": "",
          "type": "bytes32"
        }
      ],
      "stateMutability": "view",
      "type": "function"
    },
    {
      "inputs": [],
      "name": "CLAIMER_ROLE",
      "outputs": [
        {
          "internalType": "bytes32",
          "name": "",
          "type": "bytes32"
        }
      ],
      "stateMutability": "view",
      "type": "function"
    },
    {
      "inputs": [],
      "name": "DEFAULT_ADMIN_ROLE",
      "outputs": [
        {
          "internalType": "bytes32",
          "name": "",
          "type": "bytes32"
        }
      ],
      "stateMutability": "view",
      "type": "function"
    },
    {
      "inputs": [],
      "name": "MINTER_ROLE",
      "outputs": [
        {
          "internalType": "bytes32",
          "name": "",
          "type": "bytes32"
        }
      ],
      "stateMutability": "view",
      "type": "function"
    },
    {
      "inputs": [
        {
          "internalType": "address",
          "name": "account",
          "type": "address"
        }
      ],
      "name": "addAdmin",
      "outputs": [],
      "stateMutability": "nonpayable",
      "type": "function"
    },
    {
      "inputs": [
        {
          "internalType": "string",
          "name": "_name",
          "type": "string"
        },
        {
          "internalType": "address",
          "name": "_token",
          "type": "address"
        },
        {
          "internalType": "address",
          "name": "_admin",
          "type": "address"
        },
        {
          "internalType": "uint256",
          "name": "tosPrice",
          "type": "uint256"
        },
        {
          "internalType": "uint256",
          "name": "tokenPrice",
          "type": "uint256"
        }
      ],
      "name": "create",
      "outputs": [
        {
          "internalType": "address",
          "name": "",
          "type": "address"
        }
      ],
      "stateMutability": "nonpayable",
      "type": "function"
    },
    {
      "inputs": [
        {
          "internalType": "uint256",
          "name": "",
          "type": "uint256"
        }
      ],
      "name": "createdContracts",
      "outputs": [
        {
          "internalType": "address",
          "name": "contractAddress",
          "type": "address"
        },
        {
          "internalType": "string",
          "name": "name",
          "type": "string"
        }
      ],
      "stateMutability": "view",
      "type": "function"
    },
    {
      "inputs": [],
      "name": "fee",
      "outputs": [
        {
          "internalType": "uint24",
          "name": "",
          "type": "uint24"
        }
      ],
      "stateMutability": "view",
      "type": "function"
    },
    {
      "inputs": [
        {
          "internalType": "uint256",
          "name": "_index",
          "type": "uint256"
        }
      ],
      "name": "getContracts",
      "outputs": [
        {
          "internalType": "address",
          "name": "contractAddress",
          "type": "address"
        },
        {
          "internalType": "string",
          "name": "name",
          "type": "string"
        }
      ],
      "stateMutability": "view",
      "type": "function"
    },
    {
      "inputs": [
        {
          "internalType": "bytes32",
          "name": "role",
          "type": "bytes32"
        }
      ],
      "name": "getRoleAdmin",
      "outputs": [
        {
          "internalType": "bytes32",
          "name": "",
          "type": "bytes32"
        }
      ],
      "stateMutability": "view",
      "type": "function"
    },
    {
      "inputs": [
        {
          "internalType": "bytes32",
          "name": "role",
          "type": "bytes32"
        },
        {
          "internalType": "address",
          "name": "account",
          "type": "address"
        }
      ],
      "name": "grantRole",
      "outputs": [],
      "stateMutability": "nonpayable",
      "type": "function"
    },
    {
      "inputs": [
        {
          "internalType": "bytes32",
          "name": "role",
          "type": "bytes32"
        },
        {
          "internalType": "address",
          "name": "account",
          "type": "address"
        }
      ],
      "name": "hasRole",
      "outputs": [
        {
          "internalType": "bool",
          "name": "",
          "type": "bool"
        }
      ],
      "stateMutability": "view",
      "type": "function"
    },
    {
      "inputs": [
        {
          "internalType": "address",
          "name": "account",
          "type": "address"
        }
      ],
      "name": "isAdmin",
      "outputs": [
        {
          "internalType": "bool",
          "name": "",
          "type": "bool"
        }
      ],
      "stateMutability": "view",
      "type": "function"
    },
    {
      "inputs": [],
      "name": "lastestCreated",
      "outputs": [
        {
          "internalType": "address",
          "name": "contractAddress",
          "type": "address"
        },
        {
          "internalType": "string",
          "name": "name",
          "type": "string"
        }
      ],
      "stateMutability": "view",
      "type": "function"
    },
    {
      "inputs": [],
      "name": "logEventAddress",
      "outputs": [
        {
          "internalType": "address",
          "name": "",
          "type": "address"
        }
      ],
      "stateMutability": "view",
      "type": "function"
    },
    {
      "inputs": [],
      "name": "nonfungiblePositionManager",
      "outputs": [
        {
          "internalType": "address",
          "name": "",
          "type": "address"
        }
      ],
      "stateMutability": "view",
      "type": "function"
    },
    {
      "inputs": [
        {
          "internalType": "address",
          "name": "account",
          "type": "address"
        }
      ],
      "name": "removeAdmin",
      "outputs": [],
      "stateMutability": "nonpayable",
      "type": "function"
    },
    {
      "inputs": [
        {
          "internalType": "bytes32",
          "name": "role",
          "type": "bytes32"
        },
        {
          "internalType": "address",
          "name": "account",
          "type": "address"
        }
      ],
      "name": "renounceRole",
      "outputs": [],
      "stateMutability": "nonpayable",
      "type": "function"
    },
    {
      "inputs": [
        {
          "internalType": "bytes32",
          "name": "role",
          "type": "bytes32"
        },
        {
          "internalType": "address",
          "name": "account",
          "type": "address"
        }
      ],
      "name": "revokeRole",
      "outputs": [],
      "stateMutability": "nonpayable",
      "type": "function"
    },
    {
      "inputs": [
        {
          "internalType": "address",
          "name": "addr",
          "type": "address"
        }
      ],
      "name": "setLogEventAddress",
      "outputs": [],
      "stateMutability": "nonpayable",
      "type": "function"
    },
    {
      "inputs": [
        {
          "internalType": "address",
          "name": "_logic",
          "type": "address"
        }
      ],
      "name": "setLogic",
      "outputs": [],
      "stateMutability": "nonpayable",
      "type": "function"
    },
    {
      "inputs": [
        {
          "internalType": "address[2]",
          "name": "addrs",
          "type": "address[2]"
        },
        {
          "internalType": "address",
          "name": "_tos",
          "type": "address"
        },
        {
          "internalType": "uint24",
          "name": "_fee",
          "type": "uint24"
        }
      ],
      "name": "setUniswapInfoNTokens",
      "outputs": [],
      "stateMutability": "nonpayable",
      "type": "function"
    },
    {
      "inputs": [
        {
          "internalType": "address",
          "name": "addr",
          "type": "address"
        }
      ],
      "name": "setUpgradeAdmin",
      "outputs": [],
      "stateMutability": "nonpayable",
      "type": "function"
    },
    {
      "inputs": [
        {
          "internalType": "bytes4",
          "name": "interfaceId",
          "type": "bytes4"
        }
      ],
      "name": "supportsInterface",
      "outputs": [
        {
          "internalType": "bool",
          "name": "",
          "type": "bool"
        }
      ],
      "stateMutability": "view",
      "type": "function"
    },
    {
      "inputs": [],
      "name": "tos",
      "outputs": [
        {
          "internalType": "address",
          "name": "",
          "type": "address"
        }
      ],
      "stateMutability": "view",
      "type": "function"
    },
    {
      "inputs": [],
      "name": "totalCreatedContracts",
      "outputs": [
        {
          "internalType": "uint256",
          "name": "",
          "type": "uint256"
        }
      ],
      "stateMutability": "view",
      "type": "function"
    },
    {
      "inputs": [
        {
          "internalType": "address",
          "name": "newAdmin",
          "type": "address"
        }
      ],
      "name": "transferAdmin",
      "outputs": [],
      "stateMutability": "nonpayable",
      "type": "function"
    },
    {
      "inputs": [],
      "name": "uniswapV3Factory",
      "outputs": [
        {
          "internalType": "address",
          "name": "",
          "type": "address"
        }
      ],
      "stateMutability": "view",
      "type": "function"
    },
    {
      "inputs": [],
      "name": "upgradeAdmin",
      "outputs": [
        {
          "internalType": "address",
          "name": "",
          "type": "address"
        }
      ],
      "stateMutability": "view",
      "type": "function"
    },
    {
      "inputs": [
        {
          "internalType": "address",
          "name": "_contract",
          "type": "address"
        },
        {
          "internalType": "bytes4[]",
          "name": "_selectors",
          "type": "bytes4[]"
        },
        {
          "internalType": "address",
          "name": "_imp",
          "type": "address"
        }
      ],
      "name": "upgradeContractFunction",
      "outputs": [],
      "stateMutability": "nonpayable",
      "type": "function"
    },
    {
      "inputs": [
        {
          "internalType": "address",
          "name": "_contract",
          "type": "address"
        },
        {
          "internalType": "address",
          "name": "_logic",
          "type": "address"
        },
        {
          "internalType": "uint256",
          "name": "_index",
          "type": "uint256"
        },
        {
          "internalType": "bool",
          "name": "_alive",
          "type": "bool"
        }
      ],
      "name": "upgradeContractLogic",
      "outputs": [],
      "stateMutability": "nonpayable",
      "type": "function"
    },
    {
      "inputs": [],
      "name": "vaultLogic",
      "outputs": [
        {
          "internalType": "address",
          "name": "",
          "type": "address"
        }
      ],
      "stateMutability": "view",
      "type": "function"
    }
  ],
  "bytecode": "0x60806040523480156200001157600080fd5b50600060015562000032600080516020620046f08339815191528062000065565b6200004d600080516020620046f083398151915233620000b0565b600380546001600160a01b0319163317905562000160565b600082815260208190526040808220600101805490849055905190918391839186917fbd79b86ffe0ab8e8776151514217cd7cacd52c909f66475c3af44e129f0b00ff9190a4505050565b620000bc8282620000c0565b5050565b6000828152602081815260408083206001600160a01b038516845290915290205460ff16620000bc576000828152602081815260408083206001600160a01b03851684529091529020805460ff191660011790556200011c3390565b6001600160a01b0316816001600160a01b0316837f2f8788117e7eff1d82e926ec794901d17c78024a50270940304540a733656f0d60405160405180910390a45050565b61458080620001706000396000f3fe60806040523480156200001157600080fd5b5060043610620001e15760003560e01c80637e2826f6116200010f578063bda5b5d411620000aa578063bda5b5d4146200044c578063c4d5608a1462000463578063d05261871462000477578063d53913931462000481578063d547741f14620004a9578063ddca3f4314620004c0578063eaa2a00c14620004ec578063eab73ca11462000503578063fc5f18d3146200051757600080fd5b80637e2826f614620003ab57806389f395de14620003c257806391d1485414620003d65780639342f41714620003ed578063a217fddf1462000404578063b078147a146200040d578063b44a27221462000421578063b4d40280146200043557600080fd5b806336568abe116200018057806336568abe14620002e7578063439e23fd14620002fe5780635b549182146200031557806367c5f8de146200033857806370480275146200034f57806371857000146200036657806375829def146200037d57806375b238fc146200039457600080fd5b806301ffc9a714620001e65780630881139714620002125780631785f53c1462000239578063248a9ca3146200025257806324d7806c1462000287578063282c51f3146200029e5780632f2ff15d14620002c6578063338bad5f14620002dd575b600080fd5b620001fd620001f736600462001be5565b6200053f565b60405190151581526020015b60405180910390f35b620002296200022336600462001b9e565b62000577565b6040516200020992919062001ddb565b620002506200024a36600462001a36565b6200062e565b005b620002786200026336600462001b9e565b60009081526020819052604090206001015490565b60405190815260200162000209565b620001fd6200029836600462001a36565b6200067f565b620002787f9667e80708b6eeeb0053fa0cca44e028ff548e2a9f029edfeac87c118b08b7c881565b62000250620002d736600462001bb7565b6200069c565b62000229620006cb565b62000250620002f836600462001bb7565b620007e4565b620002296200030f36600462001b9e565b62000866565b60065462000329906001600160a01b031681565b60405162000209919062001d74565b620002506200034936600462001a53565b6200094c565b620002506200036036600462001a36565b62000a0d565b620002506200037736600462001a36565b62000a52565b620002506200038e36600462001a36565b62000b24565b620002786000805160206200452b83398151915281565b62000250620003bc36600462001a36565b62000c2b565b60085462000329906001600160a01b031681565b620001fd620003e736600462001bb7565b62000cd3565b62000250620003fe36600462001a36565b62000cfc565b62000278600081565b60045462000329906001600160a01b031681565b60075462000329906001600160a01b031681565b620002506200044636600462001aab565b62000da4565b620003296200045d36600462001c02565b62000e2a565b60035462000329906001600160a01b031681565b6200027860015481565b620002787ff0887ba65ee2024ea881d91b74c2450ef19e1557f03bed3ea9f16b037cbe2dc981565b62000250620004ba36600462001bb7565b6200146e565b600854620004d790600160a01b900462ffffff1681565b60405162ffffff909116815260200162000209565b62000250620004fd36600462001b46565b62001498565b60055462000329906001600160a01b031681565b620002787fe5667d34d7ea8d6fdb3aa71a0a5b85e4cf7f68356dd003cd638556b0eea2bce581565b60006001600160e01b03198216637965db0b60e01b14806200057157506301ffc9a760e01b6001600160e01b03198316145b92915050565b600260205260009081526040902080546001820180546001600160a01b039092169291620005a59062002037565b80601f0160208091040260200160405190810160405280929190818152602001828054620005d39062002037565b8015620006245780601f10620005f85761010080835404028352916020019162000624565b820191906000526020600020905b8154815290600101906020018083116200060657829003601f168201915b5050505050905082565b62000639336200067f565b620006615760405162461bcd60e51b8152600401620006589062001f51565b60405180910390fd5b6200067c6000805160206200452b83398151915282620007e4565b50565b6000620005716000805160206200452b8339815191528362000cd3565b600082815260208190526040902060010154620006ba8133620015f0565b620006c683836200165f565b505050565b6000606060006001541115620007cf576002600060018054620006ef919062001fd0565b81526020810191909152604001600090812054600180546001600160a01b03909216926002929091620007229162001fd0565b8152602001908152602001600020600101808054620007419062002037565b80601f01602080910402602001604051908101604052809291908181526020018280546200076f9062002037565b8015620007c05780601f106200079457610100808354040283529160200191620007c0565b820191906000526020600020905b815481529060010190602001808311620007a257829003601f168201915b50505050509050915091509091565b50506040805160208101909152600080825291565b6001600160a01b0381163314620008565760405162461bcd60e51b815260206004820152602f60248201527f416363657373436f6e74726f6c3a2063616e206f6e6c792072656e6f756e636560448201526e103937b632b9903337b91039b2b63360891b606482015260840162000658565b620008628282620016e7565b5050565b60006060600154831015620009345760008381526002602052604090208054600190910180546001600160a01b03909216918190620008a59062002037565b80601f0160208091040260200160405190810160405280929190818152602001828054620008d39062002037565b8015620009245780601f10620008f85761010080835404028352916020019162000924565b820191906000526020600020905b8154815290600101906020018083116200090657829003601f168201915b5050505050905091509150915091565b50506040805160208101909152600080825292909150565b62000957336200067f565b620009765760405162461bcd60e51b8152600401620006589062001f51565b836001600160a01b038116620009a05760405162461bcd60e51b8152600401620006589062001f25565b604051637cd5f66360e01b81526001600160a01b03861690637cd5f66390620009d29087908790879060040162001d88565b600060405180830381600087803b158015620009ed57600080fd5b505af115801562000a02573d6000803e3d6000fd5b505050505050505050565b62000a18336200067f565b62000a375760405162461bcd60e51b8152600401620006589062001f51565b6200067c6000805160206200452b833981519152826200069c565b806001600160a01b03811662000a7c5760405162461bcd60e51b8152600401620006589062001f25565b62000a87336200067f565b62000aa65760405162461bcd60e51b8152600401620006589062001f51565b6004546001600160a01b038381169116141562000b015760405162461bcd60e51b815260206004820152601860248201527730b63932b0b23c9039b2ba103a3434b9903b32b939b4b7b760411b604482015260640162000658565b50600480546001600160a01b0319166001600160a01b0392909216919091179055565b62000b2f336200067f565b62000b4e5760405162461bcd60e51b8152600401620006589062001f51565b6001600160a01b03811662000ba15760405162461bcd60e51b815260206004820152601860248201527741636365737369626c653a207a65726f206164647265737360401b604482015260640162000658565b336001600160a01b038216141562000bf55760405162461bcd60e51b815260206004820152601660248201527520b1b1b2b9b9b4b136329d1039b0b6b29030b236b4b760511b604482015260640162000658565b62000c106000805160206200452b833981519152826200069c565b6200067c6000805160206200452b83398151915233620007e4565b62000c36336200067f565b62000c555760405162461bcd60e51b8152600401620006589062001f51565b806001600160a01b03811662000c7f5760405162461bcd60e51b8152600401620006589062001f25565b6005546001600160a01b038381169116141562000cb05760405162461bcd60e51b8152600401620006589062001f01565b50600580546001600160a01b0319166001600160a01b0392909216919091179055565b6000918252602082815260408084206001600160a01b0393909316845291905290205460ff1690565b62000d07336200067f565b62000d265760405162461bcd60e51b8152600401620006589062001f51565b806001600160a01b03811662000d505760405162461bcd60e51b8152600401620006589062001f25565b6003546001600160a01b038381169116141562000d815760405162461bcd60e51b8152600401620006589062001f01565b50600380546001600160a01b0319166001600160a01b0392909216919091179055565b62000daf336200067f565b62000dce5760405162461bcd60e51b8152600401620006589062001f51565b836001600160a01b03811662000df85760405162461bcd60e51b8152600401620006589062001f25565b604051634a5df50f60e01b81526001600160a01b03861690634a5df50f90620009d29087908790879060040162001e09565b6004546000906001600160a01b03168062000e595760405162461bcd60e51b8152600401620006589062001f25565b6003546001600160a01b03168062000e855760405162461bcd60e51b8152600401620006589062001f25565b8762000ec45760405162461bcd60e51b815260206004820152600d60248201526c6e616d6520697320656d70747960981b604482015260640162000658565b600060405162000ed4906200194c565b604051809103906000f08015801562000ef1573d6000803e3d6000fd5b5090506001600160a01b03811662000f4c5760405162461bcd60e51b815260206004820152601f60248201527f496e697469616c4c69717569646974795661756c7450726f7879207a65726f00604482015260640162000658565b6003546040516325bc555f60e21b81526001600160a01b03838116926396f1557c9262000f80929091169060040162001d74565b600060405180830381600087803b15801562000f9b57600080fd5b505af115801562000fb0573d6000803e3d6000fd5b5050600354604051637048027560e01b81526001600160a01b0380861694506370480275935062000fe692169060040162001d74565b600060405180830381600087803b1580156200100157600080fd5b505af115801562001016573d6000803e3d6000fd5b505060048054604051637cd5f66360e01b81526001600160a01b038087169550637cd5f663945062001052939216916000916001910162001d88565b600060405180830381600087803b1580156200106d57600080fd5b505af115801562001082573d6000803e3d6000fd5b5050600554604051630b8717f760e11b81526001600160a01b03918216600482015260016024820152908416925063170e2fee9150604401600060405180830381600087803b158015620010d557600080fd5b505af1158015620010ea573d6000803e3d6000fd5b505060405163ce0c4c5160e01b81526001600160a01b038416925063ce0c4c51915062001126908d908d908d908d908d908d9060040162001ea8565b600060405180830381600087803b1580156200114157600080fd5b505af115801562001156573d6000803e3d6000fd5b50506006546007546040516301c9398760e21b81526001600160a01b03928316600482015290821660248201529084169250630724e61c9150604401600060405180830381600087803b158015620011ad57600080fd5b505af1158015620011c2573d6000803e3d6000fd5b505060085460405163128efbd160e11b81526001600160a01b038083166004830152600160a01b90920462ffffff166024820152908416925063251df7a29150604401600060405180830381600087803b1580156200122057600080fd5b505af115801562001235573d6000803e3d6000fd5b50505050806001600160a01b0316639a202d476040518163ffffffff1660e01b8152600401600060405180830381600087803b1580156200127557600080fd5b505af11580156200128a573d6000803e3d6000fd5b505050506040518060400160405280826001600160a01b031681526020018b8b8080601f0160208091040260200160405190810160405280939291908181526020018383808284376000920182905250939094525050600180548252600260209081526040909220845181546001600160a01b0319166001600160a01b0390911617815584830151805191945062001328939285019201906200195a565b505060018054915060006200133d8362002074565b9190505550600560009054906101000a90046001600160a01b03166001600160a01b031663beee31bf7fcef663f96a50fb65151a343d90fa0c559ef87c327635e2e9e7ffa49e15cddcf77f6d5a72f3f1338adda1e36ff4249e30f4de96011aee91572f65a2cc63fc1be96f30858f8f604051602001620013c09392919062001dab565b6040516020818303038152906040526040518563ffffffff1660e01b8152600401620013f0949392919062001e6f565b600060405180830381600087803b1580156200140b57600080fd5b505af115801562001420573d6000803e3d6000fd5b505050507f4fe258ada83935d965ec2774f9f672c624e217fb2b644e406c6dfdb5ae2631e5818b8b604051620014599392919062001dab565b60405180910390a19998505050505050505050565b6000828152602081905260409020600101546200148c8133620015f0565b620006c68383620016e7565b620014a3336200067f565b620014c25760405162461bcd60e51b8152600401620006589062001f51565b620014d1602084018462001a36565b6001600160a01b038116620014fa5760405162461bcd60e51b8152600401620006589062001f25565b6200150c604085016020860162001a36565b6001600160a01b038116620015355760405162461bcd60e51b8152600401620006589062001f25565b836001600160a01b0381166200155f5760405162461bcd60e51b8152600401620006589062001f25565b6200156e602087018762001a36565b600680546001600160a01b0319166001600160a01b0392909216919091179055620015a0604087016020880162001a36565b600780546001600160a01b039283166001600160a01b03199091161790556008805462ffffff909616600160a01b026001600160b81b031990961696909116959095179390931790935550505050565b620015fc828262000cd3565b620008625762001617816001600160a01b031660146200174f565b620016248360206200174f565b6040516020016200163792919062001d01565b60408051601f198184030181529082905262461bcd60e51b8252620006589160040162001eec565b6200166b828262000cd3565b62000862576000828152602081815260408083206001600160a01b03851684529091529020805460ff19166001179055620016a33390565b6001600160a01b0316816001600160a01b0316837f2f8788117e7eff1d82e926ec794901d17c78024a50270940304540a733656f0d60405160405180910390a45050565b620016f3828262000cd3565b1562000862576000828152602081815260408083206001600160a01b0385168085529252808320805460ff1916905551339285917ff6391f5c32d9c69d2a47ea670b442974b53935d1edc7fd64eb21e047a839171b9190a45050565b606060006200176083600262001fae565b6200176d90600262001f93565b67ffffffffffffffff8111156200179457634e487b7160e01b600052604160045260246000fd5b6040519080825280601f01601f191660200182016040528015620017bf576020820181803683370190505b509050600360fc1b81600081518110620017e957634e487b7160e01b600052603260045260246000fd5b60200101906001600160f81b031916908160001a905350600f60fb1b816001815181106200182757634e487b7160e01b600052603260045260246000fd5b60200101906001600160f81b031916908160001a90535060006200184d84600262001fae565b6200185a90600162001f93565b90505b6001811115620018f4576f181899199a1a9b1b9c1cb0b131b232b360811b85600f16601081106200189e57634e487b7160e01b600052603260045260246000fd5b1a60f81b828281518110620018c357634e487b7160e01b600052603260045260246000fd5b60200101906001600160f81b031916908160001a90535060049490941c93620018ec816200201d565b90506200185d565b508315620019455760405162461bcd60e51b815260206004820181905260248201527f537472696e67733a20686578206c656e67746820696e73756666696369656e74604482015260640162000658565b9392505050565b61248280620020a983390190565b828054620019689062002037565b90600052602060002090601f0160209004810192826200198c5760008555620019d7565b82601f10620019a757805160ff1916838001178555620019d7565b82800160010185558215620019d7579182015b82811115620019d7578251825591602001919060010190620019ba565b50620019e5929150620019e9565b5090565b5b80821115620019e55760008155600101620019ea565b80356001600160a01b038116811462001a1857600080fd5b919050565b80356001600160e01b03198116811462001a1857600080fd5b60006020828403121562001a48578081fd5b620019458262001a00565b6000806000806080858703121562001a69578283fd5b62001a748562001a00565b935062001a846020860162001a00565b9250604085013591506060850135801515811462001aa0578182fd5b939692955090935050565b6000806000806060858703121562001ac1578384fd5b62001acc8562001a00565b9350602085013567ffffffffffffffff8082111562001ae9578485fd5b818701915087601f83011262001afd578485fd5b81358181111562001b0c578586fd5b8860208260051b850101111562001b21578586fd5b60208301955080945050505062001b3b6040860162001a00565b905092959194509250565b60008060006080848603121562001b5b578283fd5b604084018581111562001b6c578384fd5b84935062001b7a8162001a00565b925050606084013562ffffff8116811462001b93578182fd5b809150509250925092565b60006020828403121562001bb0578081fd5b5035919050565b6000806040838503121562001bca578182fd5b8235915062001bdc6020840162001a00565b90509250929050565b60006020828403121562001bf7578081fd5b620019458262001a1d565b60008060008060008060a0878903121562001c1b578182fd5b863567ffffffffffffffff8082111562001c33578384fd5b818901915089601f83011262001c47578384fd5b81358181111562001c56578485fd5b8a602082850101111562001c68578485fd5b60209283019850965062001c80918901905062001a00565b935062001c906040880162001a00565b925060608701359150608087013590509295509295509295565b6000815180845262001cc481602086016020860162001fea565b601f01601f19169290920160200192915050565b81835281816020850137506000828201602090810191909152601f909101601f19169091010190565b76020b1b1b2b9b9a1b7b73a3937b61d1030b1b1b7bab73a1604d1b81526000835162001d3581601785016020880162001fea565b7001034b99036b4b9b9b4b733903937b6329607d1b601791840191820152835162001d6881602884016020880162001fea565b01602801949350505050565b6001600160a01b0391909116815260200190565b6001600160a01b0393909316835260208301919091521515604082015260600190565b6001600160a01b038416815260406020820181905260009062001dd2908301848662001cd8565b95945050505050565b6001600160a01b038316815260406020820181905260009062001e019083018462001caa565b949350505050565b6040808252810183905260008460608301825b8681101562001e4f576001600160e01b031962001e398462001a1d565b1682526020928301929091019060010162001e1c565b506001600160a01b03949094166020939093019290925250909392505050565b84815283602082015260018060a01b038316604082015260806060820152600062001e9e608083018462001caa565b9695505050505050565b60a08152600062001ebe60a08301888a62001cd8565b6001600160a01b03968716602084015294909516604082015260608101929092526080909101529392505050565b60208152600062001945602083018462001caa565b6020808252600a908201526973616d6520616464727360b01b604082015260600190565b6020808252601290820152715661756c74466163746f72793a207a65726f60701b604082015260600190565b60208082526022908201527f41636365737369626c653a2043616c6c6572206973206e6f7420616e2061646d60408201526134b760f11b606082015260800190565b6000821982111562001fa95762001fa962002092565b500190565b600081600019048311821515161562001fcb5762001fcb62002092565b500290565b60008282101562001fe55762001fe562002092565b500390565b60005b838110156200200757818101518382015260200162001fed565b8381111562002017576000848401525b50505050565b6000816200202f576200202f62002092565b506000190190565b600181811c908216806200204c57607f821691505b602082108114156200206e57634e487b7160e01b600052602260045260246000fd5b50919050565b60006000198214156200208b576200208b62002092565b5060010190565b634e487b7160e01b600052601160045260246000fdfe608060405260006010553480156200001657600080fd5b506001600055620000487f52eafc11f6f81f86878bffd31109a0d92f37506527754f00788853ff9f63b1308062000087565b620000747f52eafc11f6f81f86878bffd31109a0d92f37506527754f00788853ff9f63b13033620000d2565b62000081600033620000d2565b62000186565b600082815260196020526040808220600101805490849055905190918391839186917fbd79b86ffe0ab8e8776151514217cd7cacd52c909f66475c3af44e129f0b00ff9190a4505050565b620000de8282620000e2565b5050565b60008281526019602090815260408083206001600160a01b038516845290915290205460ff16620000de5760008281526019602090815260408083206001600160a01b03851684529091529020805460ff19166001179055620001423390565b6001600160a01b0316816001600160a01b0316837f2f8788117e7eff1d82e926ec794901d17c78024a50270940304540a733656f0d60405160405180910390a45050565b6122ec80620001966000396000f3fe6080604052600436106102a45760003560e01c806363a8fd8911610166578063a217fddf116100c7578063a217fddf14610848578063b911135f1461085d578063be72f2d314610893578063ce0c4c51146108a8578063cfc412be146108c8578063d547741f146108de578063d7cb416f146108fe578063ddca3f431461091e578063eab73ca114610955578063eb582d131461097a578063ed5131f51461099a578063f47f2f1d146109ba578063f8646408146109da578063fc0c546a146109fa576102ed565b806363a8fd89146106995780636befec3f146106b357806370480275146106d357806375829def146106f35780637cb00d25146107135780637cd5f663146107335780637ff36fbe1461075357806381f41eb2146107735780638356ca4f146107935780638b8f4a65146107b35780638d4fdb40146107d357806391d14854146107f357806396f1557c146108135780639a202d4714610833576102ed565b80632ca0228a116102105780632ca0228a146104c15780632f2ff15d146104d757806334b38cc3146104f757806336568abe1461051c5780633659cfe61461053c57806341c04d5e1461055c5780634a5df50f1461057e57806350d2a2761461059e578063526aef94146105d4578063550d01a31461060857806355640008146106385780635c60da1b1461064e5780635cc797d8146106635780635fcbd28514610683576102ed565b806301ffc9a7146102f75780630284ec8f1461032c5780630411b9491461034d57806306fdde03146103855780630a59fa08146103a75780630a6aae11146103c15780630f4388c0146103e5578063117ab8741461040557806316f0115b1461041b578063170e2fee1461043b578063248a9ca31461045b57806324d7806c1461048b578063256019d6146104ab576102ed565b366102ed5760405162461bcd60e51b815260206004820152601460248201527331b0b73737ba103932b1b2b4bb329022ba3432b960611b60448201526064015b60405180910390fd5b6102f5610a1a565b005b34801561030357600080fd5b50610317610312366004611e8e565b610ac3565b60405190151581526020015b60405180910390f35b34801561033857600080fd5b50600a5461031790600160b81b900460ff1681565b34801561035957600080fd5b5060035461036d906001600160a01b031681565b6040516001600160a01b039091168152602001610323565b34801561039157600080fd5b5061039a610afa565b604051610323919061203e565b3480156103b357600080fd5b506018546103179060ff1681565b3480156103cd57600080fd5b506103d760085481565b604051908152602001610323565b3480156103f157600080fd5b506103d7610400366004611e54565b610b88565b34801561041157600080fd5b506103d760105481565b34801561042757600080fd5b5060055461036d906001600160a01b031681565b34801561044757600080fd5b506102f5610456366004611d57565b610ba9565b34801561046757600080fd5b506103d7610476366004611e54565b60009081526019602052604090206001015490565b34801561049757600080fd5b506103176104a6366004611d3d565b610c82565b3480156104b757600080fd5b506103d7600f5481565b3480156104cd57600080fd5b506103d760095481565b3480156104e357600080fd5b506102f56104f2366004611e6c565b610c9c565b34801561050357600080fd5b5061050c610cc2565b604051610323949392919061215d565b34801561052857600080fd5b506102f5610537366004611e6c565b610d85565b34801561054857600080fd5b506102f5610557366004611d3d565b610dff565b34801561056857600080fd5b506103d760008051602061229783398151915281565b34801561058a57600080fd5b506102f5610599366004611dc4565b610f05565b3480156105aa57600080fd5b5061036d6105b9366004611e8e565b6017602052600090815260409020546001600160a01b031681565b3480156105e057600080fd5b50600a546105f590600160a01b900460020b81565b60405160029190910b8152602001610323565b34801561061457600080fd5b50610317610623366004611d3d565b60166020526000908152604090205460ff1681565b34801561064457600080fd5b506103d7600e5481565b34801561065a57600080fd5b5061036d61118d565b34801561066f57600080fd5b506102f561067e366004611d57565b61119e565b34801561068f57600080fd5b506103d7600b5481565b3480156106a557600080fd5b506014546103179060ff1681565b3480156106bf57600080fd5b506102f56106ce366004611e3a565b6111cd565b3480156106df57600080fd5b506102f56106ee366004611d3d565b6112a5565b3480156106ff57600080fd5b506102f561070e366004611d3d565b6112e5565b34801561071f57600080fd5b506102f561072e366004611e3a565b611398565b34801561073f57600080fd5b506102f561074e366004611d89565b6113df565b34801561075f57600080fd5b5060065461036d906001600160a01b031681565b34801561077f57600080fd5b50600a5461036d906001600160a01b031681565b34801561079f57600080fd5b506102f56107ae366004611d3d565b61140f565b3480156107bf57600080fd5b5061036d6107ce366004611e54565b611499565b3480156107df57600080fd5b5061036d6107ee366004611e8e565b6114a4565b3480156107ff57600080fd5b5061031761080e366004611e6c565b6115a0565b34801561081f57600080fd5b506102f561082e366004611d3d565b6115cb565b34801561083f57600080fd5b506102f56115fb565b34801561085457600080fd5b506103d7600081565b34801561086957600080fd5b5061036d610878366004611e54565b6015602052600090815260409020546001600160a01b031681565b34801561089f57600080fd5b506102f5611649565b3480156108b457600080fd5b506102f56108c3366004611eb6565b611679565b3480156108d457600080fd5b506103d760115481565b3480156108ea57600080fd5b506102f56108f9366004611e6c565b6117fd565b34801561090a57600080fd5b5060075461036d906001600160a01b031681565b34801561092a57600080fd5b5060045461094190600160a01b900462ffffff1681565b60405162ffffff9091168152602001610323565b34801561096157600080fd5b5060185461036d9061010090046001600160a01b031681565b34801561098657600080fd5b5060045461036d906001600160a01b031681565b3480156109a657600080fd5b506103d76109b5366004611e54565b611823565b3480156109c657600080fd5b506103176109d5366004611d3d565b611833565b3480156109e657600080fd5b5060025461036d906001600160a01b031681565b348015610a0657600080fd5b5060015461036d906001600160a01b031681565b6000610a316000356001600160e01b0319166114a4565b90506001600160a01b03811615801590610a4e575060145460ff16155b610a9a5760405162461bcd60e51b815260206004820152601d60248201527f50726f78793a20696d706c204f522070726f78792069732066616c736500000060448201526064016102e4565b3660008037600080366000845af43d6000803e808015610ab9573d6000f35b3d6000fd5b505050565b60006001600160e01b03198216637965db0b60e01b1480610af457506301ffc9a760e01b6001600160e01b03198316145b92915050565b600d8054610b0790612214565b80601f0160208091040260200160405190810160405280929190818152602001828054610b3390612214565b8015610b805780601f10610b5557610100808354040283529160200191610b80565b820191906000526020600020905b815481529060010190602001808311610b6357829003601f168201915b505050505081565b60138181548110610b9857600080fd5b600091825260209091200154905081565b610bb233611833565b610bce5760405162461bcd60e51b81526004016102e4906120e5565b6018546001600160a01b038381166101009092041614801590610bf957506001600160a01b03821615155b610c3a5760405162461bcd60e51b815260206004820152601260248201527173616d652076616c7565206f72207a65726f60701b60448201526064016102e4565b601880546001600160a01b03841661010002610100600160a81b03198216811790925560ff918216911617151581151514610c7e576018805460ff19168215151790555b5050565b6000610af4600080516020612297833981519152836115a0565b600082815260196020526040902060010154610cb8813361183f565b610abe83836118a3565b60006060806000600f546012601360105482805480602002602001604051908101604052809291908181526020018280548015610d1e57602002820191906000526020600020905b815481526020019060010190808311610d0a575b5050505050925081805480602002602001604051908101604052809291908181526020018280548015610d7057602002820191906000526020600020905b815481526020019060010190808311610d5c575b50505050509150935093509350935090919293565b6001600160a01b0381163314610df55760405162461bcd60e51b815260206004820152602f60248201527f416363657373436f6e74726f6c3a2063616e206f6e6c792072656e6f756e636560448201526e103937b632b9903337b91039b2b63360891b60648201526084016102e4565b610c7e8282611929565b610e0833611833565b610e245760405162461bcd60e51b81526004016102e4906120e5565b6001600160a01b038116610e6a5760405162461bcd60e51b815260206004820152600d60248201526c696e707574206973207a65726f60981b60448201526064016102e4565b806001600160a01b0316610e7e6000611990565b6001600160a01b03161415610ec15760405162461bcd60e51b815260206004820152600960248201526839b0b6b29030b2323960b91b60448201526064016102e4565b610ece81600060016119ab565b6040516001600160a01b038216907fbc7cd75a20ee27fd9adebab32041f755214dbc6bffa90cc0225b39da2e5c2d3b90600090a250565b610f0e33611833565b610f2a5760405162461bcd60e51b81526004016102e4906120e5565b81610f775760405162461bcd60e51b815260206004820181905260248201527f50726f78793a205f73656c6563746f727327732073697a65206973207a65726f60448201526064016102e4565b6001600160a01b03811660009081526016602052604090205460ff16610fda5760405162461bcd60e51b815260206004820152601860248201527750726f78793a205f696d70206973206e6f7420616c69766560401b60448201526064016102e4565b60005b8281101561118757816001600160a01b03166017600086868581811061101357634e487b7160e01b600052603260045260246000fd5b90506020020160208101906110289190611e8e565b6001600160e01b03191681526020810191909152604001600020546001600160a01b0316141561109a5760405162461bcd60e51b815260206004820152601d60248201527f4c69717569646974795661756c7450726f78793a2073616d6520696d7000000060448201526064016102e4565b81601760008686858181106110bf57634e487b7160e01b600052603260045260246000fd5b90506020020160208101906110d49190611e8e565b6001600160e01b0319168152602081019190915260400160002080546001600160a01b0319166001600160a01b03928316179055821684848381811061112a57634e487b7160e01b600052603260045260246000fd5b905060200201602081019061113f9190611e8e565b6001600160e01b0319167f14ebc1c32aa68f4d766e89f3e546cee249f7df25183fc10ab1568d91c2ce9b7b60405160405180910390a38061117f8161224f565b915050610fdd565b50505050565b60006111996000611990565b905090565b6111a733611833565b6111c35760405162461bcd60e51b81526004016102e4906120e5565b610c7e8282611a2b565b6111d633611833565b6111f25760405162461bcd60e51b81526004016102e4906120e5565b60185460ff16151581151514156112385760405162461bcd60e51b815260206004820152600a60248201526973616d652076616c756560b01b60448201526064016102e4565b80156112925760185461010090046001600160a01b03166112925760405162461bcd60e51b81526020600482015260146024820152737a65726f206c6f674576656e744164647265737360601b60448201526064016102e4565b6018805460ff1916911515919091179055565b6112ae33611833565b6112ca5760405162461bcd60e51b81526004016102e4906120e5565b6112e260008051602061229783398151915282610c9c565b50565b6112ee33610c82565b806112fd57506112fd33611833565b6113195760405162461bcd60e51b81526004016102e490612071565b6001600160a01b03811661133f5760405162461bcd60e51b81526004016102e4906120b3565b336001600160a01b03821614156113685760405162461bcd60e51b81526004016102e49061212d565b61138060008051602061229783398151915282610c9c565b6112e260008051602061229783398151915233610d85565b6113a133610c82565b806113b057506113b033611833565b6113cc5760405162461bcd60e51b81526004016102e490612071565b6014805460ff1916911515919091179055565b6113e833611833565b6114045760405162461bcd60e51b81526004016102e4906120e5565b610abe8383836119ab565b61141833611833565b6114345760405162461bcd60e51b81526004016102e4906120e5565b6001600160a01b03811661145a5760405162461bcd60e51b81526004016102e4906120b3565b336001600160a01b03821614156114835760405162461bcd60e51b81526004016102e49061212d565b61148e600082610c9c565b6112e2600033610d85565b6000610af482611990565b6001600160e01b031981166000908152601760205260408120546001600160a01b03166115045750506000805260156020527fa31547ce6245cdb9ecea19cf8c7eb9f5974025bb4075011409251ae855b30aed546001600160a01b031690565b6001600160e01b031982166000908152601760209081526040808320546001600160a01b03168352601690915290205460ff161561156257506001600160e01b0319166000908152601760205260409020546001600160a01b031690565b50506000805260156020527fa31547ce6245cdb9ecea19cf8c7eb9f5974025bb4075011409251ae855b30aed546001600160a01b031690565b919050565b60009182526019602090815260408084206001600160a01b0393909316845291905290205460ff1690565b6115d433611833565b6115f05760405162461bcd60e51b81526004016102e4906120e5565b6112e2600082611a8a565b61160433610c82565b80611613575061161333611833565b61162f5760405162461bcd60e51b81526004016102e490612071565b61164760008051602061229783398151915233610d85565b565b61165233611833565b61166e5760405162461bcd60e51b81526004016102e4906120e5565b611647600033610d85565b61168233610c82565b80611691575061169133611833565b6116ad5760405162461bcd60e51b81526004016102e490612071565b600d80546116ba90612214565b1590506116f75760405162461bcd60e51b815260206004820152600b60248201526a185b1c9958591e481cd95d60aa1b60448201526064016102e4565b6001600160a01b0384161580159061171757506001600160a01b03831615155b6117525760405162461bcd60e51b815260206004820152600c60248201526b7a65726f206164647265737360a01b60448201526064016102e4565b6000821180156117625750600081115b61179b5760405162461bcd60e51b815260206004820152600a6024820152697a65726f20707269636560b01b60448201526064016102e4565b84516117ae90600d906020880190611c7d565b50600180546001600160a01b0319166001600160a01b0386161790556117d383610c82565b6117ef576117ef60008051602061229783398151915284611a8a565b600891909155600955505050565b600082815260196020526040902060010154611819813361183f565b610abe8383611929565b60128181548110610b9857600080fd5b6000610af481836115a0565b61184982826115a0565b610c7e57611861816001600160a01b03166014611a94565b61186c836020611a94565b60405160200161187d929190611fcf565b60408051601f198184030181529082905262461bcd60e51b82526102e49160040161203e565b6118ad82826115a0565b610c7e5760008281526019602090815260408083206001600160a01b03851684529091529020805460ff191660011790556118e53390565b6001600160a01b0316816001600160a01b0316837f2f8788117e7eff1d82e926ec794901d17c78024a50270940304540a733656f0d60405160405180910390a45050565b61193382826115a0565b15610c7e5760008281526019602090815260408083206001600160a01b0385168085529252808320805460ff1916905551339285917ff6391f5c32d9c69d2a47ea670b442974b53935d1edc7fd64eb21e047a839171b9190a45050565b6000908152601560205260409020546001600160a01b031690565b823b6119f75760405162461bcd60e51b815260206004820152601b60248201527a50726f78793a206e6f7420636f6e7472616374206164647265737360281b60448201526064016102e4565b8015611a2557600082815260156020526040902080546001600160a01b0319166001600160a01b0385161790555b610abe83825b6001600160a01b038216600081815260166020908152604091829020805460ff191685151590811790915591519182527f72558d9bfba4210f9ef095c782589484151f6d90f7a81bb3cb9b33efc695d324910160405180910390a25050565b610c7e82826118a3565b60606000611aa38360026121b2565b611aae90600261219a565b67ffffffffffffffff811115611ad457634e487b7160e01b600052604160045260246000fd5b6040519080825280601f01601f191660200182016040528015611afe576020820181803683370190505b509050600360fc1b81600081518110611b2757634e487b7160e01b600052603260045260246000fd5b60200101906001600160f81b031916908160001a905350600f60fb1b81600181518110611b6457634e487b7160e01b600052603260045260246000fd5b60200101906001600160f81b031916908160001a9053506000611b888460026121b2565b611b9390600161219a565b90505b6001811115611c27576f181899199a1a9b1b9c1cb0b131b232b360811b85600f1660108110611bd557634e487b7160e01b600052603260045260246000fd5b1a60f81b828281518110611bf957634e487b7160e01b600052603260045260246000fd5b60200101906001600160f81b031916908160001a90535060049490941c93611c20816121fd565b9050611b96565b508315611c765760405162461bcd60e51b815260206004820181905260248201527f537472696e67733a20686578206c656e67746820696e73756666696369656e7460448201526064016102e4565b9392505050565b828054611c8990612214565b90600052602060002090601f016020900481019282611cab5760008555611cf1565b82601f10611cc457805160ff1916838001178555611cf1565b82800160010185558215611cf1579182015b82811115611cf1578251825591602001919060010190611cd6565b50611cfd929150611d01565b5090565b5b80821115611cfd5760008155600101611d02565b80356001600160a01b038116811461159b57600080fd5b8035801515811461159b57600080fd5b600060208284031215611d4e578081fd5b611c7682611d16565b60008060408385031215611d69578081fd5b611d7283611d16565b9150611d8060208401611d2d565b90509250929050565b600080600060608486031215611d9d578081fd5b611da684611d16565b925060208401359150611dbb60408501611d2d565b90509250925092565b600080600060408486031215611dd8578283fd5b833567ffffffffffffffff80821115611def578485fd5b818601915086601f830112611e02578485fd5b813581811115611e10578586fd5b8760208260051b8501011115611e24578586fd5b602092830195509350611dbb9186019050611d16565b600060208284031215611e4b578081fd5b611c7682611d2d565b600060208284031215611e65578081fd5b5035919050565b60008060408385031215611e7e578182fd5b82359150611d8060208401611d16565b600060208284031215611e9f578081fd5b81356001600160e01b031981168114611c76578182fd5b600080600080600060a08688031215611ecd578081fd5b853567ffffffffffffffff80821115611ee4578283fd5b818801915088601f830112611ef7578283fd5b813581811115611f0957611f09612280565b604051601f8201601f19908116603f01168101908382118183101715611f3157611f31612280565b816040528281528b6020848701011115611f49578586fd5b8260208601602083013785602084830101528099505050505050611f6f60208701611d16565b9350611f7d60408701611d16565b94979396509394606081013594506080013592915050565b6000815180845260208085019450808401835b83811015611fc457815187529582019590820190600101611fa8565b509495945050505050565b76020b1b1b2b9b9a1b7b73a3937b61d1030b1b1b7bab73a1604d1b8152600083516120018160178501602088016121d1565b7001034b99036b4b9b9b4b733903937b6329607d1b60179184019182015283516120328160288401602088016121d1565b01602801949350505050565b602081526000825180602084015261205d8160408501602087016121d1565b601f01601f19169190910160400192915050565b60208082526022908201527f41636365737369626c653a2043616c6c6572206973206e6f7420616e2061646d60408201526134b760f11b606082015260800190565b60208082526018908201527741636365737369626c653a207a65726f206164647265737360401b604082015260600190565b60208082526028908201527f41636365737369626c653a2043616c6c6572206973206e6f7420616e2070726f6040820152673c3c9030b236b4b760c11b606082015260800190565b60208082526016908201527520b1b1b2b9b9b4b136329d1039b0b6b29030b236b4b760511b604082015260600190565b8481526080602082015260006121766080830186611f95565b82810360408401526121888186611f95565b91505082606083015295945050505050565b600082198211156121ad576121ad61226a565b500190565b60008160001904831182151516156121cc576121cc61226a565b500290565b60005b838110156121ec5781810151838201526020016121d4565b838111156111875750506000910152565b60008161220c5761220c61226a565b506000190190565b600181811c9082168061222857607f821691505b6020821081141561224957634e487b7160e01b600052602260045260246000fd5b50919050565b60006000198214156122635761226361226a565b5060010190565b634e487b7160e01b600052601160045260246000fd5b634e487b7160e01b600052604160045260246000fdfe52eafc11f6f81f86878bffd31109a0d92f37506527754f00788853ff9f63b130a2646970667358221220a3edd18ffd5dd75caff58ca28ce2f4efef863eda8f12c2c55a3c5ba78102cff064736f6c63430008040033df8b4c520ffe197c5343c6f5aec59570151ef9a492f2c624fd45ddde6135ec42a264697066735822122076cedcb05a837bb73483224cb5fb6fe92ce7d4d563264731224c174955e50c0c64736f6c63430008040033df8b4c520ffe197c5343c6f5aec59570151ef9a492f2c624fd45ddde6135ec42",
  "linkReferences": {},
  "deployedLinkReferences": {}
}