{
  "_format": "hh-sol-artifact-1",
  "contractName": "InitialLiquidityVault",
  "sourceName": "contracts/typeFVault/InitialLiquidityVault.sol",
  "abi": [
    {
      "inputs": [],
      "stateMutability": "nonpayable",
      "type": "constructor"
    },
    {
      "anonymous": false,
      "inputs": [
        {
          "indexed": false,
          "internalType": "address",
          "name": "token",
          "type": "address"
        }
      ],
      "name": "ChangedToken",
      "type": "event"
    },
    {
      "anonymous": false,
      "inputs": [
        {
          "indexed": true,
          "internalType": "uint256",
          "name": "tokenId",
          "type": "uint256"
        },
        {
          "indexed": false,
          "internalType": "uint256",
          "name": "amount0",
          "type": "uint256"
        },
        {
          "indexed": false,
          "internalType": "uint256",
          "name": "amount1",
          "type": "uint256"
        }
      ],
      "name": "CollectInVault",
      "type": "event"
    },
    {
      "anonymous": false,
      "inputs": [
        {
          "indexed": true,
          "internalType": "uint256",
          "name": "tokenId",
          "type": "uint256"
        },
        {
          "indexed": false,
          "internalType": "uint128",
          "name": "liquidity",
          "type": "uint128"
        },
        {
          "indexed": false,
          "internalType": "uint256",
          "name": "amount0",
          "type": "uint256"
        },
        {
          "indexed": false,
          "internalType": "uint256",
          "name": "amount1",
          "type": "uint256"
        }
      ],
      "name": "IncreaseLiquidityInVault",
      "type": "event"
    },
    {
      "anonymous": false,
      "inputs": [
        {
          "indexed": false,
          "internalType": "uint256",
          "name": "_totalAllocatedAmount",
          "type": "uint256"
        }
      ],
      "name": "Initialized",
      "type": "event"
    },
    {
      "anonymous": false,
      "inputs": [
        {
          "indexed": true,
          "internalType": "address",
          "name": "caller",
          "type": "address"
        },
        {
          "indexed": false,
          "internalType": "uint256",
          "name": "tokenId",
          "type": "uint256"
        },
        {
          "indexed": false,
          "internalType": "uint128",
          "name": "liquidity",
          "type": "uint128"
        },
        {
          "indexed": false,
          "internalType": "uint256",
          "name": "amount0",
          "type": "uint256"
        },
        {
          "indexed": false,
          "internalType": "uint256",
          "name": "amount1",
          "type": "uint256"
        }
      ],
      "name": "MintedInVault",
      "type": "event"
    },
    {
      "anonymous": false,
      "inputs": [
        {
          "indexed": true,
          "internalType": "bytes32",
          "name": "role",
          "type": "bytes32"
        },
        {
          "indexed": true,
          "internalType": "bytes32",
          "name": "previousAdminRole",
          "type": "bytes32"
        },
        {
          "indexed": true,
          "internalType": "bytes32",
          "name": "newAdminRole",
          "type": "bytes32"
        }
      ],
      "name": "RoleAdminChanged",
      "type": "event"
    },
    {
      "anonymous": false,
      "inputs": [
        {
          "indexed": true,
          "internalType": "bytes32",
          "name": "role",
          "type": "bytes32"
        },
        {
          "indexed": true,
          "internalType": "address",
          "name": "account",
          "type": "address"
        },
        {
          "indexed": true,
          "internalType": "address",
          "name": "sender",
          "type": "address"
        }
      ],
      "name": "RoleGranted",
      "type": "event"
    },
    {
      "anonymous": false,
      "inputs": [
        {
          "indexed": true,
          "internalType": "bytes32",
          "name": "role",
          "type": "bytes32"
        },
        {
          "indexed": true,
          "internalType": "address",
          "name": "account",
          "type": "address"
        },
        {
          "indexed": true,
          "internalType": "address",
          "name": "sender",
          "type": "address"
        }
      ],
      "name": "RoleRevoked",
      "type": "event"
    },
    {
      "anonymous": false,
      "inputs": [
        {
          "indexed": false,
          "internalType": "string",
          "name": "name",
          "type": "string"
        },
        {
          "indexed": false,
          "internalType": "address",
          "name": "token",
          "type": "address"
        },
        {
          "indexed": false,
          "internalType": "address",
          "name": "owner",
          "type": "address"
        }
      ],
      "name": "SetBaseInfo",
      "type": "event"
    },
    {
      "anonymous": false,
      "inputs": [
        {
          "indexed": false,
          "internalType": "bool",
          "name": "boolReadyToCreatePool",
          "type": "bool"
        }
      ],
      "name": "SetBoolReadyToCreatePool",
      "type": "event"
    },
    {
      "anonymous": false,
      "inputs": [
        {
          "indexed": false,
          "internalType": "uint256",
          "name": "tosPrice",
          "type": "uint256"
        },
        {
          "indexed": false,
          "internalType": "uint256",
          "name": "tokenPrice",
          "type": "uint256"
        },
        {
          "indexed": false,
          "internalType": "uint160",
          "name": "initSqrtPrice",
          "type": "uint160"
        }
      ],
      "name": "SetInitialPrice",
      "type": "event"
    },
    {
      "anonymous": false,
      "inputs": [
        {
          "indexed": false,
          "internalType": "address",
          "name": "pool",
          "type": "address"
        },
        {
          "indexed": false,
          "internalType": "address",
          "name": "token0",
          "type": "address"
        },
        {
          "indexed": false,
          "internalType": "address",
          "name": "token1",
          "type": "address"
        }
      ],
      "name": "SetPool",
      "type": "event"
    },
    {
      "anonymous": false,
      "inputs": [
        {
          "indexed": false,
          "internalType": "uint160",
          "name": "inSqrtPriceX96",
          "type": "uint160"
        }
      ],
      "name": "SetPoolInitialized",
      "type": "event"
    },
    {
      "anonymous": false,
      "inputs": [
        {
          "indexed": false,
          "internalType": "address",
          "name": "tos",
          "type": "address"
        },
        {
          "indexed": false,
          "internalType": "uint24",
          "name": "fee",
          "type": "uint24"
        },
        {
          "indexed": false,
          "internalType": "int24",
          "name": "tickSpacings",
          "type": "int24"
        }
      ],
      "name": "SetTokens",
      "type": "event"
    },
    {
      "anonymous": false,
      "inputs": [
        {
          "indexed": false,
          "internalType": "address",
          "name": "poolfactory",
          "type": "address"
        },
        {
          "indexed": false,
          "internalType": "address",
          "name": "npm",
          "type": "address"
        }
      ],
      "name": "SetUniswapInfo",
      "type": "event"
    },
    {
      "anonymous": false,
      "inputs": [
        {
          "indexed": false,
          "internalType": "address",
          "name": "caller",
          "type": "address"
        },
        {
          "indexed": false,
          "internalType": "address",
          "name": "tokenAddress",
          "type": "address"
        },
        {
          "indexed": false,
          "internalType": "address",
          "name": "to",
          "type": "address"
        },
        {
          "indexed": false,
          "internalType": "uint256",
          "name": "amount",
          "type": "uint256"
        }
      ],
      "name": "WithdrawalInVault",
      "type": "event"
    },
    {
      "inputs": [],
      "name": "DEFAULT_ADMIN_ROLE",
      "outputs": [
        {
          "internalType": "bytes32",
          "name": "",
          "type": "bytes32"
        }
      ],
      "stateMutability": "view",
      "type": "function"
    },
    {
      "inputs": [],
      "name": "NonfungiblePositionManager",
      "outputs": [
        {
          "internalType": "contract INonfungiblePositionManager",
          "name": "",
          "type": "address"
        }
      ],
      "stateMutability": "view",
      "type": "function"
    },
    {
      "inputs": [],
      "name": "PROJECT_ADMIN_ROLE",
      "outputs": [
        {
          "internalType": "bytes32",
          "name": "",
          "type": "bytes32"
        }
      ],
      "stateMutability": "view",
      "type": "function"
    },
    {
      "inputs": [],
      "name": "TOS",
      "outputs": [
        {
          "internalType": "contract IERC20",
          "name": "",
          "type": "address"
        }
      ],
      "stateMutability": "view",
      "type": "function"
    },
    {
      "inputs": [],
      "name": "UniswapV3Factory",
      "outputs": [
        {
          "internalType": "contract IUniswapV3Factory",
          "name": "",
          "type": "address"
        }
      ],
      "stateMutability": "view",
      "type": "function"
    },
    {
      "inputs": [
        {
          "internalType": "address",
          "name": "account",
          "type": "address"
        }
      ],
      "name": "addAdmin",
      "outputs": [],
      "stateMutability": "nonpayable",
      "type": "function"
    },
    {
      "inputs": [
        {
          "internalType": "address",
          "name": "_owner",
          "type": "address"
        }
      ],
      "name": "addProxyAdmin",
      "outputs": [],
      "stateMutability": "nonpayable",
      "type": "function"
    },
    {
      "inputs": [
        {
          "internalType": "address",
          "name": "",
          "type": "address"
        }
      ],
      "name": "aliveImplementation",
      "outputs": [
        {
          "internalType": "bool",
          "name": "",
          "type": "bool"
        }
      ],
      "stateMutability": "view",
      "type": "function"
    },
    {
      "inputs": [],
      "name": "allClaimInfos",
      "outputs": [
        {
          "internalType": "uint256",
          "name": "",
          "type": "uint256"
        },
        {
          "internalType": "uint256[]",
          "name": "",
          "type": "uint256[]"
        },
        {
          "internalType": "uint256[]",
          "name": "",
          "type": "uint256[]"
        },
        {
          "internalType": "uint256",
          "name": "",
          "type": "uint256"
        }
      ],
      "stateMutability": "view",
      "type": "function"
    },
    {
      "inputs": [],
      "name": "boolLogEvent",
      "outputs": [
        {
          "internalType": "bool",
          "name": "",
          "type": "bool"
        }
      ],
      "stateMutability": "view",
      "type": "function"
    },
    {
      "inputs": [],
      "name": "boolReadyToCreatePool",
      "outputs": [
        {
          "internalType": "bool",
          "name": "",
          "type": "bool"
        }
      ],
      "stateMutability": "view",
      "type": "function"
    },
    {
      "inputs": [
        {
          "internalType": "uint256",
          "name": "",
          "type": "uint256"
        }
      ],
      "name": "claimAmounts",
      "outputs": [
        {
          "internalType": "uint256",
          "name": "",
          "type": "uint256"
        }
      ],
      "stateMutability": "view",
      "type": "function"
    },
    {
      "inputs": [
        {
          "internalType": "uint256",
          "name": "",
          "type": "uint256"
        }
      ],
      "name": "claimTimes",
      "outputs": [
        {
          "internalType": "uint256",
          "name": "",
          "type": "uint256"
        }
      ],
      "stateMutability": "view",
      "type": "function"
    },
    {
      "inputs": [],
      "name": "collect",
      "outputs": [],
      "stateMutability": "nonpayable",
      "type": "function"
    },
    {
      "inputs": [
        {
          "internalType": "address",
          "name": "tokenA",
          "type": "address"
        },
        {
          "internalType": "address",
          "name": "tokenB",
          "type": "address"
        },
        {
          "internalType": "uint24",
          "name": "_fee",
          "type": "uint24"
        }
      ],
      "name": "computePoolAddress",
      "outputs": [
        {
          "internalType": "address",
          "name": "pool",
          "type": "address"
        },
        {
          "internalType": "address",
          "name": "token0",
          "type": "address"
        },
        {
          "internalType": "address",
          "name": "token1",
          "type": "address"
        }
      ],
      "stateMutability": "view",
      "type": "function"
    },
    {
      "inputs": [],
      "name": "fee",
      "outputs": [
        {
          "internalType": "uint24",
          "name": "",
          "type": "uint24"
        }
      ],
      "stateMutability": "view",
      "type": "function"
    },
    {
      "inputs": [],
      "name": "getMaxTick",
      "outputs": [
        {
          "internalType": "int24",
          "name": "",
          "type": "int24"
        }
      ],
      "stateMutability": "view",
      "type": "function"
    },
    {
      "inputs": [],
      "name": "getMinTick",
      "outputs": [
        {
          "internalType": "int24",
          "name": "",
          "type": "int24"
        }
      ],
      "stateMutability": "view",
      "type": "function"
    },
    {
      "inputs": [
        {
          "internalType": "bytes32",
          "name": "role",
          "type": "bytes32"
        }
      ],
      "name": "getRoleAdmin",
      "outputs": [
        {
          "internalType": "bytes32",
          "name": "",
          "type": "bytes32"
        }
      ],
      "stateMutability": "view",
      "type": "function"
    },
    {
      "inputs": [
        {
          "internalType": "int24",
          "name": "tick",
          "type": "int24"
        }
      ],
      "name": "getSqrtRatioAtTick",
      "outputs": [
        {
          "internalType": "uint160",
          "name": "",
          "type": "uint160"
        }
      ],
      "stateMutability": "pure",
      "type": "function"
    },
    {
      "inputs": [
        {
          "internalType": "uint160",
          "name": "sqrtPriceX96",
          "type": "uint160"
        }
      ],
      "name": "getTickAtSqrtRatio",
      "outputs": [
        {
          "internalType": "int24",
          "name": "",
          "type": "int24"
        }
      ],
      "stateMutability": "pure",
      "type": "function"
    },
    {
      "inputs": [
        {
          "internalType": "bytes32",
          "name": "role",
          "type": "bytes32"
        },
        {
          "internalType": "address",
          "name": "account",
          "type": "address"
        }
      ],
      "name": "grantRole",
      "outputs": [],
      "stateMutability": "nonpayable",
      "type": "function"
    },
    {
      "inputs": [
        {
          "internalType": "bytes32",
          "name": "role",
          "type": "bytes32"
        },
        {
          "internalType": "address",
          "name": "account",
          "type": "address"
        }
      ],
      "name": "hasRole",
      "outputs": [
        {
          "internalType": "bool",
          "name": "",
          "type": "bool"
        }
      ],
      "stateMutability": "view",
      "type": "function"
    },
    {
      "inputs": [],
      "name": "initSqrtPriceX96",
      "outputs": [
        {
          "internalType": "uint160",
          "name": "",
          "type": "uint160"
        }
      ],
      "stateMutability": "view",
      "type": "function"
    },
    {
      "inputs": [],
      "name": "initialTokenPrice",
      "outputs": [
        {
          "internalType": "uint256",
          "name": "",
          "type": "uint256"
        }
      ],
      "stateMutability": "view",
      "type": "function"
    },
    {
      "inputs": [],
      "name": "initialTosPrice",
      "outputs": [
        {
          "internalType": "uint256",
          "name": "",
          "type": "uint256"
        }
      ],
      "stateMutability": "view",
      "type": "function"
    },
    {
      "inputs": [
        {
          "internalType": "uint256",
          "name": "_totalAllocatedAmount",
          "type": "uint256"
        },
        {
          "internalType": "uint256",
          "name": "tosPrice",
          "type": "uint256"
        },
        {
          "internalType": "uint256",
          "name": "tokenPrice",
          "type": "uint256"
        },
        {
          "internalType": "uint160",
          "name": "initSqrtPrice",
          "type": "uint160"
        }
      ],
      "name": "initialize",
      "outputs": [],
      "stateMutability": "nonpayable",
      "type": "function"
    },
    {
      "inputs": [
        {
          "internalType": "address",
          "name": "account",
          "type": "address"
        }
      ],
      "name": "isAdmin",
      "outputs": [
        {
          "internalType": "bool",
          "name": "",
          "type": "bool"
        }
      ],
      "stateMutability": "view",
      "type": "function"
    },
    {
      "inputs": [
        {
          "internalType": "address",
          "name": "account",
          "type": "address"
        }
      ],
      "name": "isProxyAdmin",
      "outputs": [
        {
          "internalType": "bool",
          "name": "",
          "type": "bool"
        }
      ],
      "stateMutability": "view",
      "type": "function"
    },
    {
      "inputs": [],
      "name": "logEventAddress",
      "outputs": [
        {
          "internalType": "address",
          "name": "",
          "type": "address"
        }
      ],
      "stateMutability": "view",
      "type": "function"
    },
    {
      "inputs": [],
      "name": "lpToken",
      "outputs": [
        {
          "internalType": "uint256",
          "name": "",
          "type": "uint256"
        }
      ],
      "stateMutability": "view",
      "type": "function"
    },
    {
      "inputs": [],
      "name": "mint",
      "outputs": [],
      "stateMutability": "nonpayable",
      "type": "function"
    },
    {
      "inputs": [],
      "name": "name",
      "outputs": [
        {
          "internalType": "string",
          "name": "",
          "type": "string"
        }
      ],
      "stateMutability": "view",
      "type": "function"
    },
    {
      "inputs": [],
      "name": "nowClaimRound",
      "outputs": [
        {
          "internalType": "uint256",
          "name": "",
          "type": "uint256"
        }
      ],
      "stateMutability": "view",
      "type": "function"
    },
    {
      "inputs": [],
      "name": "pauseProxy",
      "outputs": [
        {
          "internalType": "bool",
          "name": "",
          "type": "bool"
        }
      ],
      "stateMutability": "view",
      "type": "function"
    },
    {
      "inputs": [],
      "name": "pool",
      "outputs": [
        {
          "internalType": "contract IUniswapV3Pool",
          "name": "",
          "type": "address"
        }
      ],
      "stateMutability": "view",
      "type": "function"
    },
    {
      "inputs": [
        {
          "internalType": "uint256",
          "name": "",
          "type": "uint256"
        }
      ],
      "name": "proxyImplementation",
      "outputs": [
        {
          "internalType": "address",
          "name": "",
          "type": "address"
        }
      ],
      "stateMutability": "view",
      "type": "function"
    },
    {
      "inputs": [],
      "name": "removeAdmin",
      "outputs": [],
      "stateMutability": "nonpayable",
      "type": "function"
    },
    {
      "inputs": [],
      "name": "removeProxyAdmin",
      "outputs": [],
      "stateMutability": "nonpayable",
      "type": "function"
    },
    {
      "inputs": [
        {
          "internalType": "bytes32",
          "name": "role",
          "type": "bytes32"
        },
        {
          "internalType": "address",
          "name": "account",
          "type": "address"
        }
      ],
      "name": "renounceRole",
      "outputs": [],
      "stateMutability": "nonpayable",
      "type": "function"
    },
    {
      "inputs": [
        {
          "internalType": "bytes32",
          "name": "role",
          "type": "bytes32"
        },
        {
          "internalType": "address",
          "name": "account",
          "type": "address"
        }
      ],
      "name": "revokeRole",
      "outputs": [],
      "stateMutability": "nonpayable",
      "type": "function"
    },
    {
      "inputs": [
        {
          "internalType": "bytes4",
          "name": "",
          "type": "bytes4"
        }
      ],
      "name": "selectorImplementation",
      "outputs": [
        {
          "internalType": "address",
          "name": "",
          "type": "address"
        }
      ],
      "stateMutability": "view",
      "type": "function"
    },
    {
      "inputs": [
        {
          "internalType": "bool",
          "name": "_boolReadyToCreatePool",
          "type": "bool"
        }
      ],
      "name": "setBoolReadyToCreatePool",
      "outputs": [],
      "stateMutability": "nonpayable",
      "type": "function"
    },
    {
      "inputs": [],
      "name": "setCreatePool",
      "outputs": [],
      "stateMutability": "nonpayable",
      "type": "function"
    },
    {
      "inputs": [],
      "name": "setPool",
      "outputs": [],
      "stateMutability": "nonpayable",
      "type": "function"
    },
    {
      "inputs": [
        {
          "internalType": "uint160",
          "name": "inSqrtPriceX96",
          "type": "uint160"
        }
      ],
      "name": "setPoolInitialize",
      "outputs": [],
      "stateMutability": "nonpayable",
      "type": "function"
    },
    {
      "inputs": [
        {
          "internalType": "address",
          "name": "tos",
          "type": "address"
        },
        {
          "internalType": "uint24",
          "name": "_fee",
          "type": "uint24"
        }
      ],
      "name": "setTokens",
      "outputs": [],
      "stateMutability": "nonpayable",
      "type": "function"
    },
    {
      "inputs": [
        {
          "internalType": "address",
          "name": "poolfactory",
          "type": "address"
        },
        {
          "internalType": "address",
          "name": "npm",
          "type": "address"
        }
      ],
      "name": "setUniswapInfo",
      "outputs": [],
      "stateMutability": "nonpayable",
      "type": "function"
    },
    {
      "inputs": [
        {
          "internalType": "bytes4",
          "name": "interfaceId",
          "type": "bytes4"
        }
      ],
      "name": "supportsInterface",
      "outputs": [
        {
          "internalType": "bool",
          "name": "",
          "type": "bool"
        }
      ],
      "stateMutability": "view",
      "type": "function"
    },
    {
      "inputs": [],
      "name": "tickIntervalMinimum",
      "outputs": [
        {
          "internalType": "int24",
          "name": "",
          "type": "int24"
        }
      ],
      "stateMutability": "view",
      "type": "function"
    },
    {
      "inputs": [],
      "name": "token",
      "outputs": [
        {
          "internalType": "contract IERC20",
          "name": "",
          "type": "address"
        }
      ],
      "stateMutability": "view",
      "type": "function"
    },
    {
      "inputs": [],
      "name": "token0Address",
      "outputs": [
        {
          "internalType": "address",
          "name": "",
          "type": "address"
        }
      ],
      "stateMutability": "view",
      "type": "function"
    },
    {
      "inputs": [],
      "name": "token1Address",
      "outputs": [
        {
          "internalType": "address",
          "name": "",
          "type": "address"
        }
      ],
      "stateMutability": "view",
      "type": "function"
    },
    {
      "inputs": [],
      "name": "totalAllocatedAmount",
      "outputs": [
        {
          "internalType": "uint256",
          "name": "",
          "type": "uint256"
        }
      ],
      "stateMutability": "view",
      "type": "function"
    },
    {
      "inputs": [],
      "name": "totalClaimCounts",
      "outputs": [
        {
          "internalType": "uint256",
          "name": "",
          "type": "uint256"
        }
      ],
      "stateMutability": "view",
      "type": "function"
    },
    {
      "inputs": [],
      "name": "totalClaimsAmount",
      "outputs": [
        {
          "internalType": "uint256",
          "name": "",
          "type": "uint256"
        }
      ],
      "stateMutability": "view",
      "type": "function"
    },
    {
      "inputs": [
        {
          "internalType": "address",
          "name": "newAdmin",
          "type": "address"
        }
      ],
      "name": "transferAdmin",
      "outputs": [],
      "stateMutability": "nonpayable",
      "type": "function"
    },
    {
      "inputs": [
        {
          "internalType": "address",
          "name": "newAdmin",
          "type": "address"
        }
      ],
      "name": "transferProxyAdmin",
      "outputs": [],
      "stateMutability": "nonpayable",
      "type": "function"
    }
  ],
  "bytecode": "0x6080604052600060105534801561001557600080fd5b5060016000556143058061002a6000396000f3fe608060405234801561001057600080fd5b50600436106102ce5760003560e01c8063671884fe1161017e578063b911135f116100df578063b911135f1461060f578063be72f2d314610638578063cfc412be14610640578063d547741f14610649578063d7cb416f1461065c578063dcd7772e1461066f578063ddca3f4314610677578063e5225381146106a1578063eab73ca1146106a9578063eb2aa35d146106c1578063eb582d13146106d4578063ed5131f5146106e7578063f47f2f1d146106fa578063f86464081461070d578063fc0c546a1461072057600080fd5b8063671884fe14610531578063704802751461053957806375829def1461054c578063771ff3811461055f5780637ff36fbe146105675780638158f0c01461057a57806381f41eb21461058d5780638356ca4f146105a05780638eee461a146105b357806391d14854146105c657806396f1557c146105d9578063986cfba3146105ec5780639a202d47146105ff578063a217fddf1461060757600080fd5b8063251df7a211610233578063251df7a214610405578063256019d6146104185780632ca0228a146104215780632f2ff15d1461042a57806334b38cc31461043d57806336568abe1461045557806341c04d5e146104685780634f76c0581461047d57806350d2a27614610490578063526aef94146104b9578063550d01a3146104cd57806355640008146104f057806355ecf5a8146104f95780635fcbd2851461051b57806363a8fd891461052457600080fd5b806301ffc9a7146102d35780630284ec8f146102fb5780630411b9491461030f57806306fdde031461032f5780630724e61c146103445780630a59fa08146103595780630a6aae11146103665780630f4388c01461037d578063117ab874146103905780631249c58b1461039957806316daa663146103a157806316f0115b146103bc578063248a9ca3146103cf57806324d7806c146103f2575b600080fd5b6102e66102e13660046137e1565b610733565b60405190151581526020015b60405180910390f35b600a546102e690600160b81b900460ff1681565b600354610322906001600160a01b031681565b6040516102f29190613b35565b61033761076a565b6040516102f29190613bc7565b6103576103523660046136be565b6107f8565b005b6018546102e69060ff1681565b61036f60085481565b6040519081526020016102f2565b61036f61038b3660046137a5565b61096b565b61036f60105481565b61035761098c565b6103a9610b57565b60405160029190910b81526020016102f2565b600554610322906001600160a01b031681565b61036f6103dd3660046137a5565b60009081526019602052604090206001015490565b6102e6610400366004613686565b610b87565b610357610413366004613740565b610ba1565b61036f600f5481565b61036f60095481565b6103576104383660046137bd565b610d54565b610445610d7f565b6040516102f29493929190613f0a565b6103576104633660046137bd565b610e42565b61036f6000805160206142b083398151915281565b6103a961048b366004613686565b610ec0565b61032261049e3660046137e1565b6017602052600090815260409020546001600160a01b031681565b600a546103a990600160a01b900460020b81565b6102e66104db366004613686565b60166020526000908152604090205460ff1681565b61036f600e5481565b61050c6105073660046136f6565b610ecb565b6040516102f293929190613b63565b61036f600b5481565b6014546102e69060ff1681565b6103a9610fab565b610357610547366004613686565b610fc2565b61035761055a366004613686565b611002565b6103576110b5565b600654610322906001600160a01b031681565b610357610588366004613686565b61147b565b600a54610322906001600160a01b031681565b6103576105ae366004613686565b611602565b6103576105c136600461376d565b61168c565b6102e66105d43660046137bd565b61176b565b6103576105e7366004613686565b611796565b6103226105fa366004613809565b6117c6565b6103576117d1565b61036f600081565b61032261061d3660046137a5565b6015602052600090815260409020546001600160a01b031681565b61035761181f565b61036f60115481565b6103576106573660046137bd565b61184f565b600754610322906001600160a01b031681565b610357611875565b60045461068d90600160a01b900462ffffff1681565b60405162ffffff90911681526020016102f2565b610357611afa565b6018546103229061010090046001600160a01b031681565b6103576106cf366004613965565b611d8c565b600454610322906001600160a01b031681565b61036f6106f53660046137a5565b612013565b6102e6610708366004613686565b612023565b600254610322906001600160a01b031681565b600154610322906001600160a01b031681565b60006001600160e01b03198216637965db0b60e01b148061076457506301ffc9a760e01b6001600160e01b03198316145b92915050565b600d8054610777906141b6565b80601f01602080910402602001604051908101604052809291908181526020018280546107a3906141b6565b80156107f05780601f106107c5576101008083540402835291602001916107f0565b820191906000526020600020905b8154815290600101906020018083116107d357829003601f168201915b505050505081565b61080133612023565b6108265760405162461bcd60e51b815260040161081d90613cc9565b60405180910390fd5b6001600160a01b0382161580159061084c57506003546001600160a01b03838116911614155b6108985760405162461bcd60e51b815260206004820152601d60248201527f7a65726f206f722073616d6520556e69737761705633466163746f7279000000604482015260640161081d565b6001600160a01b038116158015906108be57506004546001600160a01b03828116911614155b6108fd5760405162461bcd60e51b815260206004820152601060248201526f7a65726f206f722073616d65206e706d60801b604482015260640161081d565b600380546001600160a01b038085166001600160a01b03199283161790925560048054928416929091169190911790556040517f5fc0ec65c13a954263aac9f4f69b985fb5882ef912527cb4010c8ffd07be61729061095f9084908490613b49565b60405180910390a15050565b6013818154811061097b57600080fd5b600091825260209091200154905081565b600a54600160b81b900460ff166109b55760405162461bcd60e51b815260040161081d90613d41565b600260005414156109d85760405162461bcd60e51b815260040161081d90613e1d565b60026000556005546001600160a01b031680610a065760405162461bcd60e51b815260040161081d90613bfa565b6006546001600160a01b031680610a2f5760405162461bcd60e51b815260040161081d90613bfa565b6007546001600160a01b031680610a585760405162461bcd60e51b815260040161081d90613bfa565b60055460408051633850c7bd60e01b815290516000926001600160a01b031691633850c7bd9160048083019260e0929190829003018186803b158015610a9d57600080fd5b505afa158015610ab1573d6000803e3d6000fd5b505050506040513d601f19601f82011682018060405250810190610ad59190613859565b50505050505090506000816001600160a01b031611610b305760405162461bcd60e51b81526020600482015260176024820152761c1bdbdb081a5cc81b9bdd081a5b9a5d1a585b1a5e9959604a1b604482015260640161081d565b600b54610b4457610b3f61202f565b610b4c565b610b4c6123ad565b505060016000555050565b600c5460009060020b80610b6e620d89e719614205565b610b789190613fa0565b610b829190613fee565b905090565b60006107646000805160206142b08339815191528361176b565b610baa33612023565b610bc65760405162461bcd60e51b815260040161081d90613cc9565b600a54600160b81b900460ff1615610bf05760405162461bcd60e51b815260040161081d90613ddb565b6001600160a01b03821615801590610c1657506002546001600160a01b03838116911614155b610c4d5760405162461bcd60e51b815260206004820152600860248201526773616d6520746f7360c01b604482015260640161081d565b600280546001600160a01b0319166001600160a01b0384161790556004805462ffffff60a01b1916600160a01b62ffffff84811682029290921792839055909104166101f41415610cac57600c805462ffffff1916600a179055610d00565b600454600160a01b900462ffffff16610bb81415610cd857600c805462ffffff1916603c179055610d00565b600454600160a01b900462ffffff166127101415610d0057600c805462ffffff191660c81790555b600c54604080516001600160a01b038516815262ffffff84166020820152600292830b90920b908201527fa5edbc8e8d441c0b1b4f4791110f6ba4ea2e5feaee81d0c3ac25ac9011cf1e319060600161095f565b600082815260196020526040902060010154610d708133612696565b610d7a83836126fa565b505050565b60006060806000600f546012601360105482805480602002602001604051908101604052809291908181526020018280548015610ddb57602002820191906000526020600020905b815481526020019060010190808311610dc7575b5050505050925081805480602002602001604051908101604052809291908181526020018280548015610e2d57602002820191906000526020600020905b815481526020019060010190808311610e19575b50505050509150935093509350935090919293565b6001600160a01b0381163314610eb25760405162461bcd60e51b815260206004820152602f60248201527f416363657373436f6e74726f6c3a2063616e206f6e6c792072656e6f756e636560448201526e103937b632b9903337b91039b2b63360891b606482015260840161081d565b610ebc8282612780565b5050565b6000610764826127e7565b600083837fe34f199b19b2b4f47f68442619d555527d244f78a3297ea89325f843f87b8b546001600160a01b038083169084161115610f0b578592508691505b6003546040516001600160a01b0390911690610f2f90859085908990602001613b86565b6040516020818303038152906040528051906020012082604051602001610f86939291906001600160f81b0319815260609390931b6001600160601b03191660018401526015830191909152603582015260550190565b6040516020818303038152906040528051906020012060001c93505093509350939050565b600c5460009060020b610b7881620d89e719613fa0565b610fcb33612023565b610fe75760405162461bcd60e51b815260040161081d90613cc9565b610fff6000805160206142b083398151915282610d54565b50565b61100b33610b87565b8061101a575061101a33612023565b6110365760405162461bcd60e51b815260040161081d90613c27565b6001600160a01b03811661105c5760405162461bcd60e51b815260040161081d90613c69565b336001600160a01b03821614156110855760405162461bcd60e51b815260040161081d90613d11565b61109d6000805160206142b083398151915282610d54565b610fff6000805160206142b083398151915233610e42565b6003546001600160a01b0316158015906110d957506004546001600160a01b031615155b80156110ef57506002546001600160a01b031615155b61110b5760405162461bcd60e51b815260040161081d90613da9565b600a54600160b81b900460ff166111345760405162461bcd60e51b815260040161081d90613d41565b60035460025460015460048054604051630b4c774160e11b81526000956001600160a01b0390811695631698ee82956111829591831694921692600160a01b90920462ffffff169101613b86565b60206040518083038186803b15801561119a57600080fd5b505afa1580156111ae573d6000803e3d6000fd5b505050506040513d601f19601f820116820180604052508101906111d291906136a2565b90506001600160a01b0381166112cf576003546002546001546004805460405163a167129560e01b81526000956001600160a01b039081169563a1671295956112309591831694921692600160a01b90920462ffffff169101613b86565b602060405180830381600087803b15801561124a57600080fd5b505af115801561125e573d6000803e3d6000fd5b505050506040513d601f19601f8201168201806040525081019061128291906136a2565b90506001600160a01b0381166112cc5760405162461bcd60e51b815260206004820152600f60248201526e18dc99585d19541bdbdb0819985a5b608a1b604482015260640161081d565b90505b600580546001600160a01b0319166001600160a01b03831690811790915560408051630dfe168160e01b81529051630dfe168191600480820192602092909190829003018186803b15801561132357600080fd5b505afa158015611337573d6000803e3d6000fd5b505050506040513d601f19601f8201168201806040525081019061135b91906136a2565b600680546001600160a01b0319166001600160a01b039283161790556005546040805163d21220a760e01b81529051919092169163d21220a7916004808301926020929190829003018186803b1580156113b457600080fd5b505afa1580156113c8573d6000803e3d6000fd5b505050506040513d601f19601f820116820180604052508101906113ec91906136a2565b600780546001600160a01b0319166001600160a01b03928316179055600a54161561142657600a54611426906001600160a01b031661147b565b6005546006546007546040517f87686ebed73b2bf2a483156cdc52a73ebd37e11a1e0adb90f09e4216e0dd541593611470936001600160a01b039182169390821692911690613b63565b60405180910390a150565b6005546001600160a01b0316806114a45760405162461bcd60e51b815260040161081d90613bfa565b600a54600160b81b900460ff166114cd5760405162461bcd60e51b815260040161081d90613d41565b60055460408051633850c7bd60e01b815290516000926001600160a01b031691633850c7bd9160048083019260e0929190829003018186803b15801561151257600080fd5b505afa158015611526573d6000803e3d6000fd5b505050506040513d601f19601f8201168201806040525081019061154a9190613859565b5050505050509050806001600160a01b031660001415610d7a5760055460405163f637731d60e01b81526001600160a01b039091169063f637731d90611594908690600401613b35565b600060405180830381600087803b1580156115ae57600080fd5b505af11580156115c2573d6000803e3d6000fd5b505050507fd4a3cdac99f6deac6f6631c09a884550f28be2e33585b71c2b777ebdc6bcc482836040516115f59190613b35565b60405180910390a1505050565b61160b33612023565b6116275760405162461bcd60e51b815260040161081d90613cc9565b6001600160a01b03811661164d5760405162461bcd60e51b815260040161081d90613c69565b336001600160a01b03821614156116765760405162461bcd60e51b815260040161081d90613d11565b611681600082610d54565b610fff600033610e42565b61169533610b87565b806116a457506116a433612023565b6116c05760405162461bcd60e51b815260040161081d90613c27565b600a5460ff600160b81b909104161515811515141561171e5760405162461bcd60e51b815260206004820152601a6024820152791cd85b5948189bdbdb149958591e551bd0dc99585d19541bdbdb60321b604482015260640161081d565b600a8054821515600160b81b0260ff60b81b199091161790556040517fb617cf12ee2262dc406f2998cca847640b8b72357f6032b86e6821ccd05a896b9061147090831515815260200190565b60009182526019602090815260408084206001600160a01b0393909316845291905290205460ff1690565b61179f33612023565b6117bb5760405162461bcd60e51b815260040161081d90613cc9565b610fff600082612b21565b600061076482612b2b565b6117da33610b87565b806117e957506117e933612023565b6118055760405162461bcd60e51b815260040161081d90613c27565b61181d6000805160206142b083398151915233610e42565b565b61182833612023565b6118445760405162461bcd60e51b815260040161081d90613cc9565b61181d600033610e42565b60008281526019602052604090206001015461186b8133612696565b610d7a8383612780565b61187e33610b87565b8061188d575061188d33612023565b6118a95760405162461bcd60e51b815260040161081d90613c27565b600a54600160b81b900460ff16156118d35760405162461bcd60e51b815260040161081d90613ddb565b600a546001600160a01b03166119235760405162461bcd60e51b81526020600482015260156024820152743d32b9379034b734ba29b8b93a283934b1b2ac1c9b60591b604482015260640161081d565b61192d600161168c565b6119356110b5565b60035460025460015460048054604051630b4c774160e11b81526000956001600160a01b0390811695631698ee82956119839591831694921692600160a01b90920462ffffff169101613b86565b60206040518083038186803b15801561199b57600080fd5b505afa1580156119af573d6000803e3d6000fd5b505050506040513d601f19601f820116820180604052508101906119d391906136a2565b6005549091506001600160a01b03808316911614611a2c5760405162461bcd60e51b8152602060048201526016602482015275646966666572656e7420706f6f6c206164647265737360501b604482015260640161081d565b60055460408051633850c7bd60e01b815290516000926001600160a01b031691633850c7bd9160048083019260e0929190829003018186803b158015611a7157600080fd5b505afa158015611a85573d6000803e3d6000fd5b505050506040513d601f19601f82011682018060405250810190611aa99190613859565b50505050505090506000816001600160a01b031611610ebc5760405162461bcd60e51b815260206004820152600d60248201526c7072696365206973207a65726f60981b604482015260640161081d565b6005546001600160a01b031680611b235760405162461bcd60e51b815260040161081d90613bfa565b60026000541415611b465760405162461bcd60e51b815260040161081d90613e1d565b6002600055600b54611b6a5760405162461bcd60e51b815260040161081d90613c9b565b60048054600b5460405163133f757160e31b81529283015260009182916001600160a01b0316906399fbab88906024016101806040518083038186803b158015611bb357600080fd5b505afa158015611bc7573d6000803e3d6000fd5b505050506040513d601f19601f82011682018060405250810190611beb91906139a5565b9b509b50505050505050505050506000826001600160801b03161180611c1a57506000816001600160801b0316115b611c665760405162461bcd60e51b815260206004820152601e60248201527f7468657265206973206e6f20636f6c6c65637461626c6520616d6f756e740000604482015260640161081d565b6004805460408051608081018252600b54815230602082019081526001600160801b0387811683850190815287821660608501908152945163fc6f786560e01b815293519684019690965290516001600160a01b039081166024840152945181166044830152915190911660648201526000928392169063fc6f7865906084016040805180830381600087803b158015611cff57600080fd5b505af1158015611d13573d6000803e3d6000fd5b505050506040513d601f19601f82011682018060405250810190611d379190613942565b91509150600b547f59943dc7329fdfb15044f95cef4cae4efe6e3b1b8a4e0858bf7f7f3515090f358383604051611d78929190918252602082015260400190565b60405180910390a250506001600055505050565b611d9533610b87565b80611da45750611da433612023565b611dc05760405162461bcd60e51b815260040161081d90613c27565b6003546001600160a01b031615801590611de457506004546001600160a01b031615155b8015611dfa57506002546001600160a01b031615155b611e165760405162461bcd60e51b815260040161081d90613da9565b6001546040516370a0823160e01b81526001600160a01b03909116906370a0823190611e46903090600401613b35565b60206040518083038186803b158015611e5e57600080fd5b505afa158015611e72573d6000803e3d6000fd5b505050506040513d601f19601f82011682018060405250810190611e9691906138ef565b841115611edf5760405162461bcd60e51b81526020600482015260176024820152763732b2b2103a379034b7383aba103a3432903a37b5b2b760491b604482015260640161081d565b600083118015611eef5750600082115b8015611f0457506000816001600160a01b0316115b611f685760405162461bcd60e51b815260206004820152602f60248201527f7a65726f20746f735072696365206f7220746f6b656e5072696365206f72206960448201526e3734ba29b8b93a283934b1b2ac1c9b60891b606482015260840161081d565b600e84905560088390556009829055600a80546001600160a01b0319166001600160a01b0383161790556040518481527fbe9b076dc5b65990cca9dd9d7366682482e7817a6f6bc7f4faf4dc32af497f329060200160405180910390a160408051848152602081018490526001600160a01b0383168183015290517fc6bad1b6d2fd191de5848ad7eaaf2ddc559c9b96622381e15bd4b2f1175d1cb79181900360600190a150505050565b6012818154811061097b57600080fd5b6000610764818361176b565b600b54156120705760405162461bcd60e51b815260206004820152600e60248201526d185b1c9958591e481b5a5b9d195960921b604482015260640161081d565b6002546040516370a0823160e01b81526000916001600160a01b0316906370a08231906120a1903090600401613b35565b60206040518083038186803b1580156120b957600080fd5b505afa1580156120cd573d6000803e3d6000fd5b505050506040513d601f19601f820116820180604052508101906120f191906138ef565b6001546040516370a0823160e01b81529192506000916001600160a01b03909116906370a0823190612127903090600401613b35565b60206040518083038186803b15801561213f57600080fd5b505afa158015612153573d6000803e3d6000fd5b505050506040513d601f19601f8201168201806040525081019061217791906138ef565b9050670de0b6b3a7640000821180156121975750670de0b6b3a764000081115b6121b35760405162461bcd60e51b815260040161081d90613d78565b6121bd8282612f3e565b60006121c7610fab565b905060006121d3610b57565b600254600654919250859185916001600160a01b039182169116146121f85750839050845b60045460408051610160810182526006546001600160a01b0390811682526007548116602083015262ffffff600160a01b85041692820192909252600287810b606083015286900b608082015260a0810185905260c08101849052600060e08201819052610100820181905230610120830152928392839283929190911690638831645690610140810161228f42620186a0613f88565b8152506040518263ffffffff1660e01b81526004016122ae9190613e54565b608060405180830381600087803b1580156122c857600080fd5b505af11580156122dc573d6000803e3d6000fd5b505050506040513d601f19601f820116820180604052508101906123009190613907565b93509350935093506000841161234a5760405162461bcd60e51b815260206004820152600f60248201526e746f6b656e4964206973207a65726f60881b604482015260640161081d565b600b849055604080518581526001600160801b03851660208201529081018390526060810182905233907f7e4faa9ec81dd9000071b6dbc47dedaad9cd0745b9f0243f2b474b916f6229f39060800160405180910390a250505050505050505050565b6000600b54116123cf5760405162461bcd60e51b815260040161081d90613c9b565b6002546040516370a0823160e01b81526000916001600160a01b0316906370a0823190612400903090600401613b35565b60206040518083038186803b15801561241857600080fd5b505afa15801561242c573d6000803e3d6000fd5b505050506040513d601f19601f8201168201806040525081019061245091906138ef565b6001546040516370a0823160e01b81529192506000916001600160a01b03909116906370a0823190612486903090600401613b35565b60206040518083038186803b15801561249e57600080fd5b505afa1580156124b2573d6000803e3d6000fd5b505050506040513d601f19601f820116820180604052508101906124d691906138ef565b9050670de0b6b3a76400008211806124f55750670de0b6b3a764000081115b6125115760405162461bcd60e51b815260040161081d90613d78565b61251b8282612f3e565b600254600654839183916001600160a01b0390811691161461253d5750819050825b6004546040805160c081018252600b548152602081018590529081018390526000606082018190526080820181905291829182916001600160a01b03169063219f5d179060a0810161259242620186a0613f88565b9052604080516001600160e01b031960e085901b1681528251600482015260208301516024820152908201516044820152606082015160648201526080820151608482015260a09091015160a482015260c401606060405180830381600087803b1580156125ff57600080fd5b505af1158015612613573d6000803e3d6000fd5b505050506040513d601f19601f820116820180604052508101906126379190613825565b600b54604080516001600160801b0386168152602081018590529081018390529396509194509250907fa88ed384c96385e07d5f3ba9385866f17995177886d1a5601601d8c8d69872519060600160405180910390a250505050505050565b6126a0828261176b565b610ebc576126b8816001600160a01b0316601461344e565b6126c383602061344e565b6040516020016126d4929190613ac6565b60408051601f198184030181529082905262461bcd60e51b825261081d91600401613bc7565b612704828261176b565b610ebc5760008281526019602090815260408083206001600160a01b03851684529091529020805460ff1916600117905561273c3390565b6001600160a01b0316816001600160a01b0316837f2f8788117e7eff1d82e926ec794901d17c78024a50270940304540a733656f0d60405160405180910390a45050565b61278a828261176b565b15610ebc5760008281526019602090815260408083206001600160a01b0385168085529252808320805460ff1916905551339285917ff6391f5c32d9c69d2a47ea670b442974b53935d1edc7fd64eb21e047a839171b9190a45050565b60006401000276a36001600160a01b03831610801590612823575073fffd8963efd1fc6a506488495d951d5263988d266001600160a01b038316105b6128535760405162461bcd60e51b81526020600482015260016024820152602960f91b604482015260640161081d565b640100000000600160c01b03602083901b166001600160801b03811160071b81811c67ffffffffffffffff811160061b90811c63ffffffff811160051b90811c61ffff811160041b90811c60ff8111600390811b91821c600f811160021b90811c918211600190811b92831c979088119617909417909217179091171717608081106128ee576128e4607f82614158565b83901c91506128ff565b6128f981607f614158565b83901b91505b6000604061290e608084614119565b901b9050828302607f1c92508260801c80603f1b8217915083811c935050828302607f1c92508260801c80603e1b8217915083811c935050828302607f1c92508260801c80603d1b8217915083811c935050828302607f1c92508260801c80603c1b8217915083811c935050828302607f1c92508260801c80603b1b8217915083811c935050828302607f1c92508260801c80603a1b8217915083811c935050828302607f1c92508260801c8060391b8217915083811c935050828302607f1c92508260801c8060381b8217915083811c935050828302607f1c92508260801c8060371b8217915083811c935050828302607f1c92508260801c8060361b8217915083811c935050828302607f1c92508260801c8060351b8217915083811c935050828302607f1c92508260801c8060341b8217915083811c935050828302607f1c92508260801c8060331b8217915083811c935050828302607f1c92508260801c8060321b8217915050600081693627a301d71055774c85612a919190614077565b905060006080612ab16f028f6481ab7f045a5af012a19d003aaa84614119565b901d905060006080612ad3846fdb2df09e81959a81455e260799a0632f613f47565b901d90508060020b8260020b14612b1257886001600160a01b0316612af782612b2b565b6001600160a01b03161115612b0c5781612b14565b80612b14565b815b9998505050505050505050565b610ebc82826126fa565b60008060008360020b12612b42578260020b612b4f565b8260020b612b4f90614226565b9050612b5e620d89e719614205565b60020b811115612b945760405162461bcd60e51b81526020600482015260016024820152601560fa1b604482015260640161081d565b600060018216612ba857600160801b612bba565b6ffffcb933bd6fad37aa2d162d1a5940015b6001600160881b031690506002821615612bef576080612bea826ffff97272373d413259a46990580e213a6140fa565b901c90505b6004821615612c19576080612c14826ffff2e50f5f656932ef12357cf3c7fdcc6140fa565b901c90505b6008821615612c43576080612c3e826fffe5caca7e10e4e61c3624eaa0941cd06140fa565b901c90505b6010821615612c6d576080612c68826fffcb9843d60f6159c9db58835c9266446140fa565b901c90505b6020821615612c97576080612c92826fff973b41fa98c081472e6896dfb254c06140fa565b901c90505b6040821615612cc1576080612cbc826fff2ea16466c96a3843ec78b326b528616140fa565b901c90505b6080821615612ceb576080612ce6826ffe5dee046a99a2a811c461f1969c30536140fa565b901c90505b610100821615612d16576080612d11826ffcbe86c7900a88aedcffc83b479aa3a46140fa565b901c90505b610200821615612d41576080612d3c826ff987a7253ac413176f2b074cf7815e546140fa565b901c90505b610400821615612d6c576080612d67826ff3392b0822b70005940c7a398e4b70f36140fa565b901c90505b610800821615612d97576080612d92826fe7159475a2c29b7443b29c7fa6e889d96140fa565b901c90505b611000821615612dc2576080612dbd826fd097f3bdfd2022b8845ad8f792aa58256140fa565b901c90505b612000821615612ded576080612de8826fa9f746462d870fdf8a65dc1f90e061e56140fa565b901c90505b614000821615612e18576080612e13826f70d869a156d2a1b890bb3df62baf32f76140fa565b901c90505b618000821615612e43576080612e3e826f31be135f97d08fd981231505542fcfa66140fa565b901c90505b62010000821615612e6f576080612e6a826f09aa508b5b7a84e1c677de54f3e99bc96140fa565b901c90505b62020000821615612e9a576080612e95826e5d6af8dedb81196699c329225ee6046140fa565b901c90505b62040000821615612ec4576080612ebf826d2216e584f5fa1ea926041bedfe986140fa565b901c90505b62080000821615612eec576080612ee7826b048a170391f7dc42444e8fa26140fa565b901c90505b60008460020b1315612f0757612f0481600019613fda565b90505b612f16640100000000826141f1565b15612f22576001612f25565b60005b612f369060ff16602083901c613f88565b949350505050565b6002546040516370a0823160e01b815283916001600160a01b0316906370a0823190612f6e903090600401613b35565b60206040518083038186803b158015612f8657600080fd5b505afa158015612f9a573d6000803e3d6000fd5b505050506040513d601f19601f82011682018060405250810190612fbe91906138ef565b10156130035760405162461bcd60e51b81526020600482015260146024820152733a37b99034b99034b739bab33334b1b4b2b73a1760611b604482015260640161081d565b6001546040516370a0823160e01b815282916001600160a01b0316906370a0823190613033903090600401613b35565b60206040518083038186803b15801561304b57600080fd5b505afa15801561305f573d6000803e3d6000fd5b505050506040513d601f19601f8201168201806040525081019061308391906138ef565b10156130ca5760405162461bcd60e51b81526020600482015260166024820152753a37b5b2b71034b99034b739bab33334b1b4b2b73a1760511b604482015260640161081d565b60025460048054604051636eb1769f60e11b81526001600160a01b039384169363dd62ed3e936130ff93309392169101613b49565b60206040518083038186803b15801561311757600080fd5b505afa15801561312b573d6000803e3d6000fd5b505050506040513d601f19601f8201168201806040525081019061314f91906138ef565b82111561328b5760025460048054604080516318160ddd60e01b815290516001600160a01b039485169463095ea7b39493169285926318160ddd9281830192602092829003018186803b1580156131a557600080fd5b505afa1580156131b9573d6000803e3d6000fd5b505050506040513d601f19601f820116820180604052508101906131dd91906138ef565b6040518363ffffffff1660e01b81526004016131fa929190613bae565b602060405180830381600087803b15801561321457600080fd5b505af1158015613228573d6000803e3d6000fd5b505050506040513d601f19601f8201168201806040525081019061324c9190613789565b61328b5760405162461bcd60e51b815260206004820152601060248201526f1513d4c8185c1c1c9bdd994819985a5b60821b604482015260640161081d565b60015460048054604051636eb1769f60e11b81526001600160a01b039384169363dd62ed3e936132c093309392169101613b49565b60206040518083038186803b1580156132d857600080fd5b505afa1580156132ec573d6000803e3d6000fd5b505050506040513d601f19601f8201168201806040525081019061331091906138ef565b811115610ebc5760015460048054604080516318160ddd60e01b815290516001600160a01b039485169463095ea7b39493169285926318160ddd9281830192602092829003018186803b15801561336657600080fd5b505afa15801561337a573d6000803e3d6000fd5b505050506040513d601f19601f8201168201806040525081019061339e91906138ef565b6040518363ffffffff1660e01b81526004016133bb929190613bae565b602060405180830381600087803b1580156133d557600080fd5b505af11580156133e9573d6000803e3d6000fd5b505050506040513d601f19601f8201168201806040525081019061340d9190613789565b610ebc5760405162461bcd60e51b81526020600482015260126024820152711d1bdad95b88185c1c1c9bdd994819985a5b60721b604482015260640161081d565b6060600061345d8360026140fa565b613468906002613f88565b67ffffffffffffffff81111561348e57634e487b7160e01b600052604160045260246000fd5b6040519080825280601f01601f1916602001820160405280156134b8576020820181803683370190505b509050600360fc1b816000815181106134e157634e487b7160e01b600052603260045260246000fd5b60200101906001600160f81b031916908160001a905350600f60fb1b8160018151811061351e57634e487b7160e01b600052603260045260246000fd5b60200101906001600160f81b031916908160001a90535060006135428460026140fa565b61354d906001613f88565b90505b60018111156135e1576f181899199a1a9b1b9c1cb0b131b232b360811b85600f166010811061358f57634e487b7160e01b600052603260045260246000fd5b1a60f81b8282815181106135b357634e487b7160e01b600052603260045260246000fd5b60200101906001600160f81b031916908160001a90535060049490941c936135da8161419f565b9050613550565b5083156136305760405162461bcd60e51b815260206004820181905260248201527f537472696e67733a20686578206c656e67746820696e73756666696369656e74604482015260640161081d565b9392505050565b80516136428161426c565b919050565b80516136428161428f565b80516001600160801b038116811461364257600080fd5b805161ffff8116811461364257600080fd5b80516136428161429e565b600060208284031215613697578081fd5b81356136308161426c565b6000602082840312156136b3578081fd5b81516136308161426c565b600080604083850312156136d0578081fd5b82356136db8161426c565b915060208301356136eb8161426c565b809150509250929050565b60008060006060848603121561370a578081fd5b83356137158161426c565b925060208401356137258161426c565b915060408401356137358161429e565b809150509250925092565b60008060408385031215613752578182fd5b823561375d8161426c565b915060208301356136eb8161429e565b60006020828403121561377e578081fd5b813561363081614281565b60006020828403121561379a578081fd5b815161363081614281565b6000602082840312156137b6578081fd5b5035919050565b600080604083850312156137cf578182fd5b8235915060208301356136eb8161426c565b6000602082840312156137f2578081fd5b81356001600160e01b031981168114613630578182fd5b60006020828403121561381a578081fd5b81356136308161428f565b600080600060608486031215613839578081fd5b61384284613652565b925060208401519150604084015190509250925092565b600080600080600080600060e0888a031215613873578485fd5b875161387e8161426c565b602089015190975061388f8161428f565b955061389d60408901613669565b94506138ab60608901613669565b93506138b960808901613669565b925060a088015160ff811681146138ce578283fd5b60c08901519092506138df81614281565b8091505092959891949750929550565b600060208284031215613900578081fd5b5051919050565b6000806000806080858703121561391c578182fd5b8451935061392c60208601613652565b6040860151606090960151949790965092505050565b60008060408385031215613954578182fd5b505080516020909101519092909150565b6000806000806080858703121561397a578182fd5b843593506020850135925060408501359150606085013561399a8161426c565b939692955090935050565b6000806000806000806000806000806000806101808d8f0312156139c7578586fd5b8c516001600160601b03811681146139dd578687fd5b9b506139eb60208e01613637565b9a506139f960408e01613637565b9950613a0760608e01613637565b9850613a1560808e0161367b565b9750613a2360a08e01613647565b9650613a3160c08e01613647565b9550613a3f60e08e01613652565b94506101008d015193506101208d01519250613a5e6101408e01613652565b9150613a6d6101608e01613652565b90509295989b509295989b509295989b565b6001600160a01b03169052565b6000815180845260208085019450808401835b83811015613abb57815187529582019590820190600101613a9f565b509495945050505050565b76020b1b1b2b9b9a1b7b73a3937b61d1030b1b1b7bab73a1604d1b815260008351613af881601785016020880161416f565b7001034b99036b4b9b9b4b733903937b6329607d1b6017918401918201528351613b2981602884016020880161416f565b01602801949350505050565b6001600160a01b0391909116815260200190565b6001600160a01b0392831681529116602082015260400190565b6001600160a01b0393841681529183166020830152909116604082015260600190565b6001600160a01b03938416815291909216602082015262ffffff909116604082015260600190565b6001600160a01b03929092168252602082015260400190565b6020815260008251806020840152613be681604085016020870161416f565b601f01601f19169190910160400192915050565b6020808252601390820152725661756c743a207a65726f206164647265737360681b604082015260600190565b60208082526022908201527f41636365737369626c653a2043616c6c6572206973206e6f7420616e2061646d60408201526134b760f11b606082015260800190565b60208082526018908201527741636365737369626c653a207a65726f206164647265737360401b604082015260600190565b602080825260149082015273125d081a5cc81b9bdd081b5a5b9d1959081e595d60621b604082015260600190565b60208082526028908201527f41636365737369626c653a2043616c6c6572206973206e6f7420616e2070726f6040820152673c3c9030b236b4b760c11b606082015260800190565b60208082526016908201527520b1b1b2b9b9b4b136329d1039b0b6b29030b236b4b760511b604082015260600190565b6020808252601e908201527f5661756c743a206e6f7420726561647920746f20437265617465506f6f6c0000604082015260600190565b60208082526017908201527618985b185b98d9481a5cc81a5b9cdd59999a58da595b9d604a1b604082015260600190565b60208082526018908201527705661756c743a206265666f726520736574556e69737761760441b604082015260600190565b60208082526022908201527f5661756c743a20616c726561647920726561647920746f20437265617465506f6040820152611bdb60f21b606082015260800190565b6020808252601f908201527f5265656e7472616e637947756172643a207265656e7472616e742063616c6c00604082015260600190565b600061016082019050613e68828451613a7f565b6020830151613e7a6020840182613a7f565b506040830151613e91604084018262ffffff169052565b506060830151613ea6606084018260020b9052565b506080830151613ebb608084018260020b9052565b5060a083015160a083015260c083015160c083015260e083015160e083015261010080840151818401525061012080840151613ef982850182613a7f565b505061014092830151919092015290565b848152608060208201526000613f236080830186613a8c565b8281036040840152613f358186613a8c565b91505082606083015295945050505050565b600080821280156001600160ff1b0384900385131615613f6957613f69614240565b600160ff1b8390038412811615613f8257613f82614240565b50500190565b60008219821115613f9b57613f9b614240565b500190565b60008160020b8360020b80613fb757613fb7614256565b627fffff19821460001982141615613fd157613fd1614240565b90059392505050565b600082613fe957613fe9614256565b500490565b60008160020b8360020b627fffff8382138484138383048511828216161561401857614018614240565b627fffff198685128281168783058712161561403657614036614240565b87871292508582058712848416161561405157614051614240565b8585058712818416161561406757614067614240565b5050509290910295945050505050565b60006001600160ff1b038184138284138082168684048611161561409d5761409d614240565b600160ff1b848712828116878305891216156140bb576140bb614240565b8587129250878205871284841616156140d6576140d6614240565b878505871281841616156140ec576140ec614240565b505050929093029392505050565b600081600019048311821515161561411457614114614240565b500290565b60008083128015600160ff1b85018412161561413757614137614240565b6001600160ff1b038401831381161561415257614152614240565b50500390565b60008282101561416a5761416a614240565b500390565b60005b8381101561418a578181015183820152602001614172565b83811115614199576000848401525b50505050565b6000816141ae576141ae614240565b506000190190565b600181811c908216806141ca57607f821691505b602082108114156141eb57634e487b7160e01b600052602260045260246000fd5b50919050565b60008261420057614200614256565b500690565b60008160020b627fffff1981141561421f5761421f614240565b9003919050565b6000600160ff1b82141561423c5761423c614240565b0390565b634e487b7160e01b600052601160045260246000fd5b634e487b7160e01b600052601260045260246000fd5b6001600160a01b0381168114610fff57600080fd5b8015158114610fff57600080fd5b8060020b8114610fff57600080fd5b62ffffff81168114610fff57600080fdfe52eafc11f6f81f86878bffd31109a0d92f37506527754f00788853ff9f63b130a2646970667358221220a7f45e37a9d65f66fce4df2fc2059e4ecb0ad02e217d149003293092acc86ef164736f6c63430008040033",
  "linkReferences": {},
  "deployedLinkReferences": {}
}