{
  "_format": "hh-sol-artifact-1",
  "contractName": "LiquidityVaultFactory",
  "sourceName": "contracts/LiquidityVaultFactory.sol",
  "abi": [
    {
      "anonymous": false,
      "inputs": [
        {
          "indexed": false,
          "internalType": "address",
          "name": "contractAddress",
          "type": "address"
        },
        {
          "indexed": false,
          "internalType": "string",
          "name": "name",
          "type": "string"
        }
      ],
      "name": "CreatedLiquidityVault",
      "type": "event"
    },
    {
      "anonymous": false,
      "inputs": [
        {
          "indexed": true,
          "internalType": "bytes32",
          "name": "role",
          "type": "bytes32"
        },
        {
          "indexed": true,
          "internalType": "bytes32",
          "name": "previousAdminRole",
          "type": "bytes32"
        },
        {
          "indexed": true,
          "internalType": "bytes32",
          "name": "newAdminRole",
          "type": "bytes32"
        }
      ],
      "name": "RoleAdminChanged",
      "type": "event"
    },
    {
      "anonymous": false,
      "inputs": [
        {
          "indexed": true,
          "internalType": "bytes32",
          "name": "role",
          "type": "bytes32"
        },
        {
          "indexed": true,
          "internalType": "address",
          "name": "account",
          "type": "address"
        },
        {
          "indexed": true,
          "internalType": "address",
          "name": "sender",
          "type": "address"
        }
      ],
      "name": "RoleGranted",
      "type": "event"
    },
    {
      "anonymous": false,
      "inputs": [
        {
          "indexed": true,
          "internalType": "bytes32",
          "name": "role",
          "type": "bytes32"
        },
        {
          "indexed": true,
          "internalType": "address",
          "name": "account",
          "type": "address"
        },
        {
          "indexed": true,
          "internalType": "address",
          "name": "sender",
          "type": "address"
        }
      ],
      "name": "RoleRevoked",
      "type": "event"
    },
    {
      "inputs": [],
      "name": "ADMIN_ROLE",
      "outputs": [
        {
          "internalType": "bytes32",
          "name": "",
          "type": "bytes32"
        }
      ],
      "stateMutability": "view",
      "type": "function"
    },
    {
      "inputs": [],
      "name": "BURNER_ROLE",
      "outputs": [
        {
          "internalType": "bytes32",
          "name": "",
          "type": "bytes32"
        }
      ],
      "stateMutability": "view",
      "type": "function"
    },
    {
      "inputs": [],
      "name": "CLAIMER_ROLE",
      "outputs": [
        {
          "internalType": "bytes32",
          "name": "",
          "type": "bytes32"
        }
      ],
      "stateMutability": "view",
      "type": "function"
    },
    {
      "inputs": [],
      "name": "DEFAULT_ADMIN_ROLE",
      "outputs": [
        {
          "internalType": "bytes32",
          "name": "",
          "type": "bytes32"
        }
      ],
      "stateMutability": "view",
      "type": "function"
    },
    {
      "inputs": [],
      "name": "MINTER_ROLE",
      "outputs": [
        {
          "internalType": "bytes32",
          "name": "",
          "type": "bytes32"
        }
      ],
      "stateMutability": "view",
      "type": "function"
    },
    {
      "inputs": [
        {
          "internalType": "address",
          "name": "account",
          "type": "address"
        }
      ],
      "name": "addAdmin",
      "outputs": [],
      "stateMutability": "nonpayable",
      "type": "function"
    },
    {
      "inputs": [
        {
          "internalType": "string",
          "name": "_name",
          "type": "string"
        },
        {
          "internalType": "address",
          "name": "_token",
          "type": "address"
        },
        {
          "internalType": "address",
          "name": "_admin",
          "type": "address"
        },
        {
          "internalType": "uint256",
          "name": "tosPrice",
          "type": "uint256"
        },
        {
          "internalType": "uint256",
          "name": "tokenPrice",
          "type": "uint256"
        }
      ],
      "name": "create",
      "outputs": [
        {
          "internalType": "address",
          "name": "",
          "type": "address"
        }
      ],
      "stateMutability": "nonpayable",
      "type": "function"
    },
    {
      "inputs": [
        {
          "internalType": "uint256",
          "name": "",
          "type": "uint256"
        }
      ],
      "name": "createdContracts",
      "outputs": [
        {
          "internalType": "address",
          "name": "contractAddress",
          "type": "address"
        },
        {
          "internalType": "string",
          "name": "name",
          "type": "string"
        }
      ],
      "stateMutability": "view",
      "type": "function"
    },
    {
      "inputs": [],
      "name": "fee",
      "outputs": [
        {
          "internalType": "uint24",
          "name": "",
          "type": "uint24"
        }
      ],
      "stateMutability": "view",
      "type": "function"
    },
    {
      "inputs": [
        {
          "internalType": "uint256",
          "name": "_index",
          "type": "uint256"
        }
      ],
      "name": "getContracts",
      "outputs": [
        {
          "internalType": "address",
          "name": "contractAddress",
          "type": "address"
        },
        {
          "internalType": "string",
          "name": "name",
          "type": "string"
        }
      ],
      "stateMutability": "view",
      "type": "function"
    },
    {
      "inputs": [
        {
          "internalType": "bytes32",
          "name": "role",
          "type": "bytes32"
        }
      ],
      "name": "getRoleAdmin",
      "outputs": [
        {
          "internalType": "bytes32",
          "name": "",
          "type": "bytes32"
        }
      ],
      "stateMutability": "view",
      "type": "function"
    },
    {
      "inputs": [
        {
          "internalType": "bytes32",
          "name": "role",
          "type": "bytes32"
        },
        {
          "internalType": "address",
          "name": "account",
          "type": "address"
        }
      ],
      "name": "grantRole",
      "outputs": [],
      "stateMutability": "nonpayable",
      "type": "function"
    },
    {
      "inputs": [
        {
          "internalType": "bytes32",
          "name": "role",
          "type": "bytes32"
        },
        {
          "internalType": "address",
          "name": "account",
          "type": "address"
        }
      ],
      "name": "hasRole",
      "outputs": [
        {
          "internalType": "bool",
          "name": "",
          "type": "bool"
        }
      ],
      "stateMutability": "view",
      "type": "function"
    },
    {
      "inputs": [
        {
          "internalType": "address",
          "name": "account",
          "type": "address"
        }
      ],
      "name": "isAdmin",
      "outputs": [
        {
          "internalType": "bool",
          "name": "",
          "type": "bool"
        }
      ],
      "stateMutability": "view",
      "type": "function"
    },
    {
      "inputs": [],
      "name": "lastestCreated",
      "outputs": [
        {
          "internalType": "address",
          "name": "contractAddress",
          "type": "address"
        },
        {
          "internalType": "string",
          "name": "name",
          "type": "string"
        }
      ],
      "stateMutability": "view",
      "type": "function"
    },
    {
      "inputs": [],
      "name": "logEventAddress",
      "outputs": [
        {
          "internalType": "address",
          "name": "",
          "type": "address"
        }
      ],
      "stateMutability": "view",
      "type": "function"
    },
    {
      "inputs": [],
      "name": "nonfungiblePositionManager",
      "outputs": [
        {
          "internalType": "address",
          "name": "",
          "type": "address"
        }
      ],
      "stateMutability": "view",
      "type": "function"
    },
    {
      "inputs": [
        {
          "internalType": "address",
          "name": "account",
          "type": "address"
        }
      ],
      "name": "removeAdmin",
      "outputs": [],
      "stateMutability": "nonpayable",
      "type": "function"
    },
    {
      "inputs": [
        {
          "internalType": "bytes32",
          "name": "role",
          "type": "bytes32"
        },
        {
          "internalType": "address",
          "name": "account",
          "type": "address"
        }
      ],
      "name": "renounceRole",
      "outputs": [],
      "stateMutability": "nonpayable",
      "type": "function"
    },
    {
      "inputs": [
        {
          "internalType": "bytes32",
          "name": "role",
          "type": "bytes32"
        },
        {
          "internalType": "address",
          "name": "account",
          "type": "address"
        }
      ],
      "name": "revokeRole",
      "outputs": [],
      "stateMutability": "nonpayable",
      "type": "function"
    },
    {
      "inputs": [
        {
          "internalType": "address",
          "name": "addr",
          "type": "address"
        }
      ],
      "name": "setLogEventAddress",
      "outputs": [],
      "stateMutability": "nonpayable",
      "type": "function"
    },
    {
      "inputs": [
        {
          "internalType": "address",
          "name": "_logic",
          "type": "address"
        }
      ],
      "name": "setLogic",
      "outputs": [],
      "stateMutability": "nonpayable",
      "type": "function"
    },
    {
      "inputs": [
        {
          "internalType": "address[3]",
          "name": "addrs",
          "type": "address[3]"
        },
        {
          "internalType": "address[3]",
          "name": "pools",
          "type": "address[3]"
        },
        {
          "internalType": "address[2]",
          "name": "tokens",
          "type": "address[2]"
        },
        {
          "internalType": "uint24",
          "name": "_fee",
          "type": "uint24"
        }
      ],
      "name": "setUniswapInfoNTokens",
      "outputs": [],
      "stateMutability": "nonpayable",
      "type": "function"
    },
    {
      "inputs": [
        {
          "internalType": "address",
          "name": "addr",
          "type": "address"
        }
      ],
      "name": "setUpgradeAdmin",
      "outputs": [],
      "stateMutability": "nonpayable",
      "type": "function"
    },
    {
      "inputs": [
        {
          "internalType": "bytes4",
          "name": "interfaceId",
          "type": "bytes4"
        }
      ],
      "name": "supportsInterface",
      "outputs": [
        {
          "internalType": "bool",
          "name": "",
          "type": "bool"
        }
      ],
      "stateMutability": "view",
      "type": "function"
    },
    {
      "inputs": [],
      "name": "swapRouter",
      "outputs": [
        {
          "internalType": "address",
          "name": "",
          "type": "address"
        }
      ],
      "stateMutability": "view",
      "type": "function"
    },
    {
      "inputs": [],
      "name": "tos",
      "outputs": [
        {
          "internalType": "address",
          "name": "",
          "type": "address"
        }
      ],
      "stateMutability": "view",
      "type": "function"
    },
    {
      "inputs": [],
      "name": "totalCreatedContracts",
      "outputs": [
        {
          "internalType": "uint256",
          "name": "",
          "type": "uint256"
        }
      ],
      "stateMutability": "view",
      "type": "function"
    },
    {
      "inputs": [
        {
          "internalType": "address",
          "name": "newAdmin",
          "type": "address"
        }
      ],
      "name": "transferAdmin",
      "outputs": [],
      "stateMutability": "nonpayable",
      "type": "function"
    },
    {
      "inputs": [],
      "name": "uniswapV3Factory",
      "outputs": [
        {
          "internalType": "address",
          "name": "",
          "type": "address"
        }
      ],
      "stateMutability": "view",
      "type": "function"
    },
    {
      "inputs": [],
      "name": "upgradeAdmin",
      "outputs": [
        {
          "internalType": "address",
          "name": "",
          "type": "address"
        }
      ],
      "stateMutability": "view",
      "type": "function"
    },
    {
      "inputs": [
        {
          "internalType": "address",
          "name": "_contract",
          "type": "address"
        },
        {
          "internalType": "bytes4[]",
          "name": "_selectors",
          "type": "bytes4[]"
        },
        {
          "internalType": "address",
          "name": "_imp",
          "type": "address"
        }
      ],
      "name": "upgradeContractFunction",
      "outputs": [],
      "stateMutability": "nonpayable",
      "type": "function"
    },
    {
      "inputs": [
        {
          "internalType": "address",
          "name": "_contract",
          "type": "address"
        },
        {
          "internalType": "address",
          "name": "_logic",
          "type": "address"
        },
        {
          "internalType": "uint256",
          "name": "_index",
          "type": "uint256"
        },
        {
          "internalType": "bool",
          "name": "_alive",
          "type": "bool"
        }
      ],
      "name": "upgradeContractLogic",
      "outputs": [],
      "stateMutability": "nonpayable",
      "type": "function"
    },
    {
      "inputs": [],
      "name": "vaultLogic",
      "outputs": [
        {
          "internalType": "address",
          "name": "",
          "type": "address"
        }
      ],
      "stateMutability": "view",
      "type": "function"
    },
    {
      "inputs": [],
      "name": "wethUsdcPool",
      "outputs": [
        {
          "internalType": "address",
          "name": "",
          "type": "address"
        }
      ],
      "stateMutability": "view",
      "type": "function"
    },
    {
      "inputs": [],
      "name": "wton",
      "outputs": [
        {
          "internalType": "address",
          "name": "",
          "type": "address"
        }
      ],
      "stateMutability": "view",
      "type": "function"
    },
    {
      "inputs": [],
      "name": "wtonTosPool",
      "outputs": [
        {
          "internalType": "address",
          "name": "",
          "type": "address"
        }
      ],
      "stateMutability": "view",
      "type": "function"
    },
    {
      "inputs": [],
      "name": "wtonWethPool",
      "outputs": [
        {
          "internalType": "address",
          "name": "",
          "type": "address"
        }
      ],
      "stateMutability": "view",
      "type": "function"
    }
  ],
  "bytecode": "0x60806040523480156200001157600080fd5b5060006001556200003260008051602062004ab58339815191528062000065565b6200004d60008051602062004ab583398151915233620000b0565b600380546001600160a01b0319163317905562000160565b600082815260208190526040808220600101805490849055905190918391839186917fbd79b86ffe0ab8e8776151514217cd7cacd52c909f66475c3af44e129f0b00ff9190a4505050565b620000bc8282620000c0565b5050565b6000828152602081815260408083206001600160a01b038516845290915290205460ff16620000bc576000828152602081815260408083206001600160a01b03851684529091529020805460ff191660011790556200011c3390565b6001600160a01b0316816001600160a01b0316837f2f8788117e7eff1d82e926ec794901d17c78024a50270940304540a733656f0d60405160405180910390a45050565b61494580620001706000396000f3fe60806040523480156200001157600080fd5b50600436106200021d5760003560e01c806389f395de1162000127578063bda5b5d411620000b6578063bda5b5d414620004d8578063c31c9c0714620004ef578063c4d5608a1462000503578063d05261871462000517578063d53913931462000521578063d547741f1462000549578063ddca3f431462000560578063e33e4cd9146200058c578063eab73ca114620005a3578063fc5f18d314620005b757600080fd5b806389f395de14620004265780638d62d949146200043a57806391d14854146200044e5780639342f4171462000465578063a217fddf146200047c578063a9589a641462000485578063b078147a1462000499578063b44a272214620004ad578063b4d4028014620004c157600080fd5b806336568abe11620001b057806336568abe1462000346578063439e23fd146200035d5780635b5491821462000374578063646d6ec2146200038857806367c5f8de146200039c5780637048027514620003b35780637185700014620003ca57806375829def14620003e157806375b238fc14620003f85780637e2826f6146200040f57600080fd5b806301ffc9a7146200022257806306bf6161146200024e5780630881139714620002715780631785f53c1462000298578063248a9ca314620002b157806324d7806c14620002e6578063282c51f314620002fd5780632f2ff15d1462000325578063338bad5f146200033c575b600080fd5b620002396200023336600462001e84565b620005df565b60405190151581526020015b60405180910390f35b600a5462000262906001600160a01b031681565b60405162000245919062002013565b620002886200028236600462001e3d565b62000617565b604051620002459291906200209d565b620002af620002a936600462001ccd565b620006ce565b005b620002d7620002c236600462001e3d565b60009081526020819052604090206001015490565b60405190815260200162000245565b62000239620002f736600462001ccd565b6200071f565b620002d77f9667e80708b6eeeb0053fa0cca44e028ff548e2a9f029edfeac87c118b08b7c881565b620002af6200033636600462001e56565b6200073c565b620002886200076b565b620002af6200035736600462001e56565b62000884565b620002886200036e36600462001e3d565b62000906565b60065462000262906001600160a01b031681565b60095462000262906001600160a01b031681565b620002af620003ad36600462001cea565b620009ec565b620002af620003c436600462001ccd565b62000aad565b620002af620003db36600462001ccd565b62000af2565b620002af620003f236600462001ccd565b62000bc4565b620002d7600080516020620048f083398151915281565b620002af6200042036600462001ccd565b62000ccb565b600d5462000262906001600160a01b031681565b600c5462000262906001600160a01b031681565b620002396200045f36600462001e56565b62000d73565b620002af6200047636600462001ccd565b62000d9c565b620002d7600081565b600b5462000262906001600160a01b031681565b60045462000262906001600160a01b031681565b60075462000262906001600160a01b031681565b620002af620004d236600462001d42565b62000e44565b62000262620004e936600462001ea1565b62000eca565b60085462000262906001600160a01b031681565b60035462000262906001600160a01b031681565b620002d760015481565b620002d77ff0887ba65ee2024ea881d91b74c2450ef19e1557f03bed3ea9f16b037cbe2dc981565b620002af6200055a36600462001e56565b620014aa565b600d546200057790600160a01b900462ffffff1681565b60405162ffffff909116815260200162000245565b620002af6200059d36600462001ddd565b620014d4565b60055462000262906001600160a01b031681565b620002d77fe5667d34d7ea8d6fdb3aa71a0a5b85e4cf7f68356dd003cd638556b0eea2bce581565b60006001600160e01b03198216637965db0b60e01b14806200061157506301ffc9a760e01b6001600160e01b03198316145b92915050565b600260205260009081526040902080546001820180546001600160a01b0390921692916200064590620022c0565b80601f01602080910402602001604051908101604052809291908181526020018280546200067390620022c0565b8015620006c45780601f106200069857610100808354040283529160200191620006c4565b820191906000526020600020905b815481529060010190602001808311620006a657829003601f168201915b5050505050905082565b620006d9336200071f565b620007015760405162461bcd60e51b8152600401620006f890620021da565b60405180910390fd5b6200071c600080516020620048f08339815191528262000884565b50565b600062000611600080516020620048f08339815191528362000d73565b6000828152602081905260409020600101546200075a813362001875565b620007668383620018e4565b505050565b60006060600060015411156200086f5760026000600180546200078f919062002259565b81526020810191909152604001600090812054600180546001600160a01b03909216926002929091620007c29162002259565b8152602001908152602001600020600101808054620007e190620022c0565b80601f01602080910402602001604051908101604052809291908181526020018280546200080f90620022c0565b8015620008605780601f10620008345761010080835404028352916020019162000860565b820191906000526020600020905b8154815290600101906020018083116200084257829003601f168201915b50505050509050915091509091565b50506040805160208101909152600080825291565b6001600160a01b0381163314620008f65760405162461bcd60e51b815260206004820152602f60248201527f416363657373436f6e74726f6c3a2063616e206f6e6c792072656e6f756e636560448201526e103937b632b9903337b91039b2b63360891b6064820152608401620006f8565b6200090282826200196c565b5050565b60006060600154831015620009d45760008381526002602052604090208054600190910180546001600160a01b039092169181906200094590620022c0565b80601f01602080910402602001604051908101604052809291908181526020018280546200097390620022c0565b8015620009c45780601f106200099857610100808354040283529160200191620009c4565b820191906000526020600020905b815481529060010190602001808311620009a657829003601f168201915b5050505050905091509150915091565b50506040805160208101909152600080825292909150565b620009f7336200071f565b62000a165760405162461bcd60e51b8152600401620006f890620021da565b836001600160a01b03811662000a405760405162461bcd60e51b8152600401620006f890620021ae565b604051637cd5f66360e01b81526001600160a01b03861690637cd5f6639062000a72908790879087906004016200204a565b600060405180830381600087803b15801562000a8d57600080fd5b505af115801562000aa2573d6000803e3d6000fd5b505050505050505050565b62000ab8336200071f565b62000ad75760405162461bcd60e51b8152600401620006f890620021da565b6200071c600080516020620048f0833981519152826200073c565b806001600160a01b03811662000b1c5760405162461bcd60e51b8152600401620006f890620021ae565b62000b27336200071f565b62000b465760405162461bcd60e51b8152600401620006f890620021da565b6004546001600160a01b038381169116141562000ba15760405162461bcd60e51b815260206004820152601860248201527730b63932b0b23c9039b2ba103a3434b9903b32b939b4b7b760411b6044820152606401620006f8565b50600480546001600160a01b0319166001600160a01b0392909216919091179055565b62000bcf336200071f565b62000bee5760405162461bcd60e51b8152600401620006f890620021da565b6001600160a01b03811662000c415760405162461bcd60e51b815260206004820152601860248201527741636365737369626c653a207a65726f206164647265737360401b6044820152606401620006f8565b336001600160a01b038216141562000c955760405162461bcd60e51b815260206004820152601660248201527520b1b1b2b9b9b4b136329d1039b0b6b29030b236b4b760511b6044820152606401620006f8565b62000cb0600080516020620048f0833981519152826200073c565b6200071c600080516020620048f08339815191523362000884565b62000cd6336200071f565b62000cf55760405162461bcd60e51b8152600401620006f890620021da565b806001600160a01b03811662000d1f5760405162461bcd60e51b8152600401620006f890620021ae565b6005546001600160a01b038381169116141562000d505760405162461bcd60e51b8152600401620006f8906200218a565b50600580546001600160a01b0319166001600160a01b0392909216919091179055565b6000918252602082815260408084206001600160a01b0393909316845291905290205460ff1690565b62000da7336200071f565b62000dc65760405162461bcd60e51b8152600401620006f890620021da565b806001600160a01b03811662000df05760405162461bcd60e51b8152600401620006f890620021ae565b6003546001600160a01b038381169116141562000e215760405162461bcd60e51b8152600401620006f8906200218a565b50600380546001600160a01b0319166001600160a01b0392909216919091179055565b62000e4f336200071f565b62000e6e5760405162461bcd60e51b8152600401620006f890620021da565b836001600160a01b03811662000e985760405162461bcd60e51b8152600401620006f890620021ae565b604051634a5df50f60e01b81526001600160a01b03861690634a5df50f9062000a7290879087908790600401620020cb565b6004546000906001600160a01b03168062000ef95760405162461bcd60e51b8152600401620006f890620021ae565b6003546001600160a01b03168062000f255760405162461bcd60e51b8152600401620006f890620021ae565b8762000f645760405162461bcd60e51b815260206004820152600d60248201526c6e616d6520697320656d70747960981b6044820152606401620006f8565b600060405162000f749062001bd1565b604051809103906000f08015801562000f91573d6000803e3d6000fd5b5090506001600160a01b03811662000fe75760405162461bcd60e51b81526020600482015260186024820152774c69717569646974795661756c7450726f7879207a65726f60401b6044820152606401620006f8565b6003546040516325bc555f60e21b81526001600160a01b03838116926396f1557c926200101b929091169060040162002013565b600060405180830381600087803b1580156200103657600080fd5b505af11580156200104b573d6000803e3d6000fd5b5050600354604051637048027560e01b81526001600160a01b038086169450637048027593506200108192169060040162002013565b600060405180830381600087803b1580156200109c57600080fd5b505af1158015620010b1573d6000803e3d6000fd5b505060048054604051637cd5f66360e01b81526001600160a01b038087169550637cd5f6639450620010ed93921691600091600191016200204a565b600060405180830381600087803b1580156200110857600080fd5b505af11580156200111d573d6000803e3d6000fd5b5050600554604051630b8717f760e11b81526001600160a01b03918216600482015260016024820152908416925063170e2fee9150604401600060405180830381600087803b1580156200117057600080fd5b505af115801562001185573d6000803e3d6000fd5b505060405163ce0c4c5160e01b81526001600160a01b038416925063ce0c4c519150620011c1908d908d908d908d908d908d9060040162002131565b600060405180830381600087803b158015620011dc57600080fd5b505af1158015620011f1573d6000803e3d6000fd5b5050600654600754600854604051631ddfc2ff60e01b81526001600160a01b038088169650631ddfc2ff95506200123394811693811692169060040162002027565b600060405180830381600087803b1580156200124e57600080fd5b505af115801562001263573d6000803e3d6000fd5b5050600954600a54600b546040516317690e7960e11b81526001600160a01b038088169650632ed21cf29550620012a594811693811692169060040162002027565b600060405180830381600087803b158015620012c057600080fd5b505af1158015620012d5573d6000803e3d6000fd5b5050600c54600d54604051635415e9df60e01b81526001600160a01b0392831660048201528282166024820152600160a01b90910462ffffff1660448201529084169250635415e9df9150606401600060405180830381600087803b1580156200133e57600080fd5b505af115801562001353573d6000803e3d6000fd5b50505050806001600160a01b0316639a202d476040518163ffffffff1660e01b8152600401600060405180830381600087803b1580156200139357600080fd5b505af1158015620013a8573d6000803e3d6000fd5b505050506040518060400160405280826001600160a01b031681526020018b8b8080601f0160208091040260200160405190810160405280939291908181526020018383808284376000920182905250939094525050600180548252600260209081526040909220845181546001600160a01b0319166001600160a01b03909116178155848301518051919450620014469392850192019062001bdf565b505060018054915060006200145b83620022fd565b91905055507fb6432eabc510800fdb4321bc36391f9a61600adba2679df1874ffb6fe141aaae818b8b60405162001495939291906200206d565b60405180910390a19998505050505050505050565b600082815260208190526040902060010154620014c8813362001875565b6200076683836200196c565b620014df336200071f565b620014fe5760405162461bcd60e51b8152600401620006f890620021da565b6200150d602085018562001ccd565b6001600160a01b038116620015365760405162461bcd60e51b8152600401620006f890620021ae565b62001548604086016020870162001ccd565b6001600160a01b038116620015715760405162461bcd60e51b8152600401620006f890620021ae565b62001583606087016040880162001ccd565b6001600160a01b038116620015ac5760405162461bcd60e51b8152600401620006f890620021ae565b620015bb602087018762001ccd565b6001600160a01b038116620015e45760405162461bcd60e51b8152600401620006f890620021ae565b620015f6604088016020890162001ccd565b6001600160a01b0381166200161f5760405162461bcd60e51b8152600401620006f890620021ae565b620016316060890160408a0162001ccd565b6001600160a01b0381166200165a5760405162461bcd60e51b8152600401620006f890620021ae565b62001669602089018962001ccd565b6001600160a01b038116620016925760405162461bcd60e51b8152600401620006f890620021ae565b620016a460408a0160208b0162001ccd565b6001600160a01b038116620016cd5760405162461bcd60e51b8152600401620006f890620021ae565b620016dc60208d018d62001ccd565b600680546001600160a01b0319166001600160a01b03929092169190911790556200170e60408d0160208e0162001ccd565b600780546001600160a01b0319166001600160a01b03929092169190911790556200174060608d0160408e0162001ccd565b600880546001600160a01b0319166001600160a01b03929092169190911790556200176f60208c018c62001ccd565b600980546001600160a01b0319166001600160a01b0392909216919091179055620017a160408c0160208d0162001ccd565b600a80546001600160a01b0319166001600160a01b0392909216919091179055620017d360608c0160408d0162001ccd565b600b80546001600160a01b0319166001600160a01b03929092169190911790556200180260208b018b62001ccd565b600c80546001600160a01b0319166001600160a01b03929092169190911790556200183460408b0160208c0162001ccd565b600d805462ffffff909b16600160a01b026001600160b81b0319909b166001600160a01b039290921691909117999099179098555050505050505050505050565b62001881828262000d73565b62000902576200189c816001600160a01b03166014620019d4565b620018a9836020620019d4565b604051602001620018bc92919062001fa0565b60408051601f198184030181529082905262461bcd60e51b8252620006f89160040162002175565b620018f0828262000d73565b62000902576000828152602081815260408083206001600160a01b03851684529091529020805460ff19166001179055620019283390565b6001600160a01b0316816001600160a01b0316837f2f8788117e7eff1d82e926ec794901d17c78024a50270940304540a733656f0d60405160405180910390a45050565b62001978828262000d73565b1562000902576000828152602081815260408083206001600160a01b0385168085529252808320805460ff1916905551339285917ff6391f5c32d9c69d2a47ea670b442974b53935d1edc7fd64eb21e047a839171b9190a45050565b60606000620019e583600262002237565b620019f29060026200221c565b67ffffffffffffffff81111562001a1957634e487b7160e01b600052604160045260246000fd5b6040519080825280601f01601f19166020018201604052801562001a44576020820181803683370190505b509050600360fc1b8160008151811062001a6e57634e487b7160e01b600052603260045260246000fd5b60200101906001600160f81b031916908160001a905350600f60fb1b8160018151811062001aac57634e487b7160e01b600052603260045260246000fd5b60200101906001600160f81b031916908160001a905350600062001ad284600262002237565b62001adf9060016200221c565b90505b600181111562001b79576f181899199a1a9b1b9c1cb0b131b232b360811b85600f166010811062001b2357634e487b7160e01b600052603260045260246000fd5b1a60f81b82828151811062001b4857634e487b7160e01b600052603260045260246000fd5b60200101906001600160f81b031916908160001a90535060049490941c9362001b7181620022a6565b905062001ae2565b50831562001bca5760405162461bcd60e51b815260206004820181905260248201527f537472696e67733a20686578206c656e67746820696e73756666696369656e746044820152606401620006f8565b9392505050565b6125be806200233283390190565b82805462001bed90620022c0565b90600052602060002090601f01602090048101928262001c11576000855562001c5c565b82601f1062001c2c57805160ff191683800117855562001c5c565b8280016001018555821562001c5c579182015b8281111562001c5c57825182559160200191906001019062001c3f565b5062001c6a92915062001c6e565b5090565b5b8082111562001c6a576000815560010162001c6f565b80356001600160a01b038116811462001c9d57600080fd5b919050565b80606081018310156200061157600080fd5b80356001600160e01b03198116811462001c9d57600080fd5b60006020828403121562001cdf578081fd5b62001bca8262001c85565b6000806000806080858703121562001d00578283fd5b62001d0b8562001c85565b935062001d1b6020860162001c85565b9250604085013591506060850135801515811462001d37578182fd5b939692955090935050565b6000806000806060858703121562001d58578384fd5b62001d638562001c85565b9350602085013567ffffffffffffffff8082111562001d80578485fd5b818701915087601f83011262001d94578485fd5b81358181111562001da3578586fd5b8860208260051b850101111562001db8578586fd5b60208301955080945050505062001dd26040860162001c85565b905092959194509250565b600080600080610120858703121562001df4578384fd5b62001e00868662001ca2565b935062001e11866060870162001ca2565b925061010085018681111562001e25578283fd5b60c0860192503562ffffff8116811462001d37578182fd5b60006020828403121562001e4f578081fd5b5035919050565b6000806040838503121562001e69578182fd5b8235915062001e7b6020840162001c85565b90509250929050565b60006020828403121562001e96578081fd5b62001bca8262001cb4565b60008060008060008060a0878903121562001eba578182fd5b863567ffffffffffffffff8082111562001ed2578384fd5b818901915089601f83011262001ee6578384fd5b81358181111562001ef5578485fd5b8a602082850101111562001f07578485fd5b60209283019850965062001f1f918901905062001c85565b935062001f2f6040880162001c85565b925060608701359150608087013590509295509295509295565b81835281816020850137506000828201602090810191909152601f909101601f19169091010190565b6000815180845262001f8c81602086016020860162002273565b601f01601f19169290920160200192915050565b76020b1b1b2b9b9a1b7b73a3937b61d1030b1b1b7bab73a1604d1b81526000835162001fd481601785016020880162002273565b7001034b99036b4b9b9b4b733903937b6329607d1b60179184019182015283516200200781602884016020880162002273565b01602801949350505050565b6001600160a01b0391909116815260200190565b6001600160a01b0393841681529183166020830152909116604082015260600190565b6001600160a01b0393909316835260208301919091521515604082015260600190565b6001600160a01b038416815260406020820181905260009062002094908301848662001f49565b95945050505050565b6001600160a01b0383168152604060208201819052600090620020c39083018462001f72565b949350505050565b6040808252810183905260008460608301825b8681101562002111576001600160e01b0319620020fb8462001cb4565b16825260209283019290910190600101620020de565b506001600160a01b03949094166020939093019290925250909392505050565b60a0815260006200214760a08301888a62001f49565b6001600160a01b03968716602084015294909516604082015260608101929092526080909101529392505050565b60208152600062001bca602083018462001f72565b6020808252600a908201526973616d6520616464727360b01b604082015260600190565b6020808252601290820152715661756c74466163746f72793a207a65726f60701b604082015260600190565b60208082526022908201527f41636365737369626c653a2043616c6c6572206973206e6f7420616e2061646d60408201526134b760f11b606082015260800190565b600082198211156200223257620022326200231b565b500190565b60008160001904831182151516156200225457620022546200231b565b500290565b6000828210156200226e576200226e6200231b565b500390565b60005b838110156200229057818101518382015260200162002276565b83811115620022a0576000848401525b50505050565b600081620022b857620022b86200231b565b506000190190565b600181811c90821680620022d557607f821691505b60208210811415620022f757634e487b7160e01b600052602260045260246000fd5b50919050565b60006000198214156200231457620023146200231b565b5060010190565b634e487b7160e01b600052601160045260246000fdfe608060405260006015553480156200001657600080fd5b506001600055620000487f52eafc11f6f81f86878bffd31109a0d92f37506527754f00788853ff9f63b1308062000087565b620000747f52eafc11f6f81f86878bffd31109a0d92f37506527754f00788853ff9f63b13033620000d2565b62000081600033620000d2565b62000186565b6000828152601e6020526040808220600101805490849055905190918391839186917fbd79b86ffe0ab8e8776151514217cd7cacd52c909f66475c3af44e129f0b00ff9190a4505050565b620000de8282620000e2565b5050565b6000828152601e602090815260408083206001600160a01b038516845290915290205460ff16620000de576000828152601e602090815260408083206001600160a01b03851684529091529020805460ff19166001179055620001423390565b6001600160a01b0316816001600160a01b0316837f2f8788117e7eff1d82e926ec794901d17c78024a50270940304540a733656f0d60405160405180910390a45050565b61242880620001966000396000f3fe6080604052600436106102f65760003560e01c80636befec3f11610197578063b911135f116100ed578063d7cb416f11610090578063d7cb416f14610a1a578063ddca3f4314610a3a578063eab73ca114610a71578063eb582d1314610a96578063ed5131f514610ab6578063f47f2f1d14610ad6578063f864640814610af6578063fc0c546a14610b165761033f565b8063b911135f14610919578063be72f2d31461094f578063bf64232214610964578063ce0c4c5114610984578063cfc412be146109a4578063d547741f146109ba578063d58778d6146109da578063d61f78a9146109fa5761033f565b80636befec3f1461074f578063704802751461076f57806375829def1461078f5780637cb00d25146107af5780637cd5f663146107cf5780637ff36fbe146107ef57806381f41eb21461080f5780638356ca4f1461082f5780638b8f4a651461084f5780638d4fdb401461086f57806391d148541461088f57806396f1557c146108af5780639a202d47146108cf578063a217fddf146108e4578063b4cded81146108f95761033f565b80632f2ff15d1161024c5780632f2ff15d1461054957806334b38cc31461056957806336568abe1461058e5780633659cfe6146105ae57806341c04d5e146105ce5780634a5df50f146105f05780634dc32eff1461061057806350d2a27614610630578063526aef9414610666578063550d01a31461069a57806355640008146106ca5780635c60da1b146106e05780635cc797d8146106f557806363a8fd89146107155780636b9671461461072f5761033f565b806301ffc9a7146103495780630284ec8f1461037e5780630411b9491461039f57806306fdde03146103d75780630a59fa08146103f95780630a6aae11146104135780630f4388c014610437578063117ab8741461045757806316f0115b1461046d578063170e2fee1461048d57806318a723db146104ad578063248a9ca3146104cd57806324d7806c146104fd578063256019d61461051d5780632ca0228a146105335761033f565b3661033f5760405162461bcd60e51b815260206004820152601460248201527331b0b73737ba103932b1b2b4bb329022ba3432b960611b60448201526064015b60405180910390fd5b610347610b36565b005b34801561035557600080fd5b50610369610364366004611fca565b610bdf565b60405190151581526020015b60405180910390f35b34801561038a57600080fd5b50600f5461036990600160b81b900460ff1681565b3480156103ab57600080fd5b506007546103bf906001600160a01b031681565b6040516001600160a01b039091168152602001610375565b3480156103e357600080fd5b506103ec610c16565b604051610375919061217a565b34801561040557600080fd5b50601d546103699060ff1681565b34801561041f57600080fd5b50610429600d5481565b604051908152602001610375565b34801561044357600080fd5b50610429610452366004611f90565b610ca4565b34801561046357600080fd5b5061042960155481565b34801561047957600080fd5b50600a546103bf906001600160a01b031681565b34801561049957600080fd5b506103476104a8366004611e93565b610cc5565b3480156104b957600080fd5b506005546103bf906001600160a01b031681565b3480156104d957600080fd5b506104296104e8366004611f90565b6000908152601e602052604090206001015490565b34801561050957600080fd5b50610369610518366004611e79565b610d9e565b34801561052957600080fd5b5061042960145481565b34801561053f57600080fd5b50610429600e5481565b34801561055557600080fd5b50610347610564366004611fa8565b610db8565b34801561057557600080fd5b5061057e610dde565b6040516103759493929190612299565b34801561059a57600080fd5b506103476105a9366004611fa8565b610ea1565b3480156105ba57600080fd5b506103476105c9366004611e79565b610f1b565b3480156105da57600080fd5b506104296000805160206123d383398151915281565b3480156105fc57600080fd5b5061034761060b366004611f00565b611021565b34801561061c57600080fd5b506009546103bf906001600160a01b031681565b34801561063c57600080fd5b506103bf61064b366004611fca565b601c602052600090815260409020546001600160a01b031681565b34801561067257600080fd5b50600f5461068790600160a01b900460020b81565b60405160029190910b8152602001610375565b3480156106a657600080fd5b506103696106b5366004611e79565b601b6020526000908152604090205460ff1681565b3480156106d657600080fd5b5061042960135481565b3480156106ec57600080fd5b506103bf6112a9565b34801561070157600080fd5b50610347610710366004611e93565b6112ba565b34801561072157600080fd5b506019546103699060ff1681565b34801561073b57600080fd5b506006546103bf906001600160a01b031681565b34801561075b57600080fd5b5061034761076a366004611f76565b6112e9565b34801561077b57600080fd5b5061034761078a366004611e79565b6113c1565b34801561079b57600080fd5b506103476107aa366004611e79565b611401565b3480156107bb57600080fd5b506103476107ca366004611f76565b6114b4565b3480156107db57600080fd5b506103476107ea366004611ec5565b6114fb565b3480156107fb57600080fd5b50600b546103bf906001600160a01b031681565b34801561081b57600080fd5b50600f546103bf906001600160a01b031681565b34801561083b57600080fd5b5061034761084a366004611e79565b61152b565b34801561085b57600080fd5b506103bf61086a366004611f90565b6115b5565b34801561087b57600080fd5b506103bf61088a366004611fca565b6115c0565b34801561089b57600080fd5b506103696108aa366004611fa8565b6116bc565b3480156108bb57600080fd5b506103476108ca366004611e79565b6116e7565b3480156108db57600080fd5b50610347611717565b3480156108f057600080fd5b50610429600081565b34801561090557600080fd5b50610429610914366004611f90565b611765565b34801561092557600080fd5b506103bf610934366004611f90565b601a602052600090815260409020546001600160a01b031681565b34801561095b57600080fd5b50610347611775565b34801561097057600080fd5b506004546103bf906001600160a01b031681565b34801561099057600080fd5b5061034761099f366004611ff2565b6117a5565b3480156109b057600080fd5b5061042960165481565b3480156109c657600080fd5b506103476109d5366004611fa8565b611929565b3480156109e657600080fd5b506104296109f5366004611f90565b61194f565b348015610a0657600080fd5b506002546103bf906001600160a01b031681565b348015610a2657600080fd5b50600c546103bf906001600160a01b031681565b348015610a4657600080fd5b50600954610a5d90600160a01b900462ffffff1681565b60405162ffffff9091168152602001610375565b348015610a7d57600080fd5b50601d546103bf9061010090046001600160a01b031681565b348015610aa257600080fd5b506008546103bf906001600160a01b031681565b348015610ac257600080fd5b50610429610ad1366004611f90565b61195f565b348015610ae257600080fd5b50610369610af1366004611e79565b61196f565b348015610b0257600080fd5b506003546103bf906001600160a01b031681565b348015610b2257600080fd5b506001546103bf906001600160a01b031681565b6000610b4d6000356001600160e01b0319166115c0565b90506001600160a01b03811615801590610b6a575060195460ff16155b610bb65760405162461bcd60e51b815260206004820152601d60248201527f50726f78793a20696d706c204f522070726f78792069732066616c73650000006044820152606401610336565b3660008037600080366000845af43d6000803e808015610bd5573d6000f35b3d6000fd5b505050565b60006001600160e01b03198216637965db0b60e01b1480610c1057506301ffc9a760e01b6001600160e01b03198316145b92915050565b60128054610c2390612350565b80601f0160208091040260200160405190810160405280929190818152602001828054610c4f90612350565b8015610c9c5780601f10610c7157610100808354040283529160200191610c9c565b820191906000526020600020905b815481529060010190602001808311610c7f57829003601f168201915b505050505081565b60188181548110610cb457600080fd5b600091825260209091200154905081565b610cce3361196f565b610cea5760405162461bcd60e51b815260040161033690612221565b601d546001600160a01b038381166101009092041614801590610d1557506001600160a01b03821615155b610d565760405162461bcd60e51b815260206004820152601260248201527173616d652076616c7565206f72207a65726f60701b6044820152606401610336565b601d80546001600160a01b03841661010002610100600160a81b03198216811790925560ff918216911617151581151514610d9a57601d805460ff19168215151790555b5050565b6000610c106000805160206123d3833981519152836116bc565b6000828152601e6020526040902060010154610dd4813361197b565b610bda83836119df565b600060608060006014546017601860155482805480602002602001604051908101604052809291908181526020018280548015610e3a57602002820191906000526020600020905b815481526020019060010190808311610e26575b5050505050925081805480602002602001604051908101604052809291908181526020018280548015610e8c57602002820191906000526020600020905b815481526020019060010190808311610e78575b50505050509150935093509350935090919293565b6001600160a01b0381163314610f115760405162461bcd60e51b815260206004820152602f60248201527f416363657373436f6e74726f6c3a2063616e206f6e6c792072656e6f756e636560448201526e103937b632b9903337b91039b2b63360891b6064820152608401610336565b610d9a8282611a65565b610f243361196f565b610f405760405162461bcd60e51b815260040161033690612221565b6001600160a01b038116610f865760405162461bcd60e51b815260206004820152600d60248201526c696e707574206973207a65726f60981b6044820152606401610336565b806001600160a01b0316610f9a6000611acc565b6001600160a01b03161415610fdd5760405162461bcd60e51b815260206004820152600960248201526839b0b6b29030b2323960b91b6044820152606401610336565b610fea8160006001611ae7565b6040516001600160a01b038216907fbc7cd75a20ee27fd9adebab32041f755214dbc6bffa90cc0225b39da2e5c2d3b90600090a250565b61102a3361196f565b6110465760405162461bcd60e51b815260040161033690612221565b816110935760405162461bcd60e51b815260206004820181905260248201527f50726f78793a205f73656c6563746f727327732073697a65206973207a65726f6044820152606401610336565b6001600160a01b0381166000908152601b602052604090205460ff166110f65760405162461bcd60e51b815260206004820152601860248201527750726f78793a205f696d70206973206e6f7420616c69766560401b6044820152606401610336565b60005b828110156112a357816001600160a01b0316601c600086868581811061112f57634e487b7160e01b600052603260045260246000fd5b90506020020160208101906111449190611fca565b6001600160e01b03191681526020810191909152604001600020546001600160a01b031614156111b65760405162461bcd60e51b815260206004820152601d60248201527f4c69717569646974795661756c7450726f78793a2073616d6520696d700000006044820152606401610336565b81601c60008686858181106111db57634e487b7160e01b600052603260045260246000fd5b90506020020160208101906111f09190611fca565b6001600160e01b0319168152602081019190915260400160002080546001600160a01b0319166001600160a01b03928316179055821684848381811061124657634e487b7160e01b600052603260045260246000fd5b905060200201602081019061125b9190611fca565b6001600160e01b0319167f14ebc1c32aa68f4d766e89f3e546cee249f7df25183fc10ab1568d91c2ce9b7b60405160405180910390a38061129b8161238b565b9150506110f9565b50505050565b60006112b56000611acc565b905090565b6112c33361196f565b6112df5760405162461bcd60e51b815260040161033690612221565b610d9a8282611b67565b6112f23361196f565b61130e5760405162461bcd60e51b815260040161033690612221565b601d5460ff16151581151514156113545760405162461bcd60e51b815260206004820152600a60248201526973616d652076616c756560b01b6044820152606401610336565b80156113ae57601d5461010090046001600160a01b03166113ae5760405162461bcd60e51b81526020600482015260146024820152737a65726f206c6f674576656e744164647265737360601b6044820152606401610336565b601d805460ff1916911515919091179055565b6113ca3361196f565b6113e65760405162461bcd60e51b815260040161033690612221565b6113fe6000805160206123d383398151915282610db8565b50565b61140a33610d9e565b8061141957506114193361196f565b6114355760405162461bcd60e51b8152600401610336906121ad565b6001600160a01b03811661145b5760405162461bcd60e51b8152600401610336906121ef565b336001600160a01b03821614156114845760405162461bcd60e51b815260040161033690612269565b61149c6000805160206123d383398151915282610db8565b6113fe6000805160206123d383398151915233610ea1565b6114bd33610d9e565b806114cc57506114cc3361196f565b6114e85760405162461bcd60e51b8152600401610336906121ad565b6019805460ff1916911515919091179055565b6115043361196f565b6115205760405162461bcd60e51b815260040161033690612221565b610bda838383611ae7565b6115343361196f565b6115505760405162461bcd60e51b815260040161033690612221565b6001600160a01b0381166115765760405162461bcd60e51b8152600401610336906121ef565b336001600160a01b038216141561159f5760405162461bcd60e51b815260040161033690612269565b6115aa600082610db8565b6113fe600033610ea1565b6000610c1082611acc565b6001600160e01b031981166000908152601c60205260408120546001600160a01b031661162057505060008052601a6020527fb75ecc04ed35f89790e98640e901bda41eceff0cb896cf2765fb697680253750546001600160a01b031690565b6001600160e01b031982166000908152601c60209081526040808320546001600160a01b03168352601b90915290205460ff161561167e57506001600160e01b0319166000908152601c60205260409020546001600160a01b031690565b505060008052601a6020527fb75ecc04ed35f89790e98640e901bda41eceff0cb896cf2765fb697680253750546001600160a01b031690565b919050565b6000918252601e602090815260408084206001600160a01b0393909316845291905290205460ff1690565b6116f03361196f565b61170c5760405162461bcd60e51b815260040161033690612221565b6113fe600082611bc6565b61172033610d9e565b8061172f575061172f3361196f565b61174b5760405162461bcd60e51b8152600401610336906121ad565b6117636000805160206123d383398151915233610ea1565b565b60118181548110610cb457600080fd5b61177e3361196f565b61179a5760405162461bcd60e51b815260040161033690612221565b611763600033610ea1565b6117ae33610d9e565b806117bd57506117bd3361196f565b6117d95760405162461bcd60e51b8152600401610336906121ad565b601280546117e690612350565b1590506118235760405162461bcd60e51b815260206004820152600b60248201526a185b1c9958591e481cd95d60aa1b6044820152606401610336565b6001600160a01b0384161580159061184357506001600160a01b03831615155b61187e5760405162461bcd60e51b815260206004820152600c60248201526b7a65726f206164647265737360a01b6044820152606401610336565b60008211801561188e5750600081115b6118c75760405162461bcd60e51b815260206004820152600a6024820152697a65726f20707269636560b01b6044820152606401610336565b84516118da906012906020880190611db9565b50600180546001600160a01b0319166001600160a01b0386161790556118ff83610d9e565b61191b5761191b6000805160206123d383398151915284611bc6565b600d91909155600e55505050565b6000828152601e6020526040902060010154611945813361197b565b610bda8383611a65565b60108181548110610cb457600080fd5b60178181548110610cb457600080fd5b6000610c1081836116bc565b61198582826116bc565b610d9a5761199d816001600160a01b03166014611bd0565b6119a8836020611bd0565b6040516020016119b992919061210b565b60408051601f198184030181529082905262461bcd60e51b82526103369160040161217a565b6119e982826116bc565b610d9a576000828152601e602090815260408083206001600160a01b03851684529091529020805460ff19166001179055611a213390565b6001600160a01b0316816001600160a01b0316837f2f8788117e7eff1d82e926ec794901d17c78024a50270940304540a733656f0d60405160405180910390a45050565b611a6f82826116bc565b15610d9a576000828152601e602090815260408083206001600160a01b0385168085529252808320805460ff1916905551339285917ff6391f5c32d9c69d2a47ea670b442974b53935d1edc7fd64eb21e047a839171b9190a45050565b6000908152601a60205260409020546001600160a01b031690565b823b611b335760405162461bcd60e51b815260206004820152601b60248201527a50726f78793a206e6f7420636f6e7472616374206164647265737360281b6044820152606401610336565b8015611b61576000828152601a6020526040902080546001600160a01b0319166001600160a01b0385161790555b610bda83825b6001600160a01b0382166000818152601b6020908152604091829020805460ff191685151590811790915591519182527f72558d9bfba4210f9ef095c782589484151f6d90f7a81bb3cb9b33efc695d324910160405180910390a25050565b610d9a82826119df565b60606000611bdf8360026122ee565b611bea9060026122d6565b67ffffffffffffffff811115611c1057634e487b7160e01b600052604160045260246000fd5b6040519080825280601f01601f191660200182016040528015611c3a576020820181803683370190505b509050600360fc1b81600081518110611c6357634e487b7160e01b600052603260045260246000fd5b60200101906001600160f81b031916908160001a905350600f60fb1b81600181518110611ca057634e487b7160e01b600052603260045260246000fd5b60200101906001600160f81b031916908160001a9053506000611cc48460026122ee565b611ccf9060016122d6565b90505b6001811115611d63576f181899199a1a9b1b9c1cb0b131b232b360811b85600f1660108110611d1157634e487b7160e01b600052603260045260246000fd5b1a60f81b828281518110611d3557634e487b7160e01b600052603260045260246000fd5b60200101906001600160f81b031916908160001a90535060049490941c93611d5c81612339565b9050611cd2565b508315611db25760405162461bcd60e51b815260206004820181905260248201527f537472696e67733a20686578206c656e67746820696e73756666696369656e746044820152606401610336565b9392505050565b828054611dc590612350565b90600052602060002090601f016020900481019282611de75760008555611e2d565b82601f10611e0057805160ff1916838001178555611e2d565b82800160010185558215611e2d579182015b82811115611e2d578251825591602001919060010190611e12565b50611e39929150611e3d565b5090565b5b80821115611e395760008155600101611e3e565b80356001600160a01b03811681146116b757600080fd5b803580151581146116b757600080fd5b600060208284031215611e8a578081fd5b611db282611e52565b60008060408385031215611ea5578081fd5b611eae83611e52565b9150611ebc60208401611e69565b90509250929050565b600080600060608486031215611ed9578081fd5b611ee284611e52565b925060208401359150611ef760408501611e69565b90509250925092565b600080600060408486031215611f14578283fd5b833567ffffffffffffffff80821115611f2b578485fd5b818601915086601f830112611f3e578485fd5b813581811115611f4c578586fd5b8760208260051b8501011115611f60578586fd5b602092830195509350611ef79186019050611e52565b600060208284031215611f87578081fd5b611db282611e69565b600060208284031215611fa1578081fd5b5035919050565b60008060408385031215611fba578182fd5b82359150611ebc60208401611e52565b600060208284031215611fdb578081fd5b81356001600160e01b031981168114611db2578182fd5b600080600080600060a08688031215612009578081fd5b853567ffffffffffffffff80821115612020578283fd5b818801915088601f830112612033578283fd5b813581811115612045576120456123bc565b604051601f8201601f19908116603f0116810190838211818310171561206d5761206d6123bc565b816040528281528b6020848701011115612085578586fd5b82602086016020830137856020848301015280995050505050506120ab60208701611e52565b93506120b960408701611e52565b94979396509394606081013594506080013592915050565b6000815180845260208085019450808401835b83811015612100578151875295820195908201906001016120e4565b509495945050505050565b76020b1b1b2b9b9a1b7b73a3937b61d1030b1b1b7bab73a1604d1b81526000835161213d81601785016020880161230d565b7001034b99036b4b9b9b4b733903937b6329607d1b601791840191820152835161216e81602884016020880161230d565b01602801949350505050565b602081526000825180602084015261219981604085016020870161230d565b601f01601f19169190910160400192915050565b60208082526022908201527f41636365737369626c653a2043616c6c6572206973206e6f7420616e2061646d60408201526134b760f11b606082015260800190565b60208082526018908201527741636365737369626c653a207a65726f206164647265737360401b604082015260600190565b60208082526028908201527f41636365737369626c653a2043616c6c6572206973206e6f7420616e2070726f6040820152673c3c9030b236b4b760c11b606082015260800190565b60208082526016908201527520b1b1b2b9b9b4b136329d1039b0b6b29030b236b4b760511b604082015260600190565b8481526080602082015260006122b260808301866120d1565b82810360408401526122c481866120d1565b91505082606083015295945050505050565b600082198211156122e9576122e96123a6565b500190565b6000816000190483118215151615612308576123086123a6565b500290565b60005b83811015612328578181015183820152602001612310565b838111156112a35750506000910152565b600081612348576123486123a6565b506000190190565b600181811c9082168061236457607f821691505b6020821081141561238557634e487b7160e01b600052602260045260246000fd5b50919050565b600060001982141561239f5761239f6123a6565b5060010190565b634e487b7160e01b600052601160045260246000fd5b634e487b7160e01b600052604160045260246000fdfe52eafc11f6f81f86878bffd31109a0d92f37506527754f00788853ff9f63b130a2646970667358221220778688afe24e4ee5bd7397c621944e8d329db536040abbee9ae829bbcee3832664736f6c63430008040033df8b4c520ffe197c5343c6f5aec59570151ef9a492f2c624fd45ddde6135ec42a2646970667358221220f368ba67255490b32a2ccc4a46cab58c50b79c68462616179dcb931afa9ac42c64736f6c63430008040033df8b4c520ffe197c5343c6f5aec59570151ef9a492f2c624fd45ddde6135ec42",
  "linkReferences": {},
  "deployedLinkReferences": {}
}