{
  "_format": "hh-sol-artifact-1",
  "contractName": "LockTOS",
  "sourceName": "contracts/stake/LockTOS.sol",
  "abi": [
    {
      "anonymous": false,
      "inputs": [
        {
          "indexed": false,
          "internalType": "address",
          "name": "account",
          "type": "address"
        },
        {
          "indexed": false,
          "internalType": "uint256",
          "name": "lockId",
          "type": "uint256"
        },
        {
          "indexed": false,
          "internalType": "uint256",
          "name": "value",
          "type": "uint256"
        }
      ],
      "name": "LockAmountIncreased",
      "type": "event"
    },
    {
      "anonymous": false,
      "inputs": [
        {
          "indexed": false,
          "internalType": "address",
          "name": "account",
          "type": "address"
        },
        {
          "indexed": false,
          "internalType": "uint256",
          "name": "lockId",
          "type": "uint256"
        },
        {
          "indexed": false,
          "internalType": "uint256",
          "name": "value",
          "type": "uint256"
        },
        {
          "indexed": false,
          "internalType": "uint256",
          "name": "unlockTime",
          "type": "uint256"
        }
      ],
      "name": "LockCreated",
      "type": "event"
    },
    {
      "anonymous": false,
      "inputs": [
        {
          "indexed": false,
          "internalType": "address",
          "name": "account",
          "type": "address"
        },
        {
          "indexed": false,
          "internalType": "uint256",
          "name": "lockId",
          "type": "uint256"
        },
        {
          "indexed": false,
          "internalType": "uint256",
          "name": "value",
          "type": "uint256"
        }
      ],
      "name": "LockDeposited",
      "type": "event"
    },
    {
      "anonymous": false,
      "inputs": [
        {
          "indexed": false,
          "internalType": "address",
          "name": "account",
          "type": "address"
        },
        {
          "indexed": false,
          "internalType": "uint256",
          "name": "lockId",
          "type": "uint256"
        },
        {
          "indexed": false,
          "internalType": "uint256",
          "name": "unlockTime",
          "type": "uint256"
        }
      ],
      "name": "LockUnlockTimeIncreased",
      "type": "event"
    },
    {
      "anonymous": false,
      "inputs": [
        {
          "indexed": false,
          "internalType": "address",
          "name": "account",
          "type": "address"
        },
        {
          "indexed": false,
          "internalType": "uint256",
          "name": "lockId",
          "type": "uint256"
        },
        {
          "indexed": false,
          "internalType": "uint256",
          "name": "value",
          "type": "uint256"
        }
      ],
      "name": "LockWithdrawn",
      "type": "event"
    },
    {
      "anonymous": false,
      "inputs": [
        {
          "indexed": true,
          "internalType": "bytes32",
          "name": "role",
          "type": "bytes32"
        },
        {
          "indexed": true,
          "internalType": "bytes32",
          "name": "previousAdminRole",
          "type": "bytes32"
        },
        {
          "indexed": true,
          "internalType": "bytes32",
          "name": "newAdminRole",
          "type": "bytes32"
        }
      ],
      "name": "RoleAdminChanged",
      "type": "event"
    },
    {
      "anonymous": false,
      "inputs": [
        {
          "indexed": true,
          "internalType": "bytes32",
          "name": "role",
          "type": "bytes32"
        },
        {
          "indexed": true,
          "internalType": "address",
          "name": "account",
          "type": "address"
        },
        {
          "indexed": true,
          "internalType": "address",
          "name": "sender",
          "type": "address"
        }
      ],
      "name": "RoleGranted",
      "type": "event"
    },
    {
      "anonymous": false,
      "inputs": [
        {
          "indexed": true,
          "internalType": "bytes32",
          "name": "role",
          "type": "bytes32"
        },
        {
          "indexed": true,
          "internalType": "address",
          "name": "account",
          "type": "address"
        },
        {
          "indexed": true,
          "internalType": "address",
          "name": "sender",
          "type": "address"
        }
      ],
      "name": "RoleRevoked",
      "type": "event"
    },
    {
      "inputs": [],
      "name": "ADMIN_ROLE",
      "outputs": [
        {
          "internalType": "bytes32",
          "name": "",
          "type": "bytes32"
        }
      ],
      "stateMutability": "view",
      "type": "function"
    },
    {
      "inputs": [],
      "name": "BURNER_ROLE",
      "outputs": [
        {
          "internalType": "bytes32",
          "name": "",
          "type": "bytes32"
        }
      ],
      "stateMutability": "view",
      "type": "function"
    },
    {
      "inputs": [],
      "name": "DEFAULT_ADMIN_ROLE",
      "outputs": [
        {
          "internalType": "bytes32",
          "name": "",
          "type": "bytes32"
        }
      ],
      "stateMutability": "view",
      "type": "function"
    },
    {
      "inputs": [],
      "name": "MINTER_ROLE",
      "outputs": [
        {
          "internalType": "bytes32",
          "name": "",
          "type": "bytes32"
        }
      ],
      "stateMutability": "view",
      "type": "function"
    },
    {
      "inputs": [],
      "name": "MULTIPLIER",
      "outputs": [
        {
          "internalType": "uint256",
          "name": "",
          "type": "uint256"
        }
      ],
      "stateMutability": "view",
      "type": "function"
    },
    {
      "inputs": [],
      "name": "PROJECT_ADMIN_ROLE",
      "outputs": [
        {
          "internalType": "bytes32",
          "name": "",
          "type": "bytes32"
        }
      ],
      "stateMutability": "view",
      "type": "function"
    },
    {
      "inputs": [],
      "name": "activeHolders",
      "outputs": [
        {
          "internalType": "address[]",
          "name": "",
          "type": "address[]"
        }
      ],
      "stateMutability": "view",
      "type": "function"
    },
    {
      "inputs": [
        {
          "internalType": "address",
          "name": "_addr",
          "type": "address"
        }
      ],
      "name": "activeLocksOf",
      "outputs": [
        {
          "internalType": "uint256[]",
          "name": "",
          "type": "uint256[]"
        }
      ],
      "stateMutability": "view",
      "type": "function"
    },
    {
      "inputs": [
        {
          "internalType": "address",
          "name": "account",
          "type": "address"
        }
      ],
      "name": "addAdmin",
      "outputs": [],
      "stateMutability": "nonpayable",
      "type": "function"
    },
    {
      "inputs": [],
      "name": "allHolders",
      "outputs": [
        {
          "internalType": "address[]",
          "name": "",
          "type": "address[]"
        }
      ],
      "stateMutability": "view",
      "type": "function"
    },
    {
      "inputs": [
        {
          "internalType": "uint256",
          "name": "",
          "type": "uint256"
        }
      ],
      "name": "allLocks",
      "outputs": [
        {
          "internalType": "uint256",
          "name": "start",
          "type": "uint256"
        },
        {
          "internalType": "uint256",
          "name": "end",
          "type": "uint256"
        },
        {
          "internalType": "uint256",
          "name": "amount",
          "type": "uint256"
        },
        {
          "internalType": "bool",
          "name": "withdrawn",
          "type": "bool"
        }
      ],
      "stateMutability": "view",
      "type": "function"
    },
    {
      "inputs": [
        {
          "internalType": "address",
          "name": "_addr",
          "type": "address"
        }
      ],
      "name": "balanceOf",
      "outputs": [
        {
          "internalType": "uint256",
          "name": "balance",
          "type": "uint256"
        }
      ],
      "stateMutability": "view",
      "type": "function"
    },
    {
      "inputs": [
        {
          "internalType": "address",
          "name": "_addr",
          "type": "address"
        },
        {
          "internalType": "uint256",
          "name": "_timestamp",
          "type": "uint256"
        }
      ],
      "name": "balanceOfAt",
      "outputs": [
        {
          "internalType": "uint256",
          "name": "balance",
          "type": "uint256"
        }
      ],
      "stateMutability": "view",
      "type": "function"
    },
    {
      "inputs": [
        {
          "internalType": "uint256",
          "name": "_lockId",
          "type": "uint256"
        }
      ],
      "name": "balanceOfLock",
      "outputs": [
        {
          "internalType": "uint256",
          "name": "",
          "type": "uint256"
        }
      ],
      "stateMutability": "view",
      "type": "function"
    },
    {
      "inputs": [
        {
          "internalType": "uint256",
          "name": "_lockId",
          "type": "uint256"
        },
        {
          "internalType": "uint256",
          "name": "_timestamp",
          "type": "uint256"
        }
      ],
      "name": "balanceOfLockAt",
      "outputs": [
        {
          "internalType": "uint256",
          "name": "",
          "type": "uint256"
        }
      ],
      "stateMutability": "view",
      "type": "function"
    },
    {
      "inputs": [
        {
          "internalType": "uint256",
          "name": "_value",
          "type": "uint256"
        },
        {
          "internalType": "uint256",
          "name": "_unlockWeeks",
          "type": "uint256"
        }
      ],
      "name": "createLock",
      "outputs": [
        {
          "internalType": "uint256",
          "name": "lockId",
          "type": "uint256"
        }
      ],
      "stateMutability": "nonpayable",
      "type": "function"
    },
    {
      "inputs": [
        {
          "internalType": "uint256",
          "name": "_value",
          "type": "uint256"
        },
        {
          "internalType": "uint256",
          "name": "_unlockWeeks",
          "type": "uint256"
        },
        {
          "internalType": "uint256",
          "name": "_deadline",
          "type": "uint256"
        },
        {
          "internalType": "uint8",
          "name": "_v",
          "type": "uint8"
        },
        {
          "internalType": "bytes32",
          "name": "_r",
          "type": "bytes32"
        },
        {
          "internalType": "bytes32",
          "name": "_s",
          "type": "bytes32"
        }
      ],
      "name": "createLockWithPermit",
      "outputs": [
        {
          "internalType": "uint256",
          "name": "lockId",
          "type": "uint256"
        }
      ],
      "stateMutability": "nonpayable",
      "type": "function"
    },
    {
      "inputs": [],
      "name": "cumulativeEpochUnit",
      "outputs": [
        {
          "internalType": "uint256",
          "name": "",
          "type": "uint256"
        }
      ],
      "stateMutability": "view",
      "type": "function"
    },
    {
      "inputs": [],
      "name": "cumulativeTOSAmount",
      "outputs": [
        {
          "internalType": "uint256",
          "name": "",
          "type": "uint256"
        }
      ],
      "stateMutability": "view",
      "type": "function"
    },
    {
      "inputs": [],
      "name": "currentStakedTotalTOS",
      "outputs": [
        {
          "internalType": "uint256",
          "name": "",
          "type": "uint256"
        }
      ],
      "stateMutability": "view",
      "type": "function"
    },
    {
      "inputs": [
        {
          "internalType": "address",
          "name": "_addr",
          "type": "address"
        },
        {
          "internalType": "uint256",
          "name": "_lockId",
          "type": "uint256"
        },
        {
          "internalType": "uint256",
          "name": "_value",
          "type": "uint256"
        }
      ],
      "name": "depositFor",
      "outputs": [],
      "stateMutability": "nonpayable",
      "type": "function"
    },
    {
      "inputs": [],
      "name": "epochUnit",
      "outputs": [
        {
          "internalType": "uint256",
          "name": "",
          "type": "uint256"
        }
      ],
      "stateMutability": "view",
      "type": "function"
    },
    {
      "inputs": [],
      "name": "getCurrentTime",
      "outputs": [
        {
          "internalType": "uint256",
          "name": "",
          "type": "uint256"
        }
      ],
      "stateMutability": "view",
      "type": "function"
    },
    {
      "inputs": [
        {
          "internalType": "bytes32",
          "name": "role",
          "type": "bytes32"
        }
      ],
      "name": "getRoleAdmin",
      "outputs": [
        {
          "internalType": "bytes32",
          "name": "",
          "type": "bytes32"
        }
      ],
      "stateMutability": "view",
      "type": "function"
    },
    {
      "inputs": [
        {
          "internalType": "bytes32",
          "name": "role",
          "type": "bytes32"
        },
        {
          "internalType": "uint256",
          "name": "index",
          "type": "uint256"
        }
      ],
      "name": "getRoleMember",
      "outputs": [
        {
          "internalType": "address",
          "name": "",
          "type": "address"
        }
      ],
      "stateMutability": "view",
      "type": "function"
    },
    {
      "inputs": [
        {
          "internalType": "bytes32",
          "name": "role",
          "type": "bytes32"
        }
      ],
      "name": "getRoleMemberCount",
      "outputs": [
        {
          "internalType": "uint256",
          "name": "",
          "type": "uint256"
        }
      ],
      "stateMutability": "view",
      "type": "function"
    },
    {
      "inputs": [],
      "name": "globalCheckpoint",
      "outputs": [],
      "stateMutability": "nonpayable",
      "type": "function"
    },
    {
      "inputs": [
        {
          "internalType": "bytes32",
          "name": "role",
          "type": "bytes32"
        },
        {
          "internalType": "address",
          "name": "account",
          "type": "address"
        }
      ],
      "name": "grantRole",
      "outputs": [],
      "stateMutability": "nonpayable",
      "type": "function"
    },
    {
      "inputs": [
        {
          "internalType": "bytes32",
          "name": "role",
          "type": "bytes32"
        },
        {
          "internalType": "address",
          "name": "account",
          "type": "address"
        }
      ],
      "name": "hasRole",
      "outputs": [
        {
          "internalType": "bool",
          "name": "",
          "type": "bool"
        }
      ],
      "stateMutability": "view",
      "type": "function"
    },
    {
      "inputs": [
        {
          "internalType": "uint256",
          "name": "",
          "type": "uint256"
        }
      ],
      "name": "inUse",
      "outputs": [
        {
          "internalType": "bool",
          "name": "",
          "type": "bool"
        }
      ],
      "stateMutability": "view",
      "type": "function"
    },
    {
      "inputs": [
        {
          "internalType": "uint256",
          "name": "_lockId",
          "type": "uint256"
        },
        {
          "internalType": "uint256",
          "name": "_value",
          "type": "uint256"
        }
      ],
      "name": "increaseAmount",
      "outputs": [],
      "stateMutability": "nonpayable",
      "type": "function"
    },
    {
      "inputs": [
        {
          "internalType": "uint256",
          "name": "_lockId",
          "type": "uint256"
        },
        {
          "internalType": "uint256",
          "name": "_unlockWeeks",
          "type": "uint256"
        }
      ],
      "name": "increaseUnlockTime",
      "outputs": [],
      "stateMutability": "nonpayable",
      "type": "function"
    },
    {
      "inputs": [
        {
          "internalType": "address",
          "name": "account",
          "type": "address"
        }
      ],
      "name": "isAdmin",
      "outputs": [
        {
          "internalType": "bool",
          "name": "",
          "type": "bool"
        }
      ],
      "stateMutability": "view",
      "type": "function"
    },
    {
      "inputs": [],
      "name": "lockIdCounter",
      "outputs": [
        {
          "internalType": "uint256",
          "name": "",
          "type": "uint256"
        }
      ],
      "stateMutability": "view",
      "type": "function"
    },
    {
      "inputs": [
        {
          "internalType": "uint256",
          "name": "",
          "type": "uint256"
        },
        {
          "internalType": "uint256",
          "name": "",
          "type": "uint256"
        }
      ],
      "name": "lockPointHistory",
      "outputs": [
        {
          "internalType": "int256",
          "name": "bias",
          "type": "int256"
        },
        {
          "internalType": "int256",
          "name": "slope",
          "type": "int256"
        },
        {
          "internalType": "uint256",
          "name": "timestamp",
          "type": "uint256"
        }
      ],
      "stateMutability": "view",
      "type": "function"
    },
    {
      "inputs": [
        {
          "internalType": "address",
          "name": "",
          "type": "address"
        },
        {
          "internalType": "uint256",
          "name": "",
          "type": "uint256"
        }
      ],
      "name": "lockedBalances",
      "outputs": [
        {
          "internalType": "uint256",
          "name": "start",
          "type": "uint256"
        },
        {
          "internalType": "uint256",
          "name": "end",
          "type": "uint256"
        },
        {
          "internalType": "uint256",
          "name": "amount",
          "type": "uint256"
        },
        {
          "internalType": "bool",
          "name": "withdrawn",
          "type": "bool"
        }
      ],
      "stateMutability": "view",
      "type": "function"
    },
    {
      "inputs": [
        {
          "internalType": "uint256",
          "name": "_lockId",
          "type": "uint256"
        }
      ],
      "name": "locksInfo",
      "outputs": [
        {
          "internalType": "uint256",
          "name": "start",
          "type": "uint256"
        },
        {
          "internalType": "uint256",
          "name": "end",
          "type": "uint256"
        },
        {
          "internalType": "uint256",
          "name": "amount",
          "type": "uint256"
        }
      ],
      "stateMutability": "view",
      "type": "function"
    },
    {
      "inputs": [
        {
          "internalType": "address",
          "name": "_addr",
          "type": "address"
        }
      ],
      "name": "locksOf",
      "outputs": [
        {
          "internalType": "uint256[]",
          "name": "",
          "type": "uint256[]"
        }
      ],
      "stateMutability": "view",
      "type": "function"
    },
    {
      "inputs": [],
      "name": "maxTime",
      "outputs": [
        {
          "internalType": "uint256",
          "name": "",
          "type": "uint256"
        }
      ],
      "stateMutability": "view",
      "type": "function"
    },
    {
      "inputs": [],
      "name": "migratedL2",
      "outputs": [
        {
          "internalType": "bool",
          "name": "",
          "type": "bool"
        }
      ],
      "stateMutability": "view",
      "type": "function"
    },
    {
      "inputs": [],
      "name": "needCheckpoint",
      "outputs": [
        {
          "internalType": "bool",
          "name": "need",
          "type": "bool"
        }
      ],
      "stateMutability": "view",
      "type": "function"
    },
    {
      "inputs": [],
      "name": "pauseProxy",
      "outputs": [
        {
          "internalType": "bool",
          "name": "",
          "type": "bool"
        }
      ],
      "stateMutability": "view",
      "type": "function"
    },
    {
      "inputs": [
        {
          "internalType": "uint256",
          "name": "",
          "type": "uint256"
        }
      ],
      "name": "pointHistory",
      "outputs": [
        {
          "internalType": "int256",
          "name": "bias",
          "type": "int256"
        },
        {
          "internalType": "int256",
          "name": "slope",
          "type": "int256"
        },
        {
          "internalType": "uint256",
          "name": "timestamp",
          "type": "uint256"
        }
      ],
      "stateMutability": "view",
      "type": "function"
    },
    {
      "inputs": [
        {
          "internalType": "uint256",
          "name": "_lockId",
          "type": "uint256"
        }
      ],
      "name": "pointHistoryOf",
      "outputs": [
        {
          "components": [
            {
              "internalType": "int256",
              "name": "bias",
              "type": "int256"
            },
            {
              "internalType": "int256",
              "name": "slope",
              "type": "int256"
            },
            {
              "internalType": "uint256",
              "name": "timestamp",
              "type": "uint256"
            }
          ],
          "internalType": "struct LibLockTOS.Point[]",
          "name": "",
          "type": "tuple[]"
        }
      ],
      "stateMutability": "view",
      "type": "function"
    },
    {
      "inputs": [
        {
          "internalType": "address",
          "name": "account",
          "type": "address"
        }
      ],
      "name": "removeAdmin",
      "outputs": [],
      "stateMutability": "nonpayable",
      "type": "function"
    },
    {
      "inputs": [
        {
          "internalType": "bytes32",
          "name": "role",
          "type": "bytes32"
        },
        {
          "internalType": "address",
          "name": "account",
          "type": "address"
        }
      ],
      "name": "renounceRole",
      "outputs": [],
      "stateMutability": "nonpayable",
      "type": "function"
    },
    {
      "inputs": [
        {
          "internalType": "bytes32",
          "name": "role",
          "type": "bytes32"
        },
        {
          "internalType": "address",
          "name": "account",
          "type": "address"
        }
      ],
      "name": "revokeRole",
      "outputs": [],
      "stateMutability": "nonpayable",
      "type": "function"
    },
    {
      "inputs": [
        {
          "internalType": "uint256",
          "name": "_maxTime",
          "type": "uint256"
        }
      ],
      "name": "setMaxTime",
      "outputs": [],
      "stateMutability": "nonpayable",
      "type": "function"
    },
    {
      "inputs": [
        {
          "internalType": "uint256",
          "name": "",
          "type": "uint256"
        }
      ],
      "name": "slopeChanges",
      "outputs": [
        {
          "internalType": "int256",
          "name": "",
          "type": "int256"
        }
      ],
      "stateMutability": "view",
      "type": "function"
    },
    {
      "inputs": [],
      "name": "stakeRegistry",
      "outputs": [
        {
          "internalType": "address",
          "name": "",
          "type": "address"
        }
      ],
      "stateMutability": "view",
      "type": "function"
    },
    {
      "inputs": [],
      "name": "tos",
      "outputs": [
        {
          "internalType": "address",
          "name": "",
          "type": "address"
        }
      ],
      "stateMutability": "view",
      "type": "function"
    },
    {
      "inputs": [
        {
          "internalType": "address",
          "name": "_addr",
          "type": "address"
        }
      ],
      "name": "totalLockedAmountOf",
      "outputs": [
        {
          "internalType": "uint256",
          "name": "",
          "type": "uint256"
        }
      ],
      "stateMutability": "view",
      "type": "function"
    },
    {
      "inputs": [],
      "name": "totalSupply",
      "outputs": [
        {
          "internalType": "uint256",
          "name": "",
          "type": "uint256"
        }
      ],
      "stateMutability": "view",
      "type": "function"
    },
    {
      "inputs": [
        {
          "internalType": "uint256",
          "name": "_timestamp",
          "type": "uint256"
        }
      ],
      "name": "totalSupplyAt",
      "outputs": [
        {
          "internalType": "uint256",
          "name": "",
          "type": "uint256"
        }
      ],
      "stateMutability": "view",
      "type": "function"
    },
    {
      "inputs": [
        {
          "internalType": "address",
          "name": "newAdmin",
          "type": "address"
        }
      ],
      "name": "transferAdmin",
      "outputs": [],
      "stateMutability": "nonpayable",
      "type": "function"
    },
    {
      "inputs": [
        {
          "internalType": "uint256",
          "name": "",
          "type": "uint256"
        }
      ],
      "name": "uniqueUsers",
      "outputs": [
        {
          "internalType": "address",
          "name": "",
          "type": "address"
        }
      ],
      "stateMutability": "view",
      "type": "function"
    },
    {
      "inputs": [
        {
          "internalType": "address",
          "name": "",
          "type": "address"
        },
        {
          "internalType": "uint256",
          "name": "",
          "type": "uint256"
        }
      ],
      "name": "userLocks",
      "outputs": [
        {
          "internalType": "uint256",
          "name": "",
          "type": "uint256"
        }
      ],
      "stateMutability": "view",
      "type": "function"
    },
    {
      "inputs": [
        {
          "internalType": "uint256",
          "name": "_lockId",
          "type": "uint256"
        }
      ],
      "name": "withdraw",
      "outputs": [],
      "stateMutability": "nonpayable",
      "type": "function"
    },
    {
      "inputs": [],
      "name": "withdrawAll",
      "outputs": [],
      "stateMutability": "nonpayable",
      "type": "function"
    },
    {
      "inputs": [
        {
          "internalType": "address",
          "name": "_addr",
          "type": "address"
        }
      ],
      "name": "withdrawableAmountOf",
      "outputs": [
        {
          "internalType": "uint256",
          "name": "",
          "type": "uint256"
        }
      ],
      "stateMutability": "view",
      "type": "function"
    },
    {
      "inputs": [
        {
          "internalType": "address",
          "name": "_addr",
          "type": "address"
        }
      ],
      "name": "withdrawableLocksOf",
      "outputs": [
        {
          "internalType": "uint256[]",
          "name": "",
          "type": "uint256[]"
        }
      ],
      "stateMutability": "view",
      "type": "function"
    }
  ],
  "bytecode": "0x6080604052600160075534801561001557600080fd5b50613b7f806100256000396000f3fe608060405234801561001057600080fd5b50600436106102cf5760003560e01c80638ad4c447116101845780638ad4c447146104d05780639010d07c146104e357806391d14854146104f6578063981b24d01461050957806398b777e71461051c5780639ce563051461052f5780639d507b8b14610542578063a1f5f50e14610555578063a217fddf1461055d578063aa33fedb14610565578063afae883e14610578578063b2383e5514610580578063b52c05fe14610593578063b534ad56146105a6578063b94419e0146105ae578063c3f9ab58146105c1578063c5773656146105e1578063c5dc1e5f146105f6578063c79acdda14610616578063c80a3aa614610629578063ca15c87314610631578063cd29ca0e14610644578063d53913931461064c578063d547741f14610654578063dd38339414610667578063e43cb6661461067a578063ea31e8951461068d578063eb86b34214610695578063ed50c699146106a8578063f52a36f7146106bb578063fd2dcecf146106ce576102cf565b8063059f8b16146102d4578063086c46f4146102f25780630b7858ba146103055780631785f53c1461031a57806318160ddd1461032f5780631ac40e661461033757806322e67e711461033f578063248a9ca31461034757806324d7806c1461035a578063282c51f31461036d57806329cb924d146103755780632e1a7d4d1461037d5780632f2ff15d1461039057806336568abe146103a3578063367b7b23146103b657806341c04d5e146103d85780634cf5fbf5146103e05780634ee2cd7e146103f35780635d16a6f91461040657806363a8fd891461042957806363d5a3d914610431578063642cf649146104445780636830483514610457578063704802751461046c57806370a082311461047f57806375829def1461049257806375b238fc146104a55780638372cd7e146104ad578063853828b6146104c057806389f395de146104c8575b600080fd5b6102dc6106d6565b6040516102e99190613689565b60405180910390f35b6102dc61030036600461335f565b6106e2565b61030d6107ae565b6040516102e9919061367e565b61032d61032836600461335f565b6107f2565b005b6102dc610851565b61032d610923565b6102dc61092b565b6102dc6103553660046133f4565b610931565b61030d61036836600461335f565b610946565b6102dc610966565b6102dc61098a565b61032d61038b3660046133f4565b61098e565b61032d61039e36600461340c565b6109ec565b61032d6103b136600461340c565b610a53565b6103c96103c4366004613437565b610ab4565b6040516102e993929190613692565b6102dc610af6565b61032d6103ee3660046133a2565b610b1a565b6102dc610401366004613379565b610c4e565b610419610414366004613379565b610d0b565b6040516102e99493929190613985565b61030d610d40565b61041961043f3660046133f4565b610d49565b6102dc610452366004613437565b610d73565b61045f610dec565b6040516102e991906134c7565b61032d61047a36600461335f565b610e00565b6102dc61048d36600461335f565b610e5c565b61032d6104a036600461335f565b610f10565b6102dc611031565b6102dc6104bb366004613470565b611043565b61032d6110c7565b61045f61120f565b6103c96104de3660046133f4565b61121e565b61045f6104f1366004613437565b611251565b61030d61050436600461340c565b611270565b6102dc6105173660046133f4565b611288565b61032d61052a3660046133f4565b61131e565b6103c961053d3660046133f4565b611367565b61032d610550366004613437565b611386565b61030d61150b565b6102dc61151b565b6102dc610573366004613379565b611520565b6102dc611551565b61032d61058e366004613437565b611557565b6102dc6105a1366004613437565b611562565b6102dc6116f7565b6102dc6105bc3660046133f4565b6116fd565b6105d46105cf36600461335f565b6117b1565b6040516102e99190613646565b6105e961181d565b6040516102e991906135a0565b6106096106043660046133f4565b6119b2565b6040516102e991906135ed565b61030d6106243660046133f4565b611a42565b6105e9611a57565b6102dc61063f3660046133f4565b611ab9565b6102dc611ad0565b6102dc611ad6565b61032d61066236600461340c565b611afa565b6105d461067536600461335f565b611b53565b6105d461068836600461335f565b611d64565b6102dc611f2e565b6102dc6106a336600461335f565b611fb4565b61045f6106b63660046133f4565b61209e565b6102dc6106c93660046133f4565b6120c8565b6102dc6120da565b670de0b6b3a764000081565b6001600160a01b0381166000908152600d602052604081205481805b828110156107a4576001600160a01b0385166000908152600d6020526040812080548390811061072a57fe5b60009182526020808320909101546001600160a01b0389168352600b8252604080842082855283529283902083516080810185528154815260018201549381019390935260028101549383018490526003015460ff16151560608301529250906107959085906120e0565b935050508060010190506106fe565b509150505b919050565b600954600090806107c35760019150506107ef565b600154600960018303815481106107d657fe5b9060005260206000209060030201600201544203119150505b90565b6107fb33610946565b6108365760405162461bcd60e51b81526004018080602001828103825260228152602001806139f46022913960400191505060405180910390fd5b61084e600080516020613a8883398151915282610a53565b50565b600954600090610863575060006107ef565b600980546000916108b991600019810190811061087c57fe5b9060005260206000209060030201604051806060016040529081600082015481526020016001820154815260200160028201548152505042612138565b905060006108ea6108df6108da84604001514261223790919063ffffffff16565b612279565b6020840151906122c1565b905061091c670de0b6b3a76400008284600001511361090a576000610916565b8351610916908461236a565b906123cf565b9250505090565b61084e61240e565b60025481565b60009081526010602052604090206002015490565b6000610960600080516020613a8883398151915283611270565b92915050565b7f9667e80708b6eeeb0053fa0cca44e028ff548e2a9f029edfeac87c118b08b7c881565b4290565b6007546001146109b95760405162461bcd60e51b81526004016109b090613926565b60405180910390fd5b6000600755806109db5760405162461bcd60e51b81526004016109b09061373b565b6109e481612607565b506001600755565b600082815260106020526040902060020154610a0a9061050461283f565b610a455760405162461bcd60e51b815260040180806020018281038252602f8152602001806139c5602f913960400191505060405180910390fd5b610a4f8282612843565b5050565b610a5b61283f565b6001600160a01b0316816001600160a01b031614610aaa5760405162461bcd60e51b815260040180806020018281038252602f815260200180613b1b602f913960400191505060405180910390fd5b610a4f82826128ac565b600a6020528160005260406000208181548110610ad057600080fd5b600091825260209091206003909102018054600182015460029092015490935090915083565b7f52eafc11f6f81f86878bffd31109a0d92f37506527754f00788853ff9f63b13081565b60008111610b3a5760405162461bcd60e51b81526004016109b0906137e9565b6001600160a01b0383166000908152600b6020908152604080832085845282529182902082516080810184528154815260018201549281019290925260028101549282019290925260039091015460ff161580156060830152610baf5760405162461bcd60e51b81526004016109b0906137be565b8051610bcd5760405162461bcd60e51b81526004016109b090613958565b42816020015111610bf05760405162461bcd60e51b81526004016109b090613764565b600654610bfd90836120e0565b600655610c0d8484846000612915565b7fea44bc904f77b1be47cd5b840b00f19b7238f88d7524fa5a86629282bfe6bcc5338484604051610c4093929190613559565b60405180910390a150505050565b6001600160a01b0382166000908152600d6020908152604080832080548251818502810185019093528083528493830182828015610cab57602002820191906000526020600020905b815481526020019060010190808311610c97575b50505050509050805160001415610cc6576000915050610960565b60005b8151811015610d0357610cf9610cf2838381518110610ce457fe5b602002602001015186610d73565b84906120e0565b9250600101610cc9565b505092915050565b600b60209081526000928352604080842090915290825290208054600182015460028301546003909301549192909160ff1684565b60005460ff1681565b600c6020526000908152604090208054600182015460028301546003909301549192909160ff1684565b6000828152600a6020526040812081908190610d8f9085612bc1565b9150915081610da357600092505050610960565b6000610dc26108df6108da84604001518861223790919063ffffffff16565b9050610de2670de0b6b3a76400008284600001511361090a576000610916565b9695505050505050565b60005461010090046001600160a01b031681565b610e0933610946565b610e445760405162461bcd60e51b81526004018080602001828103825260228152602001806139f46022913960400191505060405180910390fd5b61084e600080516020613a88833981519152826109ec565b6001600160a01b0381166000908152600d6020908152604080832080548251818502810185019093528083528493830182828015610eb957602002820191906000526020600020905b815481526020019060010190808311610ea5575b50505050509050805160001415610ed45760009150506107a9565b60005b8151811015610f0957610eff610cf2838381518110610ef257fe5b60200260200101516116fd565b9250600101610ed7565b5050919050565b610f1933610946565b610f545760405162461bcd60e51b81526004018080602001828103825260228152602001806139f46022913960400191505060405180910390fd5b6001600160a01b038116610faa576040805162461bcd60e51b815260206004820152601860248201527741636365737369626c653a207a65726f206164647265737360401b604482015290519081900360640190fd5b336001600160a01b0382161415611001576040805162461bcd60e51b815260206004820152601660248201527520b1b1b2b9b9b4b136329d1039b0b6b29030b236b4b760511b604482015290519081900360640190fd5b611019600080516020613a88833981519152826109ec565b61084e600080516020613a8883398151915233610a53565b600080516020613a8883398151915281565b60035460405163d505accf60e01b81526000916001600160a01b03169063d505accf9061108090339030908c908b908b908b908b906004016134ff565b600060405180830381600087803b15801561109a57600080fd5b505af11580156110ae573d6000803e3d6000fd5b505050506110bc8787611562565b979650505050505050565b6007546001146110e95760405162461bcd60e51b81526004016109b090613926565b60006007819055338152600d6020526040902080546111085750611208565b60005b8154811015611205576000600c600084848154811061112657fe5b6000918252602080832090910154835282810193909352604091820190208151608081018352815481526001820154938101939093526002810154918301919091526003015460ff16158015606083018190529192509061119d5750600083838154811061119057fe5b9060005260206000200154115b80156111ad575060008160400151115b80156111b95750805115155b80156111c9575060008160200151115b80156111d85750428160200151105b156111fc576111fc8383815481106111ec57fe5b9060005260206000200154612607565b5060010161110b565b50505b6001600755565b6003546001600160a01b031681565b6009818154811061122e57600080fd5b600091825260209091206003909102018054600182015460029092015490925083565b60008281526010602052604081206112699083612cb9565b9392505050565b60008281526010602052604081206112699083612cc5565b60095460009061129a575060006107a9565b6000806112a8600985612bc1565b91509150816112bc576000925050506107a9565b6112c68185612138565b905060006112e46108da83604001518761223790919063ffffffff16565b8260200151029050611315670de0b6b3a76400008284600001511361130a576000610916565b8351839003906123cf565b95945050505050565b61132733610946565b6113625760405162461bcd60e51b81526004018080602001828103825260228152602001806139f46022913960400191505060405180910390fd5b600255565b6000908152600c60205260409020805460018201546002909201549092565b600081116113a65760405162461bcd60e51b81526004016109b0906138bf565b6005546113b390826120e0565b600555336000908152600b602090815260408083208584528252808320815160808101835281548152600180830154948201949094526002820154928101929092526003015460ff1615156060820152905490919061142290611417908590612cda565b6020840151906120e0565b60015490915061143c9061143683826123cf565b90612cda565b9050600254428203106114615760405162461bcd60e51b81526004016109b090613707565b428260200151116114845760405162461bcd60e51b81526004016109b090613820565b808260200151106114a75760405162461bcd60e51b81526004016109b090613854565b60008260400151116114cb5760405162461bcd60e51b81526004016109b0906136d7565b6114d83385600084612915565b7fb8596b0e78133666b86648f60233cc2d078144d06df7874ea9f612a3ccc3e2fb338583604051610c4093929190613559565b600054600160a81b900460ff1681565b600081565b600d602052816000526040600020818154811061153c57600080fd5b90600052602060002001600091509150505481565b60045481565b610a4f338383610b1a565b60008083116115835760405162461bcd60e51b81526004016109b0906137e9565b600082116115a35760405162461bcd60e51b81526004016109b0906138bf565b6005546115b090836120e0565b6005556006546115c090846120e0565b6006556001546000906115df906115d8908590612cda565b42906120e0565b6001549091506115f39061143683826123cf565b905060025442820311156116195760405162461bcd60e51b81526004016109b090613707565b336000908152600d602052604090205461167057600880546001810182556000919091527ff3f7a9fe364faab93b216da50a3214154f22a0a2b415b23a84c8169e8b636ee30180546001600160a01b031916331790555b60045461167e9060016120e0565b6004819055915061169133838684612915565b336000818152600d6020908152604080832080546001810182559084529190922001849055517f71fc552ee832a9004ea0bdb07cb6dd9d641eb2cb53b3cfe88c8fdcff886734a0916116e89185908890869061357a565b60405180910390a15092915050565b60055481565b6000818152600a60205260408120548061171b5760009150506107a9565b6000838152600a602052604081208054600019840190811061173957fe5b90600052602060002090600302016040518060600160405290816000820154815260200160018201548152602001600282015481525050905060006117916108df6108da84604001514261223790919063ffffffff16565b9050611315670de0b6b3a76400008284600001511361090a576000610916565b6001600160a01b0381166000908152600d602090815260409182902080548351818402810184019094528084526060939283018282801561181157602002820191906000526020600020905b8154815260200190600101908083116117fd575b50505050509050919050565b6008546060906000906001600160401b038111801561183b57600080fd5b50604051908082528060200260200182016040528015611865578160200160208202803683370190505b5090506000805b6008548110156118dc5760006118a26008838154811061188857fe5b6000918252602090912001546001600160a01b0316611d64565b8051909150156118d357828060010193505060018483815181106118c257fe5b911515602092830291909101909101525b5060010161186c565b506000816001600160401b03811180156118f557600080fd5b5060405190808252806020026020018201604052801561191f578160200160208202803683370190505b5090506000805b6008548110156119a85784818151811061193c57fe5b6020026020010151156119a0576008818154811061195657fe5b600091825260209091200154835160018401936001600160a01b03909216918591811061197f57fe5b60200260200101906001600160a01b031690816001600160a01b0316815250505b600101611926565b5090935050505090565b6060600a6000838152602001908152602001600020805480602002602001604051908101604052809291908181526020016000905b82821015611a3757838290600052602060002090600302016040518060600160405290816000820154815260200160018201548152602001600282015481525050815260200190600101906119e7565b505050509050919050565b600f6020526000908152604090205460ff1681565b60606008805480602002602001604051908101604052809291908181526020018280548015611aaf57602002820191906000526020600020905b81546001600160a01b03168152600190910190602001808311611a91575b5050505050905090565b600081815260106020526040812061096090612d33565b60065481565b7ff0887ba65ee2024ea881d91b74c2450ef19e1557f03bed3ea9f16b037cbe2dc981565b600082815260106020526040902060020154611b189061050461283f565b610aaa5760405162461bcd60e51b8152600401808060200182810382526030815260200180613a376030913960400191505060405180910390fd5b6001600160a01b0381166000908152600d6020526040812054606091805b82811015611c33576001600160a01b0385166000908152600d60205260408120805483908110611b9d57fe5b60009182526020808320909101546001600160a01b0389168352600b8252604080842082855283529283902083516080810185528154815260018201549381018490526002820154948101949094526003015460ff161515606084015292504210801590611c0f575060008160400151115b8015611c1d57506060810151155b15611c29576001909301925b5050600101611b71565b506000816001600160401b0381118015611c4c57600080fd5b50604051908082528060200260200182016040528015611c76578160200160208202803683370190505b5090506000915060005b83811015611d5b576001600160a01b0386166000908152600d60205260408120805483908110611cac57fe5b60009182526020808320909101546001600160a01b038a168352600b8252604080842082855283529283902083516080810185528154815260018201549381018490526002820154948101949094526003015460ff161515606084015292504210801590611d1e575060008160400151115b8015611d2c57506060810151155b15611d515781848680600101975081518110611d4457fe5b6020026020010181815250505b5050600101611c80565b50949350505050565b6001600160a01b0381166000908152600d6020526040812054606091805b82811015611e25576001600160a01b0385166000908152600d60205260408120805483908110611dae57fe5b60009182526020808320909101546001600160a01b0389168352600b8252604080842082855283529283902083516080810185528154815260018201549381018490526002820154948101949094526003015460ff16151560608401529250421015611e1b576001909301925b5050600101611d82565b506000816001600160401b0381118015611e3e57600080fd5b50604051908082528060200260200182016040528015611e68578160200160208202803683370190505b5090506000915060005b83811015611d5b576001600160a01b0386166000908152600d60205260408120805483908110611e9e57fe5b60009182526020808320909101546001600160a01b038a168352600b8252604080842082855283529283902083516080810185528154815260018201549381018490526002820154948101949094526003015460ff16151560608401529250421015611f245781848680600101975081518110611f1757fe5b6020026020010181815250505b5050600101611e72565b6003546040516370a0823160e01b81526000916001600160a01b0316906370a0823190611f5f9030906004016134c7565b60206040518083038186803b158015611f7757600080fd5b505afa158015611f8b573d6000803e3d6000fd5b505050506040513d601f19601f82011682018060405250810190611faf9190613458565b905090565b6001600160a01b0381166000908152600d602052604081205481805b828110156107a4576001600160a01b0385166000908152600d60205260408120805483908110611ffc57fe5b60009182526020808320909101546001600160a01b0389168352600b8252604080842082855283529283902083516080810185528154815260018201549381018490526002820154948101949094526003015460ff16151560608401529250421080159061206e575060008160400151115b801561207c57506060810151155b156120945760408101516120919085906120e0565b93505b5050600101611fd0565b600881815481106120ae57600080fd5b6000918252602090912001546001600160a01b0316905081565b600e6020526000908152604090205481565b60015481565b600082820183811015611269576040805162461bcd60e51b815260206004820152601b60248201527a536166654d6174683a206164646974696f6e206f766572666c6f7760281b604482015290519081900360640190fd5b612140613327565b60015460408401516000916121599161143690826123cf565b90505b82811461222f5761218161217b600154836120e090919063ffffffff16565b84612d3e565b6000818152600e60205260408082205490870151929350916121b4906108da906121ac908690612237565b600154612d3e565b90506121d86121d08288602001516122c190919063ffffffff16565b87519061236a565b865260208601516121e99083612d54565b602087015285516000126121fe576000612201565b85515b8652602086015160001261221657600061221c565b85602001515b602087015250506040840181905261215c565b509192915050565b600061126983836040518060400160405280601e81526020017f536166654d6174683a207375627472616374696f6e206f766572666c6f770000815250612db9565b6000600160ff1b82106122bd5760405162461bcd60e51b8152600401808060200182810382526028815260200180613acf6028913960400191505060405180910390fd5b5090565b6000826122d057506000610960565b826000191480156122e45750600160ff1b82145b156123205760405162461bcd60e51b8152600401808060200182810382526027815260200180613aa86027913960400191505060405180910390fd5b8282028284828161232d57fe5b05146112695760405162461bcd60e51b8152600401808060200182810382526027815260200180613aa86027913960400191505060405180910390fd5b600081830381831280159061237f5750838113155b80612394575060008312801561239457508381135b6112695760405162461bcd60e51b8152600401808060200182810382526024815260200180613af76024913960400191505060405180910390fd5b600061126983836040518060400160405280601a815260200179536166654d6174683a206469766973696f6e206279207a65726f60301b815250612e50565b612416613327565b6009544290156124705760098054600019810190811061243257fe5b906000526020600020906003020160405180606001604052908160008201548152602001600182015481526020016002820154815250509150612490565b604051806060016040528060008152602001600081526020018281525091505b60015460408301516000916124a99161143690826123cf565b90505b818114612602576124d16124cb600154836120e090919063ffffffff16565b83612d3e565b6000818152600e60205260408082205490860151929350916124fc906108da906121ac908690612237565b90506125206125188287602001516122c190919063ffffffff16565b86519061236a565b855260208501516125319083612d54565b60208601528451600012612546576000612549565b84515b8552602085015160001261255e576000612564565b84602001515b60208601908152604086018481526009805460018101825560009190915287517f6e1540171b6c0c960b71a7020d9f60077f6af931a8bbf590da0223dacf75c7af60039092029182015591517f6e1540171b6c0c960b71a7020d9f60077f6af931a8bbf590da0223dacf75c7b0830155517f6e1540171b6c0c960b71a7020d9f60077f6af931a8bbf590da0223dacf75c7b190910155506124ac9050565b505090565b336000908152600b6020908152604080832084845282529182902082516080810184528154815260018201549281019290925260028101549282019290925260039091015460ff1615801560608301526126735760405162461bcd60e51b81526004016109b090613793565b80516126915760405162461bcd60e51b81526004016109b090613958565b428160200151106126b45760405162461bcd60e51b81526004016109b0906138f6565b60008160400151116126d85760405162461bcd60e51b81526004016109b0906136a8565b6040805160808101825260008082526020820181905291810191909152600160608201526127068183612eb5565b604080830151336000818152600b60209081528482208883528152848220865181558187018051600180840191909155888801805160028086019190915560608b0180516003968701805491151560ff19928316179055600c909752968a90208b5181559351928401929092555190820155925192810180549315159390921692909217905554925163a9059cbb60e01b815291926001600160a01b03169163a9059cbb916127b9918590600401613540565b602060405180830381600087803b1580156127d357600080fd5b505af11580156127e7573d6000803e3d6000fd5b505050506040513d601f19601f8201168201806040525081019061280b91906133d4565b507ff1206247bdd5e2e0cfc00bea4cf05fb8dc479ebee686f9549043179cc7013b30338583604051610c4093929190613559565b3390565b600082815260106020526040902061285b90826130ab565b15610a4f5761286861283f565b6001600160a01b0316816001600160a01b0316837f2f8788117e7eff1d82e926ec794901d17c78024a50270940304540a733656f0d60405160405180910390a45050565b60008281526010602052604090206128c490826130c0565b15610a4f576128d161283f565b6001600160a01b0316816001600160a01b0316837ff6391f5c32d9c69d2a47ea670b442974b53935d1edc7fd64eb21e047a839171b60405160405180910390a45050565b6007546001146129375760405162461bcd60e51b81526004016109b090613926565b600060078190556001600160a01b0385168152600b602090815260408083208684528252808320815160808082018452825482526001830154828601908152600284015483860190815260039094015460ff16151560608085019190915285519283018652835183529051958201959095529151928201839052928101939093529091906129c590856120e0565b604082015282156129d857602081018390525b80516129e2574281525b6129ec8183612eb5565b6001600160a01b0386166000908152600b60209081526040808320888452825280832084518155828501805160018084019190915583870180516002808601919091556060890180516003968701805491151560ff19928316179055600c9098529588208951815593519284019290925551828201819055935191909201805491151591909416179092559054612a94916108da919061091690670de0b6b3a7640000612cda565b90506000612abc612ab56108da42866020015161223790919063ffffffff16565b83906122c1565b6040805160608101825282815260208082018681524283850190815260008d8152600a84528581208054600181810183559183529490912085516003958602909101908155925190830155516002909101555491516323b872dd60e01b8152929350916001600160a01b03909116906323b872dd90612b4390339030908c906004016134db565b602060405180830381600087803b158015612b5d57600080fd5b505af1158015612b71573d6000803e3d6000fd5b505050506040513d601f19601f82011682018060405250810190612b9591906133d4565b612bb15760405162461bcd60e51b81526004016109b09061388b565b5050600160075550505050505050565b6000612bcb613327565b8354612bda5760009150612cb2565b83546000905b80826001011015612c34576000612bfc600261091685856120e0565b905085878281548110612c0b57fe5b90600052602060002090600302016002015411612c2a57809250612c2e565b8091505b50612be0565b84868381548110612c4157fe5b90600052602060002090600302016002015411612cab576001868381548110612c6657fe5b90600052602060002090600302018060405180606001604052908160008201548152602001600182015481526020016002820154815250509050935093505050612cb2565b6000935050505b9250929050565b600061126983836130d5565b6000611269836001600160a01b038416613139565b600082612ce957506000610960565b82820282848281612cf657fe5b04146112695760405162461bcd60e51b8152600401808060200182810382526021815260200180613a676021913960400191505060405180910390fd5b600061096082613151565b6000818310612d4d5781611269565b5090919050565b6000828201818312801590612d695750838112155b80612d7e5750600083128015612d7e57508381125b6112695760405162461bcd60e51b8152600401808060200182810382526021815260200180613a166021913960400191505060405180910390fd5b60008184841115612e485760405162461bcd60e51b81526004018080602001828103825283818151815260200191508051906020019080838360005b83811015612e0d578181015183820152602001612df5565b50505050905090810190601f168015612e3a5780820380516001836020036101000a031916815260200191505b509250505060405180910390fd5b505050900390565b60008183612e9f5760405162461bcd60e51b8152602060048201818152835160248401528351909283926044909101919085019080838360008315612e0d578181015183820152602001612df5565b506000838581612eab57fe5b0495945050505050565b60408051606080820183526000808352602080840182905283850182905284519283018552818352828101829052938201529184015142929083108015612f00575060008560400151115b15612f5857612f2d6108da600254610916670de0b6b3a76400008960400151612cda90919063ffffffff16565b602080840191909152850151612f4b906108df906108da9086612237565b8252602085015160408301525b828460200151118015612f6f575060008460400151115b15612fd257612f9c6108da600254610916670de0b6b3a76400008860400151612cda90919063ffffffff16565b602080830191909152840151612fc590612fba906108da9086612237565b6020830151906122c1565b8152602084015160408201525b6000612fdc61240e565b82518451919250612ff891612ff09161236a565b825190612d54565b81526020808301519084015161301d91613012919061236a565b602083015190612d54565b60208201528051600012613032576000613035565b80515b8152602081015160001261304a576000613050565b80602001515b602082015260098054829190600019810190811061306a57fe5b90600052602060002090600302016000820151816000015560208201518160010155604082015181600201559050506130a38383613155565b505050505050565b6000611269836001600160a01b038416613217565b6000611269836001600160a01b038416613261565b815460009082106131175760405162461bcd60e51b81526004018080602001828103825260228152602001806139a36022913960400191505060405180910390fd5b82600001828154811061312657fe5b9060005260206000200154905092915050565b60009081526001919091016020526040902054151590565b5490565b6040808301516000908152600e6020528181205483830180518352929091205491519091904210156131cb576020830151613191908290612d54565b90508360400151836040015114156131b65760208401516131b390829061236a565b90505b6040808401516000908152600e602052208190555b4284604001511180156131e5575082604001518460400151115b156132115760208401516131fa90839061236a565b6040808601516000908152600e6020522081905591505b50505050565b60006132238383613139565b61325957508154600181810184556000848152602080822090930184905584548482528286019093526040902091909155610960565b506000610960565b6000818152600183016020526040812054801561331d578354600019808301919081019060009087908390811061329457fe5b90600052602060002001549050808760000184815481106132b157fe5b6000918252602080832090910192909255828152600189810190925260409020908401905586548790806132e157fe5b60019003818190600052602060002001600090559055866001016000878152602001908152602001600020600090556001945050505050610960565b6000915050610960565b60405180606001604052806000815260200160008152602001600081525090565b80356001600160a01b03811681146107a957600080fd5b600060208284031215613370578081fd5b61126982613348565b6000806040838503121561338b578081fd5b61339483613348565b946020939093013593505050565b6000806000606084860312156133b6578081fd5b6133bf84613348565b95602085013595506040909401359392505050565b6000602082840312156133e5578081fd5b81518015158114611269578182fd5b600060208284031215613405578081fd5b5035919050565b6000806040838503121561341e578182fd5b8235915061342e60208401613348565b90509250929050565b60008060408385031215613449578182fd5b50508035926020909101359150565b600060208284031215613469578081fd5b5051919050565b60008060008060008060c08789031215613488578182fd5b863595506020870135945060408701359350606087013560ff811681146134ad578283fd5b9598949750929560808101359460a0909101359350915050565b6001600160a01b0391909116815260200190565b6001600160a01b039384168152919092166020820152604081019190915260600190565b6001600160a01b0397881681529590961660208601526040850193909352606084019190915260ff16608083015260a082015260c081019190915260e00190565b6001600160a01b03929092168252602082015260400190565b6001600160a01b039390931683526020830191909152604082015260600190565b6001600160a01b0394909416845260208401929092526040830152606082015260800190565b6020808252825182820181905260009190848201906040850190845b818110156135e15783516001600160a01b0316835292840192918401916001016135bc565b50909695505050505050565b602080825282518282018190526000919060409081850190868401855b82811015613639578151805185528681015187860152850151858501526060909301929085019060010161360a565b5091979650505050505050565b6020808252825182820181905260009190848201906040850190845b818110156135e157835183529284019291840191600101613662565b901515815260200190565b90815260200190565b9283526020830191909152604082015260600190565b6020808252601590820152744e6f20616d6f756e7420746f20776974686472617760581b604082015260600190565b6020808252601690820152754e6f206578697374696e67206c6f636b656420544f5360501b604082015260600190565b6020808252601a90820152794d617820756e6c6f636b2074696d65206973203320796561727360301b604082015260600190565b6020808252600f908201526e5f6c6f636b4964206973207a65726f60881b604082015260600190565b602080825260159082015274131bd8dac81d1a5b59481a5cc8199a5b9a5cda1959605a1b604082015260600190565b60208082526011908201527020b63932b0b23c903bb4ba34323930bbb760791b604082015260600190565b6020808252601190820152702637b1b59034b9903bb4ba34323930bbb760791b604082015260600190565b6020808252601f908201527f56616c7565206c6f636b65642073686f756c64206265206e6f6e2d7a65726f00604082015260600190565b6020808252601a9082015279131bd8dac81d1a5b5948185b1c9958591e48199a5b9a5cda195960321b604082015260600190565b6020808252601d908201527f4e6577206c6f636b2074696d65206d7573742062652067726561746572000000604082015260600190565b6020808252601a90820152794c6f636b544f533a206661696c207472616e7366657246726f6d60301b604082015260600190565b6020808252601e908201527f556e6c6f636b20706572696f64206c657373207468616e2061207765656b0000604082015260600190565b602080825260169082015275131bd8dac81d1a5b59481b9bdd08199a5b9a5cda195960521b604082015260600190565b6020808252601890820152774c6f636b496420697320616c726561647920696e2075736560401b604082015260600190565b602080825260139082015272131bd8dac8191bd95cc81b9bdd08195e1a5cdd606a1b604082015260600190565b93845260208401929092526040830152151560608201526080019056fe456e756d657261626c655365743a20696e646578206f7574206f6620626f756e6473416363657373436f6e74726f6c3a2073656e646572206d75737420626520616e2061646d696e20746f206772616e7441636365737369626c653a2043616c6c6572206973206e6f7420616e2061646d696e5369676e6564536166654d6174683a206164646974696f6e206f766572666c6f77416363657373436f6e74726f6c3a2073656e646572206d75737420626520616e2061646d696e20746f207265766f6b65536166654d6174683a206d756c7469706c69636174696f6e206f766572666c6f77df8b4c520ffe197c5343c6f5aec59570151ef9a492f2c624fd45ddde6135ec425369676e6564536166654d6174683a206d756c7469706c69636174696f6e206f766572666c6f7753616665436173743a2076616c756520646f65736e27742066697420696e20616e20696e743235365369676e6564536166654d6174683a207375627472616374696f6e206f766572666c6f77416363657373436f6e74726f6c3a2063616e206f6e6c792072656e6f756e636520726f6c657320666f722073656c66a264697066735822122042bba88c64a78a938ed6af55bd09dcee8930fdcae4daba033cfef0a8eb7eb9ab64736f6c63430007060033",
  "linkReferences": {},
  "deployedLinkReferences": {}
}