{
  "_format": "hh-sol-artifact-1",
  "contractName": "LockTOSProxy",
  "sourceName": "contracts/stake/LockTOSProxy.sol",
  "abi": [
    {
      "inputs": [
        {
          "internalType": "address",
          "name": "_impl",
          "type": "address"
        },
        {
          "internalType": "address",
          "name": "_admin",
          "type": "address"
        }
      ],
      "stateMutability": "nonpayable",
      "type": "constructor"
    },
    {
      "anonymous": false,
      "inputs": [
        {
          "indexed": true,
          "internalType": "bytes32",
          "name": "role",
          "type": "bytes32"
        },
        {
          "indexed": true,
          "internalType": "bytes32",
          "name": "previousAdminRole",
          "type": "bytes32"
        },
        {
          "indexed": true,
          "internalType": "bytes32",
          "name": "newAdminRole",
          "type": "bytes32"
        }
      ],
      "name": "RoleAdminChanged",
      "type": "event"
    },
    {
      "anonymous": false,
      "inputs": [
        {
          "indexed": true,
          "internalType": "bytes32",
          "name": "role",
          "type": "bytes32"
        },
        {
          "indexed": true,
          "internalType": "address",
          "name": "account",
          "type": "address"
        },
        {
          "indexed": true,
          "internalType": "address",
          "name": "sender",
          "type": "address"
        }
      ],
      "name": "RoleGranted",
      "type": "event"
    },
    {
      "anonymous": false,
      "inputs": [
        {
          "indexed": true,
          "internalType": "bytes32",
          "name": "role",
          "type": "bytes32"
        },
        {
          "indexed": true,
          "internalType": "address",
          "name": "account",
          "type": "address"
        },
        {
          "indexed": true,
          "internalType": "address",
          "name": "sender",
          "type": "address"
        }
      ],
      "name": "RoleRevoked",
      "type": "event"
    },
    {
      "anonymous": false,
      "inputs": [
        {
          "indexed": true,
          "internalType": "address",
          "name": "implementation",
          "type": "address"
        }
      ],
      "name": "Upgraded",
      "type": "event"
    },
    {
      "stateMutability": "payable",
      "type": "fallback"
    },
    {
      "inputs": [],
      "name": "ADMIN_ROLE",
      "outputs": [
        {
          "internalType": "bytes32",
          "name": "",
          "type": "bytes32"
        }
      ],
      "stateMutability": "view",
      "type": "function"
    },
    {
      "inputs": [],
      "name": "BURNER_ROLE",
      "outputs": [
        {
          "internalType": "bytes32",
          "name": "",
          "type": "bytes32"
        }
      ],
      "stateMutability": "view",
      "type": "function"
    },
    {
      "inputs": [],
      "name": "DEFAULT_ADMIN_ROLE",
      "outputs": [
        {
          "internalType": "bytes32",
          "name": "",
          "type": "bytes32"
        }
      ],
      "stateMutability": "view",
      "type": "function"
    },
    {
      "inputs": [],
      "name": "MINTER_ROLE",
      "outputs": [
        {
          "internalType": "bytes32",
          "name": "",
          "type": "bytes32"
        }
      ],
      "stateMutability": "view",
      "type": "function"
    },
    {
      "inputs": [],
      "name": "MULTIPLIER",
      "outputs": [
        {
          "internalType": "uint256",
          "name": "",
          "type": "uint256"
        }
      ],
      "stateMutability": "view",
      "type": "function"
    },
    {
      "inputs": [],
      "name": "PROJECT_ADMIN_ROLE",
      "outputs": [
        {
          "internalType": "bytes32",
          "name": "",
          "type": "bytes32"
        }
      ],
      "stateMutability": "view",
      "type": "function"
    },
    {
      "inputs": [
        {
          "internalType": "address",
          "name": "account",
          "type": "address"
        }
      ],
      "name": "addAdmin",
      "outputs": [],
      "stateMutability": "nonpayable",
      "type": "function"
    },
    {
      "inputs": [
        {
          "internalType": "uint256",
          "name": "",
          "type": "uint256"
        }
      ],
      "name": "allLocks",
      "outputs": [
        {
          "internalType": "uint256",
          "name": "start",
          "type": "uint256"
        },
        {
          "internalType": "uint256",
          "name": "end",
          "type": "uint256"
        },
        {
          "internalType": "uint256",
          "name": "amount",
          "type": "uint256"
        },
        {
          "internalType": "bool",
          "name": "withdrawn",
          "type": "bool"
        }
      ],
      "stateMutability": "view",
      "type": "function"
    },
    {
      "inputs": [],
      "name": "cumulativeEpochUnit",
      "outputs": [
        {
          "internalType": "uint256",
          "name": "",
          "type": "uint256"
        }
      ],
      "stateMutability": "view",
      "type": "function"
    },
    {
      "inputs": [],
      "name": "cumulativeTOSAmount",
      "outputs": [
        {
          "internalType": "uint256",
          "name": "",
          "type": "uint256"
        }
      ],
      "stateMutability": "view",
      "type": "function"
    },
    {
      "inputs": [],
      "name": "epochUnit",
      "outputs": [
        {
          "internalType": "uint256",
          "name": "",
          "type": "uint256"
        }
      ],
      "stateMutability": "view",
      "type": "function"
    },
    {
      "inputs": [
        {
          "internalType": "bytes32",
          "name": "role",
          "type": "bytes32"
        }
      ],
      "name": "getRoleAdmin",
      "outputs": [
        {
          "internalType": "bytes32",
          "name": "",
          "type": "bytes32"
        }
      ],
      "stateMutability": "view",
      "type": "function"
    },
    {
      "inputs": [
        {
          "internalType": "bytes32",
          "name": "role",
          "type": "bytes32"
        },
        {
          "internalType": "uint256",
          "name": "index",
          "type": "uint256"
        }
      ],
      "name": "getRoleMember",
      "outputs": [
        {
          "internalType": "address",
          "name": "",
          "type": "address"
        }
      ],
      "stateMutability": "view",
      "type": "function"
    },
    {
      "inputs": [
        {
          "internalType": "bytes32",
          "name": "role",
          "type": "bytes32"
        }
      ],
      "name": "getRoleMemberCount",
      "outputs": [
        {
          "internalType": "uint256",
          "name": "",
          "type": "uint256"
        }
      ],
      "stateMutability": "view",
      "type": "function"
    },
    {
      "inputs": [
        {
          "internalType": "bytes32",
          "name": "role",
          "type": "bytes32"
        },
        {
          "internalType": "address",
          "name": "account",
          "type": "address"
        }
      ],
      "name": "grantRole",
      "outputs": [],
      "stateMutability": "nonpayable",
      "type": "function"
    },
    {
      "inputs": [
        {
          "internalType": "bytes32",
          "name": "role",
          "type": "bytes32"
        },
        {
          "internalType": "address",
          "name": "account",
          "type": "address"
        }
      ],
      "name": "hasRole",
      "outputs": [
        {
          "internalType": "bool",
          "name": "",
          "type": "bool"
        }
      ],
      "stateMutability": "view",
      "type": "function"
    },
    {
      "inputs": [],
      "name": "implementation",
      "outputs": [
        {
          "internalType": "address",
          "name": "",
          "type": "address"
        }
      ],
      "stateMutability": "view",
      "type": "function"
    },
    {
      "inputs": [
        {
          "internalType": "uint256",
          "name": "",
          "type": "uint256"
        }
      ],
      "name": "inUse",
      "outputs": [
        {
          "internalType": "bool",
          "name": "",
          "type": "bool"
        }
      ],
      "stateMutability": "view",
      "type": "function"
    },
    {
      "inputs": [
        {
          "internalType": "address",
          "name": "_tos",
          "type": "address"
        },
        {
          "internalType": "uint256",
          "name": "_epochUnit",
          "type": "uint256"
        },
        {
          "internalType": "uint256",
          "name": "_maxTime",
          "type": "uint256"
        }
      ],
      "name": "initialize",
      "outputs": [],
      "stateMutability": "nonpayable",
      "type": "function"
    },
    {
      "inputs": [
        {
          "internalType": "address",
          "name": "account",
          "type": "address"
        }
      ],
      "name": "isAdmin",
      "outputs": [
        {
          "internalType": "bool",
          "name": "",
          "type": "bool"
        }
      ],
      "stateMutability": "view",
      "type": "function"
    },
    {
      "inputs": [],
      "name": "lockIdCounter",
      "outputs": [
        {
          "internalType": "uint256",
          "name": "",
          "type": "uint256"
        }
      ],
      "stateMutability": "view",
      "type": "function"
    },
    {
      "inputs": [
        {
          "internalType": "uint256",
          "name": "",
          "type": "uint256"
        },
        {
          "internalType": "uint256",
          "name": "",
          "type": "uint256"
        }
      ],
      "name": "lockPointHistory",
      "outputs": [
        {
          "internalType": "int256",
          "name": "bias",
          "type": "int256"
        },
        {
          "internalType": "int256",
          "name": "slope",
          "type": "int256"
        },
        {
          "internalType": "uint256",
          "name": "timestamp",
          "type": "uint256"
        }
      ],
      "stateMutability": "view",
      "type": "function"
    },
    {
      "inputs": [
        {
          "internalType": "address",
          "name": "",
          "type": "address"
        },
        {
          "internalType": "uint256",
          "name": "",
          "type": "uint256"
        }
      ],
      "name": "lockedBalances",
      "outputs": [
        {
          "internalType": "uint256",
          "name": "start",
          "type": "uint256"
        },
        {
          "internalType": "uint256",
          "name": "end",
          "type": "uint256"
        },
        {
          "internalType": "uint256",
          "name": "amount",
          "type": "uint256"
        },
        {
          "internalType": "bool",
          "name": "withdrawn",
          "type": "bool"
        }
      ],
      "stateMutability": "view",
      "type": "function"
    },
    {
      "inputs": [],
      "name": "maxTime",
      "outputs": [
        {
          "internalType": "uint256",
          "name": "",
          "type": "uint256"
        }
      ],
      "stateMutability": "view",
      "type": "function"
    },
    {
      "inputs": [],
      "name": "migratedL2",
      "outputs": [
        {
          "internalType": "bool",
          "name": "",
          "type": "bool"
        }
      ],
      "stateMutability": "view",
      "type": "function"
    },
    {
      "inputs": [],
      "name": "pauseProxy",
      "outputs": [
        {
          "internalType": "bool",
          "name": "",
          "type": "bool"
        }
      ],
      "stateMutability": "view",
      "type": "function"
    },
    {
      "inputs": [
        {
          "internalType": "uint256",
          "name": "",
          "type": "uint256"
        }
      ],
      "name": "pointHistory",
      "outputs": [
        {
          "internalType": "int256",
          "name": "bias",
          "type": "int256"
        },
        {
          "internalType": "int256",
          "name": "slope",
          "type": "int256"
        },
        {
          "internalType": "uint256",
          "name": "timestamp",
          "type": "uint256"
        }
      ],
      "stateMutability": "view",
      "type": "function"
    },
    {
      "inputs": [
        {
          "internalType": "address",
          "name": "account",
          "type": "address"
        }
      ],
      "name": "removeAdmin",
      "outputs": [],
      "stateMutability": "nonpayable",
      "type": "function"
    },
    {
      "inputs": [
        {
          "internalType": "bytes32",
          "name": "role",
          "type": "bytes32"
        },
        {
          "internalType": "address",
          "name": "account",
          "type": "address"
        }
      ],
      "name": "renounceRole",
      "outputs": [],
      "stateMutability": "nonpayable",
      "type": "function"
    },
    {
      "inputs": [
        {
          "internalType": "bytes32",
          "name": "role",
          "type": "bytes32"
        },
        {
          "internalType": "address",
          "name": "account",
          "type": "address"
        }
      ],
      "name": "revokeRole",
      "outputs": [],
      "stateMutability": "nonpayable",
      "type": "function"
    },
    {
      "inputs": [
        {
          "internalType": "bool",
          "name": "_pause",
          "type": "bool"
        }
      ],
      "name": "setProxyPause",
      "outputs": [],
      "stateMutability": "nonpayable",
      "type": "function"
    },
    {
      "inputs": [
        {
          "internalType": "uint256",
          "name": "",
          "type": "uint256"
        }
      ],
      "name": "slopeChanges",
      "outputs": [
        {
          "internalType": "int256",
          "name": "",
          "type": "int256"
        }
      ],
      "stateMutability": "view",
      "type": "function"
    },
    {
      "inputs": [],
      "name": "stakeRegistry",
      "outputs": [
        {
          "internalType": "address",
          "name": "",
          "type": "address"
        }
      ],
      "stateMutability": "view",
      "type": "function"
    },
    {
      "inputs": [],
      "name": "tos",
      "outputs": [
        {
          "internalType": "address",
          "name": "",
          "type": "address"
        }
      ],
      "stateMutability": "view",
      "type": "function"
    },
    {
      "inputs": [
        {
          "internalType": "address",
          "name": "newAdmin",
          "type": "address"
        }
      ],
      "name": "transferAdmin",
      "outputs": [],
      "stateMutability": "nonpayable",
      "type": "function"
    },
    {
      "inputs": [
        {
          "internalType": "uint256",
          "name": "",
          "type": "uint256"
        }
      ],
      "name": "uniqueUsers",
      "outputs": [
        {
          "internalType": "address",
          "name": "",
          "type": "address"
        }
      ],
      "stateMutability": "view",
      "type": "function"
    },
    {
      "inputs": [
        {
          "internalType": "address",
          "name": "impl",
          "type": "address"
        }
      ],
      "name": "upgradeTo",
      "outputs": [],
      "stateMutability": "nonpayable",
      "type": "function"
    },
    {
      "inputs": [
        {
          "internalType": "address",
          "name": "",
          "type": "address"
        },
        {
          "internalType": "uint256",
          "name": "",
          "type": "uint256"
        }
      ],
      "name": "userLocks",
      "outputs": [
        {
          "internalType": "uint256",
          "name": "",
          "type": "uint256"
        }
      ],
      "stateMutability": "view",
      "type": "function"
    },
    {
      "stateMutability": "payable",
      "type": "receive"
    }
  ],
  "bytecode": "0x608060405260016007553480156200001657600080fd5b506040516200190c3803806200190c833981810160405260408110156200003c57600080fd5b5080516020909101516001600160a01b038216620000a1576040805162461bcd60e51b815260206004820152601b60248201527f4c6f636b544f5350726f78793a206c6f676963206973207a65726f0000000000604482015290519081900360640190fd5b620000ac82620000f9565b620000c7600080516020620018a68339815191528062000170565b620000e2600080516020620018a683398151915282620001c2565b5050600060048190556005819055600655620002de565b6200010f81620001d260201b620010db1760201c565b6200014c5760405162461bcd60e51b8152600401808060200182810382526046815260200180620018c66046913960600191505060405180910390fd5b7f360894a13ba1a3210667c828492db98dca3e2076cc3735a920a3ca505d382bbc55565b600082815260106020526040808220600201549051839285917fbd79b86ffe0ab8e8776151514217cd7cacd52c909f66475c3af44e129f0b00ff9190a460009182526010602052604090912060020155565b620001ce8282620001d8565b5050565b3b151590565b6000828152601060209081526040909120620001ff918390620010e162000253821b17901c565b15620001ce576200020f62000273565b6001600160a01b0316816001600160a01b0316837f2f8788117e7eff1d82e926ec794901d17c78024a50270940304540a733656f0d60405160405180910390a45050565b60006200026a836001600160a01b03841662000277565b90505b92915050565b3390565b6000620002858383620002c6565b620002bd575081546001818101845560008481526020808220909301849055845484825282860190935260409020919091556200026d565b5060006200026d565b60009081526001919091016020526040902054151590565b6115b880620002ee6000396000f3fe6080604052600436106101b95760003560e01c8063059f8b161461020c5780631785f53c1461023357806322e67e7114610266578063248a9ca31461027b57806324d7806c146102a5578063282c51f3146102ec5780632f2ff15d1461030157806336568abe1461033a5780633659cfe614610373578063367b7b23146103a657806341c04d5e146103f45780635c60da1b146104095780635d16a6f91461043a57806363a8fd891461049b57806363d5a3d9146104b057806368304835146104da57806370480275146104ef57806375829def1461052257806375b238fc146105555780637a1ac61e1461056a5780637cb00d25146105a957806389f395de146105d55780638ad4c447146105ea5780639010d07c1461061457806391d1485414610644578063a1f5f50e1461067d578063a217fddf14610692578063aa33fedb146106a7578063afae883e146106e0578063b534ad56146106f5578063c79acdda1461070a578063ca15c87314610734578063cd29ca0e1461075e578063d539139314610773578063d547741f14610788578063ed50c699146107c1578063f52a36f7146107eb578063fd2dcecf1461081557610202565b36610202576040805162461bcd60e51b815260206004820152601460248201527331b0b73737ba103932b1b2b4bb329022ba3432b960611b604482015290519081900360640190fd5b61020a61082a565b005b34801561021857600080fd5b506102216108b0565b60408051918252519081900360200190f35b34801561023f57600080fd5b5061020a6004803603602081101561025657600080fd5b50356001600160a01b03166108bc565b34801561027257600080fd5b5061022161091b565b34801561028757600080fd5b506102216004803603602081101561029e57600080fd5b5035610921565b3480156102b157600080fd5b506102d8600480360360208110156102c857600080fd5b50356001600160a01b0316610936565b604080519115158252519081900360200190f35b3480156102f857600080fd5b50610221610956565b34801561030d57600080fd5b5061020a6004803603604081101561032457600080fd5b50803590602001356001600160a01b031661097a565b34801561034657600080fd5b5061020a6004803603604081101561035d57600080fd5b50803590602001356001600160a01b03166109e6565b34801561037f57600080fd5b5061020a6004803603602081101561039657600080fd5b50356001600160a01b0316610a47565b3480156103b257600080fd5b506103d6600480360360408110156103c957600080fd5b5080359060200135610b87565b60408051938452602084019290925282820152519081900360600190f35b34801561040057600080fd5b50610221610bc9565b34801561041557600080fd5b5061041e610bed565b604080516001600160a01b039092168252519081900360200190f35b34801561044657600080fd5b506104736004803603604081101561045d57600080fd5b506001600160a01b038135169060200135610bfc565b6040805194855260208501939093528383019190915215156060830152519081900360800190f35b3480156104a757600080fd5b506102d8610c31565b3480156104bc57600080fd5b50610473600480360360208110156104d357600080fd5b5035610c3a565b3480156104e657600080fd5b5061041e610c64565b3480156104fb57600080fd5b5061020a6004803603602081101561051257600080fd5b50356001600160a01b0316610c78565b34801561052e57600080fd5b5061020a6004803603602081101561054557600080fd5b50356001600160a01b0316610cd4565b34801561056157600080fd5b50610221610df5565b34801561057657600080fd5b5061020a6004803603606081101561058d57600080fd5b506001600160a01b038135169060208101359060400135610e07565b3480156105b557600080fd5b5061020a600480360360208110156105cc57600080fd5b50351515610ec8565b3480156105e157600080fd5b5061041e610f1f565b3480156105f657600080fd5b506103d66004803603602081101561060d57600080fd5b5035610f2e565b34801561062057600080fd5b5061041e6004803603604081101561063757600080fd5b5080359060200135610f61565b34801561065057600080fd5b506102d86004803603604081101561066757600080fd5b50803590602001356001600160a01b0316610f80565b34801561068957600080fd5b506102d8610f98565b34801561069e57600080fd5b50610221610fa8565b3480156106b357600080fd5b50610221600480360360408110156106ca57600080fd5b506001600160a01b038135169060200135610fad565b3480156106ec57600080fd5b50610221610fde565b34801561070157600080fd5b50610221610fe4565b34801561071657600080fd5b506102d86004803603602081101561072d57600080fd5b5035610fea565b34801561074057600080fd5b506102216004803603602081101561075757600080fd5b5035610fff565b34801561076a57600080fd5b50610221611016565b34801561077f57600080fd5b5061022161101c565b34801561079457600080fd5b5061020a600480360360408110156107ab57600080fd5b50803590602001356001600160a01b0316611040565b3480156107cd57600080fd5b5061041e600480360360208110156107e457600080fd5b5035611099565b3480156107f757600080fd5b506102216004803603602081101561080e57600080fd5b50356110c3565b34801561082157600080fd5b506102216110d5565b60006108346110f6565b90506001600160a01b03811615801590610851575060005460ff16155b61088c5760405162461bcd60e51b81526004018080602001828103825260248152602001806114ea6024913960400191505060405180910390fd5b3660008037600080366000845af43d6000803e8080156108ab573d6000f35b3d6000fd5b670de0b6b3a764000081565b6108c533610936565b6109005760405162461bcd60e51b81526004018080602001828103825260228152602001806114586022913960400191505060405180910390fd5b6109186000805160206114ca833981519152826109e6565b50565b60025481565b60009081526010602052604090206002015490565b60006109506000805160206114ca83398151915283610f80565b92915050565b7f9667e80708b6eeeb0053fa0cca44e028ff548e2a9f029edfeac87c118b08b7c881565b60008281526010602052604090206002015461099d90610998611109565b610f80565b6109d85760405162461bcd60e51b815260040180806020018281038252602f815260200180611429602f913960400191505060405180910390fd5b6109e2828261110d565b5050565b6109ee611109565b6001600160a01b0316816001600160a01b031614610a3d5760405162461bcd60e51b815260040180806020018281038252602f815260200180611554602f913960400191505060405180910390fd5b6109e28282611176565b610a5033610936565b610a8b5760405162461bcd60e51b81526004018080602001828103825260228152602001806114586022913960400191505060405180910390fd5b6001600160a01b038116610ae4576040805162461bcd60e51b815260206004820152601b60248201527a4c6f636b544f5350726f78793a20696e707574206973207a65726f60281b604482015290519081900360640190fd5b806001600160a01b0316610af66110f6565b6001600160a01b03161415610b47576040805162461bcd60e51b81526020600482015260126024820152714c6f636b544f5350726f78793a2073616d6560701b604482015290519081900360640190fd5b610b50816111df565b6040516001600160a01b038216907fbc7cd75a20ee27fd9adebab32041f755214dbc6bffa90cc0225b39da2e5c2d3b90600090a250565b600a6020528160005260406000208181548110610ba357600080fd5b600091825260209091206003909102018054600182015460029092015490935090915083565b7f52eafc11f6f81f86878bffd31109a0d92f37506527754f00788853ff9f63b13081565b6000610bf76110f6565b905090565b600b60209081526000928352604080842090915290825290208054600182015460028301546003909301549192909160ff1684565b60005460ff1681565b600c6020526000908152604090208054600182015460028301546003909301549192909160ff1684565b60005461010090046001600160a01b031681565b610c8133610936565b610cbc5760405162461bcd60e51b81526004018080602001828103825260228152602001806114586022913960400191505060405180910390fd5b6109186000805160206114ca8339815191528261097a565b610cdd33610936565b610d185760405162461bcd60e51b81526004018080602001828103825260228152602001806114586022913960400191505060405180910390fd5b6001600160a01b038116610d6e576040805162461bcd60e51b815260206004820152601860248201527741636365737369626c653a207a65726f206164647265737360401b604482015290519081900360640190fd5b336001600160a01b0382161415610dc5576040805162461bcd60e51b815260206004820152601660248201527520b1b1b2b9b9b4b136329d1039b0b6b29030b236b4b760511b604482015290519081900360640190fd5b610ddd6000805160206114ca8339815191528261097a565b6109186000805160206114ca833981519152336109e6565b6000805160206114ca83398151915281565b610e1033610936565b610e4b5760405162461bcd60e51b81526004018080602001828103825260228152602001806114586022913960400191505060405180910390fd5b6003546001600160a01b031615610e9f576040805162461bcd60e51b8152602060048201526013602482015272105b1c9958591e481a5b9a5d1a585b1a5e9959606a1b604482015290519081900360640190fd5b600380546001600160a01b0319166001600160a01b039490941693909317909255600155600255565b610ed133610936565b610f0c5760405162461bcd60e51b81526004018080602001828103825260228152602001806114586022913960400191505060405180910390fd5b6000805460ff1916911515919091179055565b6003546001600160a01b031681565b60098181548110610f3e57600080fd5b600091825260209091206003909102018054600182015460029092015490925083565b6000828152601060205260408120610f799083611235565b9392505050565b6000828152601060205260408120610f799083611241565b600054600160a81b900460ff1681565b600081565b600d6020528160005260406000208181548110610fc957600080fd5b90600052602060002001600091509150505481565b60045481565b60055481565b600f6020526000908152604090205460ff1681565b600081815260106020526040812061095090611256565b60065481565b7ff0887ba65ee2024ea881d91b74c2450ef19e1557f03bed3ea9f16b037cbe2dc981565b60008281526010602052604090206002015461105e90610998611109565b610a3d5760405162461bcd60e51b815260040180806020018281038252603081526020018061147a6030913960400191505060405180910390fd5b600881815481106110a957600080fd5b6000918252602090912001546001600160a01b0316905081565b600e6020526000908152604090205481565b60015481565b3b151590565b6000610f79836001600160a01b038416611261565b6000805160206114aa8339815191525490565b3390565b600082815260106020526040902061112590826110e1565b156109e257611132611109565b6001600160a01b0316816001600160a01b0316837f2f8788117e7eff1d82e926ec794901d17c78024a50270940304540a733656f0d60405160405180910390a45050565b600082815260106020526040902061118e90826112ab565b156109e25761119b611109565b6001600160a01b0316816001600160a01b0316837ff6391f5c32d9c69d2a47ea670b442974b53935d1edc7fd64eb21e047a839171b60405160405180910390a45050565b6111e8816110db565b6112235760405162461bcd60e51b815260040180806020018281038252604681526020018061150e6046913960600191505060405180910390fd5b6000805160206114aa83398151915255565b6000610f7983836112c0565b6000610f79836001600160a01b038416611324565b60006109508261133c565b600061126d8383611324565b6112a357508154600181810184556000848152602080822090930184905584548482528286019093526040902091909155610950565b506000610950565b6000610f79836001600160a01b038416611340565b815460009082106113025760405162461bcd60e51b81526004018080602001828103825260228152602001806114076022913960400191505060405180910390fd5b82600001828154811061131157fe5b9060005260206000200154905092915050565b60009081526001919091016020526040902054151590565b5490565b600081815260018301602052604081205480156113fc578354600019808301919081019060009087908390811061137357fe5b906000526020600020015490508087600001848154811061139057fe5b6000918252602080832090910192909255828152600189810190925260409020908401905586548790806113c057fe5b60019003818190600052602060002001600090559055866001016000878152602001908152602001600020600090556001945050505050610950565b600091505061095056fe456e756d657261626c655365743a20696e646578206f7574206f6620626f756e6473416363657373436f6e74726f6c3a2073656e646572206d75737420626520616e2061646d696e20746f206772616e7441636365737369626c653a2043616c6c6572206973206e6f7420616e2061646d696e416363657373436f6e74726f6c3a2073656e646572206d75737420626520616e2061646d696e20746f207265766f6b65360894a13ba1a3210667c828492db98dca3e2076cc3735a920a3ca505d382bbcdf8b4c520ffe197c5343c6f5aec59570151ef9a492f2c624fd45ddde6135ec424c6f636b544f5350726f78793a20696d706c204f522070726f78792069732066616c736550726f7879426173653a2043616e6e6f742073657420612070726f787920696d706c656d656e746174696f6e20746f2061206e6f6e2d636f6e74726163742061646472657373416363657373436f6e74726f6c3a2063616e206f6e6c792072656e6f756e636520726f6c657320666f722073656c66a2646970667358221220b4dd73b4b2b338e8eb3da03177d444bc6b044692ab7e98ce75e366bc39f526f764736f6c63430007060033df8b4c520ffe197c5343c6f5aec59570151ef9a492f2c624fd45ddde6135ec4250726f7879426173653a2043616e6e6f742073657420612070726f787920696d706c656d656e746174696f6e20746f2061206e6f6e2d636f6e74726163742061646472657373",
  "linkReferences": {},
  "deployedLinkReferences": {}
}