{
  "_format": "hh-sol-artifact-1",
  "contractName": "VestingPublicFund",
  "sourceName": "contracts/VestingPublicFund/VestingPublicFund.sol",
  "abi": [
    {
      "inputs": [],
      "stateMutability": "nonpayable",
      "type": "constructor"
    },
    {
      "anonymous": false,
      "inputs": [
        {
          "indexed": false,
          "internalType": "address",
          "name": "caller",
          "type": "address"
        },
        {
          "indexed": false,
          "internalType": "address",
          "name": "to",
          "type": "address"
        },
        {
          "indexed": false,
          "internalType": "uint256",
          "name": "amount",
          "type": "uint256"
        }
      ],
      "name": "Claimed",
      "type": "event"
    },
    {
      "anonymous": false,
      "inputs": [
        {
          "indexed": false,
          "internalType": "address",
          "name": "from",
          "type": "address"
        },
        {
          "indexed": false,
          "internalType": "uint256",
          "name": "amount",
          "type": "uint256"
        }
      ],
      "name": "Funded",
      "type": "event"
    },
    {
      "anonymous": false,
      "inputs": [
        {
          "indexed": false,
          "internalType": "uint256",
          "name": "_claimCounts",
          "type": "uint256"
        },
        {
          "indexed": false,
          "internalType": "uint256[]",
          "name": "_claimTimes",
          "type": "uint256[]"
        },
        {
          "indexed": false,
          "internalType": "uint256[]",
          "name": "_claimAmounts",
          "type": "uint256[]"
        }
      ],
      "name": "Initialized",
      "type": "event"
    },
    {
      "anonymous": false,
      "inputs": [
        {
          "indexed": true,
          "internalType": "bytes32",
          "name": "role",
          "type": "bytes32"
        },
        {
          "indexed": true,
          "internalType": "bytes32",
          "name": "previousAdminRole",
          "type": "bytes32"
        },
        {
          "indexed": true,
          "internalType": "bytes32",
          "name": "newAdminRole",
          "type": "bytes32"
        }
      ],
      "name": "RoleAdminChanged",
      "type": "event"
    },
    {
      "anonymous": false,
      "inputs": [
        {
          "indexed": true,
          "internalType": "bytes32",
          "name": "role",
          "type": "bytes32"
        },
        {
          "indexed": true,
          "internalType": "address",
          "name": "account",
          "type": "address"
        },
        {
          "indexed": true,
          "internalType": "address",
          "name": "sender",
          "type": "address"
        }
      ],
      "name": "RoleGranted",
      "type": "event"
    },
    {
      "anonymous": false,
      "inputs": [
        {
          "indexed": true,
          "internalType": "bytes32",
          "name": "role",
          "type": "bytes32"
        },
        {
          "indexed": true,
          "internalType": "address",
          "name": "account",
          "type": "address"
        },
        {
          "indexed": true,
          "internalType": "address",
          "name": "sender",
          "type": "address"
        }
      ],
      "name": "RoleRevoked",
      "type": "event"
    },
    {
      "anonymous": false,
      "inputs": [
        {
          "indexed": false,
          "internalType": "bool",
          "name": "_pause",
          "type": "bool"
        }
      ],
      "name": "SetVestingPaused",
      "type": "event"
    },
    {
      "anonymous": false,
      "inputs": [],
      "name": "SetVestingStopped",
      "type": "event"
    },
    {
      "anonymous": false,
      "inputs": [
        {
          "indexed": false,
          "internalType": "address",
          "name": "to",
          "type": "address"
        },
        {
          "indexed": false,
          "internalType": "uint256",
          "name": "amount",
          "type": "uint256"
        }
      ],
      "name": "Withdrawals",
      "type": "event"
    },
    {
      "inputs": [],
      "name": "DEFAULT_ADMIN_ROLE",
      "outputs": [
        {
          "internalType": "bytes32",
          "name": "",
          "type": "bytes32"
        }
      ],
      "stateMutability": "view",
      "type": "function"
    },
    {
      "inputs": [],
      "name": "PROJECT_ADMIN_ROLE",
      "outputs": [
        {
          "internalType": "bytes32",
          "name": "",
          "type": "bytes32"
        }
      ],
      "stateMutability": "view",
      "type": "function"
    },
    {
      "inputs": [
        {
          "internalType": "address",
          "name": "account",
          "type": "address"
        }
      ],
      "name": "addAdmin",
      "outputs": [],
      "stateMutability": "nonpayable",
      "type": "function"
    },
    {
      "inputs": [
        {
          "internalType": "address",
          "name": "_owner",
          "type": "address"
        }
      ],
      "name": "addProxyAdmin",
      "outputs": [],
      "stateMutability": "nonpayable",
      "type": "function"
    },
    {
      "inputs": [
        {
          "internalType": "address",
          "name": "",
          "type": "address"
        }
      ],
      "name": "aliveImplementation",
      "outputs": [
        {
          "internalType": "bool",
          "name": "",
          "type": "bool"
        }
      ],
      "stateMutability": "view",
      "type": "function"
    },
    {
      "inputs": [],
      "name": "allClaimInfos",
      "outputs": [
        {
          "internalType": "uint256",
          "name": "",
          "type": "uint256"
        },
        {
          "internalType": "uint256[]",
          "name": "",
          "type": "uint256[]"
        },
        {
          "internalType": "uint256[]",
          "name": "",
          "type": "uint256[]"
        },
        {
          "internalType": "uint256",
          "name": "",
          "type": "uint256"
        }
      ],
      "stateMutability": "view",
      "type": "function"
    },
    {
      "inputs": [],
      "name": "boolLogEvent",
      "outputs": [
        {
          "internalType": "bool",
          "name": "",
          "type": "bool"
        }
      ],
      "stateMutability": "view",
      "type": "function"
    },
    {
      "inputs": [
        {
          "internalType": "uint256",
          "name": "_round",
          "type": "uint256"
        }
      ],
      "name": "calculClaimAmount",
      "outputs": [
        {
          "internalType": "uint256",
          "name": "amount",
          "type": "uint256"
        }
      ],
      "stateMutability": "view",
      "type": "function"
    },
    {
      "inputs": [
        {
          "internalType": "address",
          "name": "_token",
          "type": "address"
        },
        {
          "internalType": "address",
          "name": "_tosToken",
          "type": "address"
        },
        {
          "internalType": "address",
          "name": "_receivedAddress",
          "type": "address"
        },
        {
          "internalType": "address",
          "name": "_publicSaleVaultAddress",
          "type": "address"
        },
        {
          "internalType": "address",
          "name": "_projectToken",
          "type": "address"
        },
        {
          "internalType": "uint24",
          "name": "_fee",
          "type": "uint24"
        }
      ],
      "name": "changeAddr",
      "outputs": [],
      "stateMutability": "nonpayable",
      "type": "function"
    },
    {
      "inputs": [],
      "name": "claim",
      "outputs": [],
      "stateMutability": "nonpayable",
      "type": "function"
    },
    {
      "inputs": [
        {
          "internalType": "uint256",
          "name": "",
          "type": "uint256"
        }
      ],
      "name": "claimAmounts",
      "outputs": [
        {
          "internalType": "uint256",
          "name": "",
          "type": "uint256"
        }
      ],
      "stateMutability": "view",
      "type": "function"
    },
    {
      "inputs": [
        {
          "internalType": "uint256",
          "name": "",
          "type": "uint256"
        }
      ],
      "name": "claimTimes",
      "outputs": [
        {
          "internalType": "uint256",
          "name": "",
          "type": "uint256"
        }
      ],
      "stateMutability": "view",
      "type": "function"
    },
    {
      "inputs": [],
      "name": "currentRound",
      "outputs": [
        {
          "internalType": "uint256",
          "name": "round",
          "type": "uint256"
        }
      ],
      "stateMutability": "view",
      "type": "function"
    },
    {
      "inputs": [],
      "name": "currentSqrtPriceX96",
      "outputs": [
        {
          "internalType": "uint160",
          "name": "sqrtPriceX96",
          "type": "uint160"
        }
      ],
      "stateMutability": "view",
      "type": "function"
    },
    {
      "inputs": [],
      "name": "fee",
      "outputs": [
        {
          "internalType": "uint24",
          "name": "",
          "type": "uint24"
        }
      ],
      "stateMutability": "view",
      "type": "function"
    },
    {
      "inputs": [
        {
          "internalType": "uint256",
          "name": "amount",
          "type": "uint256"
        }
      ],
      "name": "funding",
      "outputs": [],
      "stateMutability": "nonpayable",
      "type": "function"
    },
    {
      "inputs": [],
      "name": "getPoolAddress",
      "outputs": [
        {
          "internalType": "address",
          "name": "pool",
          "type": "address"
        }
      ],
      "stateMutability": "view",
      "type": "function"
    },
    {
      "inputs": [
        {
          "internalType": "bytes32",
          "name": "role",
          "type": "bytes32"
        }
      ],
      "name": "getRoleAdmin",
      "outputs": [
        {
          "internalType": "bytes32",
          "name": "",
          "type": "bytes32"
        }
      ],
      "stateMutability": "view",
      "type": "function"
    },
    {
      "inputs": [
        {
          "internalType": "bytes32",
          "name": "role",
          "type": "bytes32"
        },
        {
          "internalType": "address",
          "name": "account",
          "type": "address"
        }
      ],
      "name": "grantRole",
      "outputs": [],
      "stateMutability": "nonpayable",
      "type": "function"
    },
    {
      "inputs": [
        {
          "internalType": "bytes32",
          "name": "role",
          "type": "bytes32"
        },
        {
          "internalType": "address",
          "name": "account",
          "type": "address"
        }
      ],
      "name": "hasRole",
      "outputs": [
        {
          "internalType": "bool",
          "name": "",
          "type": "bool"
        }
      ],
      "stateMutability": "view",
      "type": "function"
    },
    {
      "inputs": [
        {
          "internalType": "address",
          "name": "_publicSaleVault",
          "type": "address"
        },
        {
          "internalType": "address",
          "name": "_projectToken",
          "type": "address"
        },
        {
          "internalType": "uint256[]",
          "name": "_claimTimes",
          "type": "uint256[]"
        },
        {
          "internalType": "uint256[]",
          "name": "_claimAmounts",
          "type": "uint256[]"
        },
        {
          "internalType": "uint24",
          "name": "_fee",
          "type": "uint24"
        }
      ],
      "name": "initialize",
      "outputs": [],
      "stateMutability": "nonpayable",
      "type": "function"
    },
    {
      "inputs": [
        {
          "internalType": "address",
          "name": "account",
          "type": "address"
        }
      ],
      "name": "isAdmin",
      "outputs": [
        {
          "internalType": "bool",
          "name": "",
          "type": "bool"
        }
      ],
      "stateMutability": "view",
      "type": "function"
    },
    {
      "inputs": [
        {
          "internalType": "address",
          "name": "_addr",
          "type": "address"
        }
      ],
      "name": "isContract",
      "outputs": [
        {
          "internalType": "bool",
          "name": "_isContract",
          "type": "bool"
        }
      ],
      "stateMutability": "view",
      "type": "function"
    },
    {
      "inputs": [
        {
          "internalType": "address",
          "name": "account",
          "type": "address"
        }
      ],
      "name": "isProxyAdmin",
      "outputs": [
        {
          "internalType": "bool",
          "name": "",
          "type": "bool"
        }
      ],
      "stateMutability": "view",
      "type": "function"
    },
    {
      "inputs": [],
      "name": "logEventAddress",
      "outputs": [
        {
          "internalType": "address",
          "name": "",
          "type": "address"
        }
      ],
      "stateMutability": "view",
      "type": "function"
    },
    {
      "inputs": [],
      "name": "name",
      "outputs": [
        {
          "internalType": "string",
          "name": "",
          "type": "string"
        }
      ],
      "stateMutability": "view",
      "type": "function"
    },
    {
      "inputs": [],
      "name": "nowClaimRound",
      "outputs": [
        {
          "internalType": "uint256",
          "name": "",
          "type": "uint256"
        }
      ],
      "stateMutability": "view",
      "type": "function"
    },
    {
      "inputs": [
        {
          "internalType": "uint256[]",
          "name": "_claimTimes",
          "type": "uint256[]"
        },
        {
          "internalType": "uint256[]",
          "name": "_claimAmounts",
          "type": "uint256[]"
        }
      ],
      "name": "ownerSetting",
      "outputs": [],
      "stateMutability": "nonpayable",
      "type": "function"
    },
    {
      "inputs": [],
      "name": "pauseProxy",
      "outputs": [
        {
          "internalType": "bool",
          "name": "",
          "type": "bool"
        }
      ],
      "stateMutability": "view",
      "type": "function"
    },
    {
      "inputs": [],
      "name": "projectToken",
      "outputs": [
        {
          "internalType": "address",
          "name": "",
          "type": "address"
        }
      ],
      "stateMutability": "view",
      "type": "function"
    },
    {
      "inputs": [
        {
          "internalType": "uint256",
          "name": "",
          "type": "uint256"
        }
      ],
      "name": "proxyImplementation",
      "outputs": [
        {
          "internalType": "address",
          "name": "",
          "type": "address"
        }
      ],
      "stateMutability": "view",
      "type": "function"
    },
    {
      "inputs": [],
      "name": "publicSaleVaultAddress",
      "outputs": [
        {
          "internalType": "address",
          "name": "",
          "type": "address"
        }
      ],
      "stateMutability": "view",
      "type": "function"
    },
    {
      "inputs": [],
      "name": "receivedAddress",
      "outputs": [
        {
          "internalType": "address",
          "name": "",
          "type": "address"
        }
      ],
      "stateMutability": "view",
      "type": "function"
    },
    {
      "inputs": [],
      "name": "removeAdmin",
      "outputs": [],
      "stateMutability": "nonpayable",
      "type": "function"
    },
    {
      "inputs": [],
      "name": "removeProxyAdmin",
      "outputs": [],
      "stateMutability": "nonpayable",
      "type": "function"
    },
    {
      "inputs": [
        {
          "internalType": "bytes32",
          "name": "role",
          "type": "bytes32"
        },
        {
          "internalType": "address",
          "name": "account",
          "type": "address"
        }
      ],
      "name": "renounceRole",
      "outputs": [],
      "stateMutability": "nonpayable",
      "type": "function"
    },
    {
      "inputs": [
        {
          "internalType": "bytes32",
          "name": "role",
          "type": "bytes32"
        },
        {
          "internalType": "address",
          "name": "account",
          "type": "address"
        }
      ],
      "name": "revokeRole",
      "outputs": [],
      "stateMutability": "nonpayable",
      "type": "function"
    },
    {
      "inputs": [
        {
          "internalType": "bytes4",
          "name": "",
          "type": "bytes4"
        }
      ],
      "name": "selectorImplementation",
      "outputs": [
        {
          "internalType": "address",
          "name": "",
          "type": "address"
        }
      ],
      "stateMutability": "view",
      "type": "function"
    },
    {
      "inputs": [],
      "name": "settingCheck",
      "outputs": [
        {
          "internalType": "bool",
          "name": "",
          "type": "bool"
        }
      ],
      "stateMutability": "view",
      "type": "function"
    },
    {
      "inputs": [
        {
          "internalType": "bytes4",
          "name": "interfaceId",
          "type": "bytes4"
        }
      ],
      "name": "supportsInterface",
      "outputs": [
        {
          "internalType": "bool",
          "name": "",
          "type": "bool"
        }
      ],
      "stateMutability": "view",
      "type": "function"
    },
    {
      "inputs": [],
      "name": "token",
      "outputs": [
        {
          "internalType": "address",
          "name": "",
          "type": "address"
        }
      ],
      "stateMutability": "view",
      "type": "function"
    },
    {
      "inputs": [],
      "name": "tosToken",
      "outputs": [
        {
          "internalType": "address",
          "name": "",
          "type": "address"
        }
      ],
      "stateMutability": "view",
      "type": "function"
    },
    {
      "inputs": [],
      "name": "totalAllocatedAmount",
      "outputs": [
        {
          "internalType": "uint256",
          "name": "",
          "type": "uint256"
        }
      ],
      "stateMutability": "view",
      "type": "function"
    },
    {
      "inputs": [],
      "name": "totalClaimCounts",
      "outputs": [
        {
          "internalType": "uint256",
          "name": "",
          "type": "uint256"
        }
      ],
      "stateMutability": "view",
      "type": "function"
    },
    {
      "inputs": [],
      "name": "totalClaimsAmount",
      "outputs": [
        {
          "internalType": "uint256",
          "name": "",
          "type": "uint256"
        }
      ],
      "stateMutability": "view",
      "type": "function"
    },
    {
      "inputs": [
        {
          "internalType": "address",
          "name": "newAdmin",
          "type": "address"
        }
      ],
      "name": "transferAdmin",
      "outputs": [],
      "stateMutability": "nonpayable",
      "type": "function"
    },
    {
      "inputs": [
        {
          "internalType": "address",
          "name": "newAdmin",
          "type": "address"
        }
      ],
      "name": "transferProxyAdmin",
      "outputs": [],
      "stateMutability": "nonpayable",
      "type": "function"
    },
    {
      "inputs": [],
      "name": "uniswapV3Factory",
      "outputs": [
        {
          "internalType": "address",
          "name": "",
          "type": "address"
        }
      ],
      "stateMutability": "view",
      "type": "function"
    }
  ],
  "bytecode": "0x6080604052600060095534801561001557600080fd5b50612932806100256000396000f3fe608060405234801561001057600080fd5b50600436106102605760003560e01c80637048027511610147578063b8d041eb116100be578063b8d041eb14610529578063b911135f1461053c578063be72f2d314610565578063cfc412be1461056d578063d547741f14610576578063ddca3f4314610589578063eab73ca1146105b3578063ed5131f5146105cb578063f47f2f1d146105de578063f586c6d9146105f1578063fab878a4146105f9578063fc0c546a1461060c57600080fd5b8063704802751461046657806375829def146104795780638356ca4f1461048c578063877aaf4f1461049f5780638a19c8bc146104b257806391d14854146104ba57806392ca60c1146104cd578063956f72cd146104e057806396f1557c146104f35780639a202d4714610506578063a217fddf1461050e578063a4de91791461051657600080fd5b806334b38cc3116101db57806334b38cc31461036e57806336568abe1461038657806341c04d5e1461039957806347fd03d9146103ae5780634b60ce77146103c35780634e71d92d146103d657806350d2a276146103de578063550d01a314610407578063556400081461042a5780635b5491821461043357806363a8fd89146104465780636545eb1c1461045357600080fd5b806301ffc9a71461026557806306fdde031461028d5780630a59fa08146102a25780630f4388c0146102af578063117ab874146102d057806316279055146102d957806321cf4370146102f3578063248a9ca31461030757806324d7806c1461032a578063256019d61461033d5780632ed44d60146103465780632f2ff15d1461035b575b600080fd5b6102786102733660046123bd565b61061f565b60405190151581526020015b60405180910390f35b610295610656565b604051610284919061258e565b6011546102789060ff1681565b6102c26102bd366004612376565b6106e4565b604051908152602001610284565b6102c260095481565b6102786102e73660046121cd565b3b63ffffffff16151590565b60055461027890600160b81b900460ff1681565b6102c2610315366004612376565b60009081526012602052604090206001015490565b6102786103383660046121cd565b610705565b6102c260085481565b610359610354366004612266565b61071f565b005b61035961036936600461238e565b6108aa565b6103766108d5565b6040516102849493929190612753565b61035961039436600461238e565b610998565b6102c26000805160206128dd83398151915281565b6103b6610a16565b604051610284919061253d565b6002546103b6906001600160a01b031681565b610359610ac5565b6103b66103ec3660046123bd565b6010602052600090815260409020546001600160a01b031681565b6102786104153660046121cd565b600f6020526000908152604090205460ff1681565b6102c260075481565b6003546103b6906001600160a01b031681565b600d546102789060ff1681565b6004546103b6906001600160a01b031681565b6103596104743660046121cd565b610bf5565b6103596104873660046121cd565b610c35565b61035961049a3660046121cd565b610ce8565b6001546103b6906001600160a01b031681565b6102c2610d72565b6102786104c836600461238e565b610e5d565b6103596104db366004612376565b610e88565b6103596104ee3660046121e9565b611150565b6103596105013660046121cd565b6112b8565b6103596112e8565b6102c2600081565b6102c2610524366004612376565b611334565b6103596105373660046122fc565b6113e1565b6103b661054a366004612376565b600e602052600090815260409020546001600160a01b031681565b61035961146c565b6102c2600a5481565b61035961058436600461238e565b61149c565b60055461059f90600160a01b900462ffffff1681565b60405162ffffff9091168152602001610284565b6011546103b69061010090046001600160a01b031681565b6102c26105d9366004612376565b6114c2565b6102786105ec3660046121cd565b6114d2565b6103b66114de565b6005546103b6906001600160a01b031681565b6000546103b6906001600160a01b031681565b60006001600160e01b03198216637965db0b60e01b148061065057506301ffc9a760e01b6001600160e01b03198316145b92915050565b6006805461066390612845565b80601f016020809104026020016040519081016040528092919081815260200182805461068f90612845565b80156106dc5780601f106106b1576101008083540402835291602001916106dc565b820191906000526020600020905b8154815290600101906020018083116106bf57829003601f168201915b505050505081565b600c81815481106106f457600080fd5b600091825260209091200154905081565b60006106506000805160206128dd83398151915283610e5d565b846001600160a01b03811661074f5760405162461bcd60e51b8152600401610746906125c1565b60405180910390fd5b846001600160a01b0381166107765760405162461bcd60e51b8152600401610746906125c1565b6004546001600160a01b0316331480610793575061079333610705565b6107ee5760405162461bcd60e51b815260206004820152602660248201527f63616c6c6572206973206e6f7420726563656976656441646472657373206f726044820152651030b236b4b760d11b6064820152608401610746565b600554600160b81b900460ff161515600114156108425760405162461bcd60e51b8152602060048201526012602482015271105b1c9958591e481a5b9a5d185b1a5e995960721b6044820152606401610746565b60058054600280546001600160a01b0319166001600160a01b038a81169190911790915589166001600160b81b031990911617600160a01b62ffffff86160217905561088e8585611642565b50506005805460ff60b81b1916600160b81b1790555050505050565b6000828152601260205260409020600101546108c68133611b28565b6108d08383611b8c565b505050565b60006060806000600854600b600c6009548280548060200260200160405190810160405280929190818152602001828054801561093157602002820191906000526020600020905b81548152602001906001019080831161091d575b505050505092508180548060200260200160405190810160405280929190818152602001828054801561098357602002820191906000526020600020905b81548152602001906001019080831161096f575b50505050509150935093509350935090919293565b6001600160a01b0381163314610a085760405162461bcd60e51b815260206004820152602f60248201527f416363657373436f6e74726f6c3a2063616e206f6e6c792072656e6f756e636560448201526e103937b632b9903337b91039b2b63360891b6064820152608401610746565b610a128282611c12565b5050565b600080610a216114de565b90506001600160a01b03811615801590610a415750803b63ffffffff1615155b15610ac157806001600160a01b0316633850c7bd6040518163ffffffff1660e01b815260040160e06040518083038186803b158015610a7f57600080fd5b505afa158015610a93573d6000803e3d6000fd5b505050506040513d601f19601f82011682018060405250810190610ab791906123e5565b5094965050505050505b5090565b610acd610a16565b6001600160a01b0316610af25760405162461bcd60e51b8152600401610746906126aa565b600b600081548110610b1457634e487b7160e01b600052603260045260246000fd5b9060005260206000200154600014158015610b5a5750600b600081548110610b4c57634e487b7160e01b600052603260045260246000fd5b906000526020600020015442115b610b9f5760405162461bcd60e51b815260206004820152601660248201527515985d5b1d0e881b9bdd081cdd185c9d1959081e595d60521b6044820152606401610746565b600a5460075411610beb5760405162461bcd60e51b815260206004820152601660248201527515985d5b1d0e88185b1c9958591e48105b1b0819d95d60521b6044820152606401610746565b610bf3611c79565b565b610bfe336114d2565b610c1a5760405162461bcd60e51b815260040161074690612662565b610c326000805160206128dd833981519152826108aa565b50565b610c3e33610705565b80610c4d5750610c4d336114d2565b610c695760405162461bcd60e51b8152600401610746906125ee565b6001600160a01b038116610c8f5760405162461bcd60e51b815260040161074690612630565b336001600160a01b0382161415610cb85760405162461bcd60e51b8152600401610746906126ee565b610cd06000805160206128dd833981519152826108aa565b610c326000805160206128dd83398151915233610998565b610cf1336114d2565b610d0d5760405162461bcd60e51b815260040161074690612662565b6001600160a01b038116610d335760405162461bcd60e51b815260040161074690612630565b336001600160a01b0382161415610d5c5760405162461bcd60e51b8152600401610746906126ee565b610d676000826108aa565b610c32600033610998565b600b54600090610d825750600090565b600b600081548110610da457634e487b7160e01b600052603260045260246000fd5b9060005260206000200154421015610dba575060005b600b6001600854610dcb91906127e7565b81548110610de957634e487b7160e01b600052603260045260246000fd5b90600052602060002001544210610dff57506008545b60005b600854811015610ac15742600b8281548110610e2e57634e487b7160e01b600052603260045260246000fd5b906000526020600020015411610ac157610e49816001612790565b915080610e5581612880565b915050610e02565b60009182526012602090815260408084206001600160a01b0393909316845291905290205460ff1690565b610e90610a16565b6001600160a01b0316610eb55760405162461bcd60e51b8152600401610746906126aa565b600b54610f045760405162461bcd60e51b815260206004820181905260248201527f736574207570206120636c61696d20726f756e6420666f722076657374696e676044820152606401610746565b6005546001600160a01b03163314610f5e5760405162461bcd60e51b815260206004820152601e60248201527f63616c6c6572206973206e6f74207075626c696353616c655661756c742e00006044820152606401610746565b600054600554604051636eb1769f60e11b81526001600160a01b0391821660048201523060248201528392919091169063dd62ed3e9060440160206040518083038186803b158015610faf57600080fd5b505afa158015610fc3573d6000803e3d6000fd5b505050506040513d601f19601f82011682018060405250810190610fe7919061247c565b10156110355760405162461bcd60e51b815260206004820152601f60248201527f66756e64696e673a20696e73756666696369656e7420616c6c6f77616e6365006044820152606401610746565b80600760008282546110479190612790565b90915550506000546005546040516323b872dd60e01b81526001600160a01b03928316926323b872dd926110849291169030908690600401612551565b602060405180830381600087803b15801561109e57600080fd5b505af11580156110b2573d6000803e3d6000fd5b505050506040513d601f19601f820116820180604052508101906110d6919061235c565b507f5af8184bef8e4b45eb9f6ed7734d04da38ced226495548f46e0c8ff8d7d9a5243382604051611108929190612575565b60405180910390a1600061111a610d72565b90506000811180156111345750600061113282611334565b115b80156111435750600a54600754115b15610a1257610a12611c79565b611159336114d2565b6111755760405162461bcd60e51b815260040161074690612662565b856001600160a01b03811661119c5760405162461bcd60e51b8152600401610746906125c1565b856001600160a01b0381166111c35760405162461bcd60e51b8152600401610746906125c1565b856001600160a01b0381166111ea5760405162461bcd60e51b8152600401610746906125c1565b856001600160a01b0381166112115760405162461bcd60e51b8152600401610746906125c1565b856001600160a01b0381166112385760405162461bcd60e51b8152600401610746906125c1565b5050600080546001600160a01b039a8b166001600160a01b03199182161790915560018054998b1699821699909917909855505060048054958816958716959095179094556005805460028054948916949097169390931790955562ffffff16600160a01b026001600160b81b0319909116919094161792909217905550565b6112c1336114d2565b6112dd5760405162461bcd60e51b815260040161074690612662565b610c32600082611e93565b6112f133610705565b806113005750611300336114d2565b61131c5760405162461bcd60e51b8152600401610746906125ee565b610bf36000805160206128dd83398151915233610998565b600061133e610d72565b61134a57506000919050565b60085415806113595750600754155b1561136657506000919050565b81600854141561138057600a5460075461065091906127e7565b600a546064600c6113926001866127e7565b815481106113b057634e487b7160e01b600052603260045260246000fd5b90600052602060002001546007546113c891906127c8565b6113d291906127a8565b61065091906127e7565b919050565b6113ea336114d2565b6114065760405162461bcd60e51b815260040161074690612662565b600554600160b81b900460ff1615156001141561143557611429600b6000612085565b611435600c6000612085565b61143f8282611642565b600554600160b81b900460ff161515600114610a12576005805460ff60b81b1916600160b81b1790555050565b611475336114d2565b6114915760405162461bcd60e51b815260040161074690612662565b610bf3600033610998565b6000828152601260205260409020600101546114b88133611b28565b6108d08383611c12565b600b81815481106106f457600080fd5b60006106508183610e5d565b6001546000907fe34f199b19b2b4f47f68442619d555527d244f78a3297ea89325f843f87b8b54906001600160a01b0316158061152457506002546001600160a01b0316155b8061153b5750600554600160a01b900462ffffff16155b8061154f57506003546001600160a01b0316155b1561155c57600091505090565b6001546002546001600160a01b0391821691168082111561158d5750506002546001546001600160a01b0391821691165b600354600554604080516001600160a01b03868116602083015285811692820192909252600160a01b90920462ffffff166060830152909116906080016040516020818303038152906040528051906020012084604051602001611621939291906001600160f81b0319815260609390931b6001600160601b03191660018401526015830191909152603582015260550190565b6040516020818303038152906040528051906020012060001c935050505090565b815161169e5760405162461bcd60e51b815260206004820152602560248201527f636c61696d436f756e7473206d7573742062652067726561746572207468616e604482015264207a65726f60d81b6064820152608401610746565b80518251146117095760405162461bcd60e51b815260206004820152603160248201527f5f636c61696d54696d657320616e64205f636c61696d416d6f756e7473206c656044820152700dccee8d040c8de40dcdee840dac2e8c6d607b1b6064820152608401610746565b8151816117176001836127e7565b8151811061173557634e487b7160e01b600052603260045260246000fd5b602002602001015160641461178c5760405162461bcd60e51b815260206004820152601e60248201527f46696e616c20636c61696d416d6f756e7473206973206e6f74203130302500006044820152606401610746565b60015b8181101561194d5742846117a46001846127e7565b815181106117c257634e487b7160e01b600052603260045260246000fd5b602002602001015111801561182e5750836117de6001836127e7565b815181106117fc57634e487b7160e01b600052603260045260246000fd5b602002602001015184828151811061182457634e487b7160e01b600052603260045260246000fd5b6020026020010151115b6118865760405162461bcd60e51b815260206004820152602360248201527f636c61696d54696d65732073686f756c64206e6f742062652064656372656173604482015262696e6760e81b6064820152608401610746565b826118926001836127e7565b815181106118b057634e487b7160e01b600052603260045260246000fd5b60200260200101518382815181106118d857634e487b7160e01b600052603260045260246000fd5b60200260200101511161193b5760405162461bcd60e51b815260206004820152602560248201527f636c61696d416d6f756e74732073686f756c64206e6f742062652064656372656044820152646173696e6760d81b6064820152608401610746565b8061194581612880565b91505061178f565b6008829055816001600160401b0381111561197857634e487b7160e01b600052604160045260246000fd5b6040519080825280602002602001820160405280156119a1578160200160208202803683370190505b5080516119b691600b916020909101906120a3565b50816001600160401b038111156119dd57634e487b7160e01b600052604160045260246000fd5b604051908082528060200260200182016040528015611a06578160200160208202803683370190505b508051611a1b91600c916020909101906120a3565b50600090505b81811015611ae757838181518110611a4957634e487b7160e01b600052603260045260246000fd5b6020026020010151600b8281548110611a7257634e487b7160e01b600052603260045260246000fd5b9060005260206000200181905550828181518110611aa057634e487b7160e01b600052603260045260246000fd5b6020026020010151600c8281548110611ac957634e487b7160e01b600052603260045260246000fd5b60009182526020909120015580611adf81612880565b915050611a21565b7f12873a1ba5439c01ce32f029af47fb34c77d83bb82778dc104901021ac0a73e0828585604051611b1a9392919061271e565b60405180910390a150505050565b611b328282610e5d565b610a1257611b4a816001600160a01b03166014611e9d565b611b55836020611e9d565b604051602001611b669291906124ce565b60408051601f198184030181529082905262461bcd60e51b82526107469160040161258e565b611b968282610e5d565b610a125760008281526012602090815260408083206001600160a01b03851684529091529020805460ff19166001179055611bce3390565b6001600160a01b0316816001600160a01b0316837f2f8788117e7eff1d82e926ec794901d17c78024a50270940304540a733656f0d60405160405180910390a45050565b611c1c8282610e5d565b15610a125760008281526012602090815260408083206001600160a01b0385168085529252808320805460ff1916905551339285917ff6391f5c32d9c69d2a47ea670b442974b53935d1edc7fd64eb21e047a839171b9190a45050565b6000611c83610d72565b90506000611c9082611334565b905060008111611cdd5760405162461bcd60e51b8152602060048201526018602482015277636c61696d61626c6520616d6f756e74206973207a65726f60401b6044820152606401610746565b6000546040516370a0823160e01b815282916001600160a01b0316906370a0823190611d0d90309060040161253d565b60206040518083038186803b158015611d2557600080fd5b505afa158015611d39573d6000803e3d6000fd5b505050506040513d601f19601f82011682018060405250810190611d5d919061247c565b1015611da95760405162461bcd60e51b815260206004820152601b60248201527a5661756c743a20696e73756666696369656e742062616c616e636560281b6044820152606401610746565b6009829055600a54611dbc908290612790565b600a556000546004805460405163a9059cbb60e01b81526001600160a01b039384169363a9059cbb93611df59390911691869101612575565b602060405180830381600087803b158015611e0f57600080fd5b505af1158015611e23573d6000803e3d6000fd5b505050506040513d601f19601f82011682018060405250810190611e47919061235c565b506004546040517ff7a40077ff7a04c7e61f6f26fb13774259ddf1b6bce9ecf26a8276cdd399268391611e879133916001600160a01b0316908590612551565b60405180910390a15050565b610a128282611b8c565b60606000611eac8360026127c8565b611eb7906002612790565b6001600160401b03811115611edc57634e487b7160e01b600052604160045260246000fd5b6040519080825280601f01601f191660200182016040528015611f06576020820181803683370190505b509050600360fc1b81600081518110611f2f57634e487b7160e01b600052603260045260246000fd5b60200101906001600160f81b031916908160001a905350600f60fb1b81600181518110611f6c57634e487b7160e01b600052603260045260246000fd5b60200101906001600160f81b031916908160001a9053506000611f908460026127c8565b611f9b906001612790565b90505b600181111561202f576f181899199a1a9b1b9c1cb0b131b232b360811b85600f1660108110611fdd57634e487b7160e01b600052603260045260246000fd5b1a60f81b82828151811061200157634e487b7160e01b600052603260045260246000fd5b60200101906001600160f81b031916908160001a90535060049490941c936120288161282e565b9050611f9e565b50831561207e5760405162461bcd60e51b815260206004820181905260248201527f537472696e67733a20686578206c656e67746820696e73756666696369656e746044820152606401610746565b9392505050565b5080546000825590600052602060002090810190610c3291906120e6565b8280548282559060005260206000209081019282156120de579160200282015b828111156120de5782518255916020019190600101906120c3565b50610ac19291505b5b80821115610ac157600081556001016120e7565b600082601f83011261210b578081fd5b813560206001600160401b0380831115612127576121276128b1565b8260051b604051601f19603f8301168101818110848211171561214c5761214c6128b1565b6040528481528381019250868401828801850189101561216a578687fd5b8692505b8583101561218c57803584529284019260019290920191840161216e565b50979650505050505050565b805180151581146113dc57600080fd5b805161ffff811681146113dc57600080fd5b803562ffffff811681146113dc57600080fd5b6000602082840312156121de578081fd5b813561207e816128c7565b60008060008060008060c08789031215612201578182fd5b863561220c816128c7565b9550602087013561221c816128c7565b9450604087013561222c816128c7565b9350606087013561223c816128c7565b9250608087013561224c816128c7565b915061225a60a088016121ba565b90509295509295509295565b600080600080600060a0868803121561227d578081fd5b8535612288816128c7565b94506020860135612298816128c7565b935060408601356001600160401b03808211156122b3578283fd5b6122bf89838a016120fb565b945060608801359150808211156122d4578283fd5b506122e1888289016120fb565b9250506122f0608087016121ba565b90509295509295909350565b6000806040838503121561230e578182fd5b82356001600160401b0380821115612324578384fd5b612330868387016120fb565b93506020850135915080821115612345578283fd5b50612352858286016120fb565b9150509250929050565b60006020828403121561236d578081fd5b61207e82612198565b600060208284031215612387578081fd5b5035919050565b600080604083850312156123a0578182fd5b8235915060208301356123b2816128c7565b809150509250929050565b6000602082840312156123ce578081fd5b81356001600160e01b03198116811461207e578182fd5b600080600080600080600060e0888a0312156123ff578081fd5b875161240a816128c7565b8097505060208801518060020b8114612421578182fd5b955061242f604089016121a8565b945061243d606089016121a8565b935061244b608089016121a8565b925060a088015160ff81168114612460578182fd5b915061246e60c08901612198565b905092959891949750929550565b60006020828403121561248d578081fd5b5051919050565b6000815180845260208085019450808401835b838110156124c3578151875295820195908201906001016124a7565b509495945050505050565b76020b1b1b2b9b9a1b7b73a3937b61d1030b1b1b7bab73a1604d1b8152600083516125008160178501602088016127fe565b7001034b99036b4b9b9b4b733903937b6329607d1b60179184019182015283516125318160288401602088016127fe565b01602801949350505050565b6001600160a01b0391909116815260200190565b6001600160a01b039384168152919092166020820152604081019190915260600190565b6001600160a01b03929092168252602082015260400190565b60208152600082518060208401526125ad8160408501602087016127fe565b601f01601f19169190910160400192915050565b6020808252601390820152725661756c743a207a65726f206164647265737360681b604082015260600190565b60208082526022908201527f41636365737369626c653a2043616c6c6572206973206e6f7420616e2061646d60408201526134b760f11b606082015260800190565b60208082526018908201527741636365737369626c653a207a65726f206164647265737360401b604082015260600190565b60208082526028908201527f41636365737369626c653a2043616c6c6572206973206e6f7420616e2070726f6040820152673c3c9030b236b4b760c11b606082015260800190565b60208082526024908201527f706f6f6c27732063757272656e7420737172745072696365583936206973207a60408201526332b9379760e11b606082015260800190565b60208082526016908201527520b1b1b2b9b9b4b136329d1039b0b6b29030b236b4b760511b604082015260600190565b8381526060602082015260006127376060830185612494565b82810360408401526127498185612494565b9695505050505050565b84815260806020820152600061276c6080830186612494565b828103604084015261277e8186612494565b91505082606083015295945050505050565b600082198211156127a3576127a361289b565b500190565b6000826127c357634e487b7160e01b81526012600452602481fd5b500490565b60008160001904831182151516156127e2576127e261289b565b500290565b6000828210156127f9576127f961289b565b500390565b60005b83811015612819578181015183820152602001612801565b83811115612828576000848401525b50505050565b60008161283d5761283d61289b565b506000190190565b600181811c9082168061285957607f821691505b6020821081141561287a57634e487b7160e01b600052602260045260246000fd5b50919050565b60006000198214156128945761289461289b565b5060010190565b634e487b7160e01b600052601160045260246000fd5b634e487b7160e01b600052604160045260246000fd5b6001600160a01b0381168114610c3257600080fdfe52eafc11f6f81f86878bffd31109a0d92f37506527754f00788853ff9f63b130a2646970667358221220fe4bd6c7b65739a8ff94a2e6ed01e737e6670ed7b5e56f57d7602d04f4b46b8f64736f6c63430008040033",
  "linkReferences": {},
  "deployedLinkReferences": {}
}